:020000040802F0
:10000000784501209D010208A11B0208231902085E
:100010009D1B0208710902087977020800000000A0
:100020000000000000000000000000006D22020837
:10003000D10A020800000000991E02088D23020860
:10004000B7010208B7010208B7010208B7010208A8
:10005000B7010208B7010208B7010208B701020898
:10006000B7010208B7010208B7010208B701020888
:10007000B7010208B7010208B7010208B701020878
:10008000B7010208B7010208B7010208B701020868
:10009000B7010208B7010208B7010208B701020858
:1000A000B7010208B7010208B7010208B701020848
:1000B000FD230208B7010208B7010208B7010208D0
:1000C000B7010208B7010208B7010208B701020828
:1000D000B7010208B7010208B7010208B701020818
:1000E000B7010208B7010208B7010208B701020808
:1000F000B7010208B7010208B7010208B7010208F8
:10010000B7010208B7010208F9270208B70102087F
:10011000B7010208B7010208B7010208B7010208D7
:10012000B7010208B7010208B7010208B7010208C7
:10013000B7010208B7010208B7010208B7010208B7
:10014000B7010208B7010208B7010208311C020812
:10015000B7010208B7010208B7010208B701020897
:10016000B7010208B7010208B7010208B701020887
:10017000B7010208411C0208B7010208B7010208D2
:10018000B7010208B7010208DFF80CD000F04EFA00
:10019000004800476103030878450120064880476E
:1001A00006480047FEE7FEE7FEE7FEE7FEE7FEE75C
:1001B000FEE7FEE7FEE7FEE7912302088901020859
:1001C0002DE9F05F0546002092469B46884606468C
:1001D000814640241BE0284641464746224600F01F
:1001E00060F853465A46C01A914110D3114618463A
:1001F000224600F047F82D1A67EB01084F462246C9
:100200000120002100F03EF817EB00094E41201EAE
:10021000A4F10104DFDC484631462A464346BDE8E6
:10022000F09F30B505462A460B4612F8010B13F82D
:10023000014B08B1A042F8D01CB1002802D06D1CBF
:10024000F1E7284630BD034611F8012B00F8012BD9
:10025000002AF9D11846704730B50B4601460020F8
:100260002022012409E021FA02F59D4205D303FA78
:1002700002F5491B04FA02F52844151EA2F10102F9
:10028000F1DC30BD202A04DB203A00FA02F1002024
:1002900070479140C2F1200320FA03F319439040C4
:1002A0007047202A04DB203A21FA02F0002170472F
:1002B00021FA02F3D040C2F12002914008431946CE
:1002C00070472DE9FE4F804681EA0300C00F0C46BF
:1002D000009021F0004123F00045B8EB0200A94155
:1002E00005D24046214690461C460B46024623F066
:1002F0000040104304D14046214603B0BDE8F08FD2
:10030000270DC7F30A00C3F30A510290401A019067
:10031000402866DAC3F3130040F4801B009892462D
:1003200020B10023D2EB030A63EB0B0B0198594673
:10033000C0F140025046FFF7A5FF06460D46504665
:100340005946019A00F084F910EB0800614100243D
:1003500087EA115284EAE7731A433BD0009A3AB312
:10036000019A012A4FEA075210DC001B61EB0201DF
:100370004FF0004202EA0752CDE90042001C41F56D
:10038000801132462B4600F082F9B6E7001B61EB84
:100390000201001C41F5801300185B412018A2F5F2
:1003A000001747EB030140EAD570B6196D4111E023
:1003B0006D084FEA360645EAC0754FEA0752001B42
:1003C00061EB0201001C41F5801149084FEA300041
:1003D0000019514132462B4603B0BDE8F04F00F002
:1003E00049B90098012240000023D0EB020263EBE0
:1003F000E073009821464FEAE074B8EB000061EB2F
:100400000401E9E783F000435BE781F0004158E72E
:100410002DE9FE4F81EA030404F0004421F000417D
:1004200000944FF0000B23F0004350EA010402D087
:1004300052EA030404D10020014603B0BDE8F08F66
:10044000C3F30A54C1F30A552C44A4F2F3340194C3
:10045000A0FB0254C1F3130141F48011C3F3130351
:1004600043F4801301FB024400FB034E840A970A05
:1004700044EA815447EA8357A4FB076802958D0A32
:1004800005FB07854FEA932C04FB0C542705029DBE
:100490004FEA065847EA1637B5EB08056EEB070C2E
:1004A000870E920E47EA811742EA8312A7FB0201E8
:1004B000B6EB0B0164EB00042B0D43EA0C335E1822
:1004C00044EB1C50DA465146E7FB0201C5F3130426
:1004D0004FEA0B3343EA14534FEA0432019C43EAD8
:1004E0000603A4F10C040294009CCDE900B400F0D2
:1004F000CEF8A2E72DE9F04D81EA030404F0004BA9
:1005000021F0004514464FF0000A23F0004150EA64
:10051000050220D054EA01021DD0C5F30A57024655
:10052000C5F31303C1F31300C1F30A5640F4801559
:1005300043F48013A7EB0608101BD64608F2FD38DB
:1005400073EB050002D308F1010801E092185B414A
:10055000B8F1000F03DA00200146BDE8F08D00205D
:100560004FF48011064684460EE0171B73EB050717
:1005700005D3121B63EB050306434CEA010C490843
:100580004FEA300092185B4150EA0107EDD152EA80
:10059000030012D082EA040083EA0501084303D174
:1005A00000224FF0004308E0101BAB4102D20122B1
:1005B000002302E06FF0010253101AEB06004CEB2F
:1005C000085110EB0A0041EB0B01BDE8F04D00F0C3
:1005D00051B8C1F30A52C1F3130140F2FF3341F4A1
:1005E00080119A4202DA00200146704740F23343FC
:1005F0009A42A2F2334202DC5242FFF752BEFFF7A8
:1006000041BE000030B5002904DB4FF000444042F9
:1006100064EB0101002B04DB4FF00044524264EB19
:100620000303994208BF904230BD0000064C074DBD
:1006300006E0E06840F0010394E8070098471034B2
:10064000AC42F6D3FFF7A4FD18A7030838A70308A8
:10065000202A06DBCB17203A41FA02F043EAE07386
:1006600006E041FA02F3D040C2F120029140084373
:100670001946704710B5002B08DA401C41F1000103
:1006800092185B411A4301D120F0010010BD2DE901
:10069000F04D92469B4611B1B1FA81F202E0B0FAF8
:1006A00080F220329046FFF7EDFD04460F4640EA07
:1006B0000A0041EA0B0153465A46084303D120463B
:1006C0003946BDE8F08D114653EA010015D0C8F156
:1006D00040025046FFF7E5FD05460E465046594696
:1006E0004246FFF7CFFD084301D0012000E0002083
:1006F000054346EAE0762C4337430A984FEA4453D1
:10070000A0EB08004FEAD4240A304FF0000244EA7C
:1007100047544FEAD72502D500200146D1E701050D
:1007200010196941DDE9084500196941BDE8F04D3E
:10073000A0E770B58D1810F8014B14F0030201D139
:1007400010F8012B231106D110F8013B03E010F83B
:10075000016B01F8016B521EF9D1B3B110F8012BF6
:1007600004F00C048A1A0C2C04D0A2EB841203F1BE
:10077000020308E010F8014BA2EB0422F7E712F89D
:10078000014B01F8014B5B1EF9D5A942D3D30020E0
:1007900070BD000000210A4A11680A4A01EA0201FC
:1007A000D0E9002342EA0302836842EA0302C368F5
:1007B00042EA030242EA0101034AC2F80413704705
:1007C00004230140E030FCFF0020014030B5024628
:1007D000002000235068104C20400D790C6844EA3A
:1007E00005242043506090680C4C2040D1E903540C
:1007F0002C438D682C434D7944EA45042043906096
:10080000D06A20F470000C7D641EE4B2234340EAF9
:100810000350D06230BD0000FFFEFFFCFDF7FFC0BB
:10082000F0B504460D4600200021092D11DDE068D9
:10083000A5F10A0606EB4607072606FA07F18843E4
:10084000A5F10A0606EB460603FA06F10843E06046
:100850000CE0206905EB4507072606FA07F18843F7
:1008600005EB450603FA06F108432061072A0FDA73
:10087000606B561E06EB86071F2606FA07F18843B3
:10088000561E06EB860605FA06F10843606322E071
:100890000D2A0FDA206BD61F06EB86071F2606FAF5
:1008A00007F18843D61F06EB860605FA06F10843D2
:1008B000206310E0E06AA2F10D0606EB86071F2612
:1008C00006FA07F18843A2F10D0606EB860605FA43
:1008D00006F10843E062F0BD70B505460C460748D6
:1008E0000560204600F00EF800BF044800680028AC
:1008F000FBD10021024801F092FF70BD340D0020B1
:10090000000C00403EB504460021184801F087FF66
:1009100000220121154801F0B6FF022C02D10B2064
:10092000019004E0012C02D142F6DF600190052025
:10093000ADF800000020ADF80800ADF802006946EF
:100940000A4802F037F80121084801F065FF01214B
:10095000064801F055FF01221146044801F093FFBB
:100960000121024801F05BFF3EBD0000000C004089
:1009700000BFFEE71CB50121D12001F08FFA042051
:10098000009000208DF804008DF8060001208DF8FD
:10099000070002208DF8050069461A4800F0E0FEC5
:1009A000082000906946174800F0DAFE10200090F9
:1009B0006946144800F0D4FE202000906946114892
:1009C00000F0CEFE4FF40050009069460E4800F053
:1009D000C7FE0120009069460C4800F0C1FE0220CD
:1009E00000906946094800F0BBFE0420009069466B
:1009F000074800F0B5FE082000906946044800F062
:100A0000AFFE1CBD00100240001802400000024072
:100A1000001C024070B500265A201F4908700025AE
:100A20002BE000241D48006910F0200F01D144F094
:100A300001041A48006910F0100F01D144F00204BB
:100A40001648006910F0080F01D144F0040413485F
:100A5000006910F0040F01D144F008040E4800783A
:100A6000844205D1701CC0B20646022803DB06E0B2
:100A7000094804700026681CC5B2142DD1DB00BFE4
:100A80000548017806A011F033FC142D02DB08A004
:100A900011F02EFC70BD0000200D0020001002405F
:100AA0000D20444950205357203D20253278000026
:100AB00009202A2A2A204449502053572072656170
:100AC00064204572726F72212121202A2A2A000097
:100AD0007047000100E0401E0028FCD17047000074
:100AE0002DE9F04FADF5177D06460FF27819002776
:100AF000412E03D146264FF0500801E04FF6FF7813
:100B000000205B49087049460AA80DF056FF594974
:100B100008700846007800287BD1494656A011F09D
:100B2000E7FB00BF91A90AA80EF07EF851490870B2
:100B30000846007810B99DF84D0200B986E09DF88E
:100B40004D022E2800D1EDE70DF24D2555A34A4662
:100B500055A102A8009506F011FE9DF84C0210F078
:100B6000100F00D0DEE752A12846FFF75AFB0028FD
:100B70006BD0687AB04202D0687A404565D13C4873
:100B80000078401C3A4908702A460846017849A076
:100B900011F0AEFB36480078402800DB56E0687A5A
:100BA000502805D14E48007840F001004C490870AB
:100BB000687A462805D14A48007840F00200484942
:100BC00008702B480078441E0320B4FBF0F000EBC3
:100BD000800101EBC0005A2101EB40001FFA80FAAE
:100BE0000320B4FBF0F100FB1140C0EB0010C0EBA0
:100BF000C000642101EB400B2CA300225146584653
:100C0000009510F082FD02A801F01CFA0746394653
:100C100000E01CE033A011F06BFB002405E0A4F120
:100C20003F50007833490855641C202CF7D320240A
:100C300007E0A4F13F5000782F49214401F8200C2F
:100C4000641CBC42F5D314F0DBF86BE704E0094800
:100C500001782AA011F04CFB054800780DF5177DAE
:100C6000BDE8F08F303A2F4446493630300000005E
:100C7000E60D0020E70D00200D0A3E5553422048A6
:100C8000533A4578706C6F72653A204469726563B7
:100C9000746F7279207363616E6E6564203D2025E8
:100CA000730000002F0000002573257325730000DA
:100CB000444649000D3E5553422048533A4578700A
:100CC0006C6F72653A20666F756E642066696C653C
:100CD0006E616D65203D202532643A257300000069
:100CE000810200200A2066696C652073697A653A82
:100CF00025640000447C0020000049D00D0A3E55C8
:100D000053422048533A4578706C6F72653A2043DD
:100D1000616E6E6F74206F70656E20726F6F7420DD
:100D20006469726563746F7279202564202E0D00EA
:100D300001490860704700000C3C024070B5044651
:100D40000A460026092502B909E0012A01D1160246
:100D500005E0022A01D1160201E04FF4407600F0CE
:100D6000F5F80546092D28D11548006820F4407093
:100D70001349086008460068304308600846006868
:100D800020F0F80008600846006844F002010843BB
:100D90000B4908600846006840F48030086000F0A5
:100DA000D5F805460648006820F0020004490860AE
:100DB0000846006820F0F8000860284670BD000072
:100DC000103C024009201349096801F48031B1F553
:100DD000803F01D101201CE00E49096811F0100F7D
:100DE00001D0062015E00B49096811F4807F01D07D
:100DF00002200EE00749096811F0EF0F01D007202B
:100E000007E00449096811F0020F01D0082000E052
:100E1000092070470C3C024010B50446214884422A
:100E200004D202210020FFF789FF39E01E488442E6
:100E300004D202210820FFF781FF31E01B488442E1
:100E400004D202211020FFF779FF29E018488442DC
:100E500004D202211820FFF771FF21E015488442D7
:100E600004D202212020FFF769FF19E012488442D2
:100E700004D202212820FFF761FF11E00F488442CD
:100E800004D202213020FFF759FF09E00C488442C8
:100E900004D202213820FFF751FF01E0002010BDED
:100EA0000120FCE7004000080080000800C00008A6
:100EB0000000010800000208000004080000060805
:100EC000000008080348006840F00040014908603D
:100ED00070470000103C024030B502460C46092520
:100EE00000F034F80546092D19D10E48006820F4A9
:100EF00040700C4908600846006840F400700860C3
:100F00000846006840F001000860146000F01EF818
:100F100005460448006820F00100024908602846A0
:100F200030BD0000103C02400548006810F0004F42
:100F300005D0044802490C3908600348086070472E
:100F4000103C024023016745AB89EFCD08B509206D
:100F50000090FFF737FF009002E0FFF733FF0090AB
:100F60009DF800000128F8D09DF8000008BD0000A1
:100F700099B1102808D14FF02042126E42F00402BD
:100F80004FF020431A661CE00E4A126842F0040239
:100F90004FF02043C3F8802013E0102808D14FF011
:100FA0002042126E084B1A404FF020431A6608E0A8
:100FB000044A1268044B02EA03024FF02043C3F8CC
:100FC00080207047800000A0FBFF0F0010280AD18E
:100FD00018214FF020421166402151664FF0FC313C
:100FE0009166D16610E01821084A11604FF0400167
:100FF0004FF02042C2F884104FF0FC31044A1160D7
:101000004FF02042C2F88C1070470000800000A012
:10101000880000A030B5002100220023446844F07D
:10102000080485682C43C5682C4305692C43456931
:1010300044EA4524856944EA4531C4692468C569A0
:101040006D6844EA0524C5692D8944EA0544C569EB
:101050002D7B44EA0562046A2468056A6D6844EAE7
:101060000524056A2D8944EA0544056A2D7B44EA76
:1010700005630468102C05D14FF020442166A26658
:10108000E36607E0044C21604FF02044C4F8882058
:10109000024C236030BD0000800000A08C0000A046
:1010A00001464FF480708A88521C8A808A88402AC0
:1010B00011D100228A804A88521C4A804A88B2F59F
:1010C000806F08D100224A800A88521C0A800A8850
:1010D000012A00D1400070477FB54FF48070FFF7C0
:1010E00075FF00F0E9F803A800F0A0F99DF80F00E3
:1010F00000909DF80E309DF80D209DF80C1033A047
:1011000011F0F6F89DF80C0001280ED19DF80D00A5
:10111000F1280AD19DF80E0038B99DF80F001D285E
:1011200003D133A011F0E4F802E036A011F0E0F8AA
:101130000020ADF80400ADF80600ADF8080001236A
:101140003448DDE9011200F0DDF90020314981F871
:1011500021000846007846282BD1084640784D28C3
:1011600027D108468078562823D1084640792D2873
:101170001FD129A011F0BCF801232648DDE9011296
:1011800000F06AF9002410E0012000EB440021493E
:101190000D5C002000EB4400085C00EB052085B2EC
:1011A0001F4820F81450601C84B2B4F5806FEBDB4C
:1011B0000AE012F0C7FB282806DB12F0C3FB282840
:1011C00002DB18A011F094F87FBD00000D204E61E5
:1011D0006E64466C61736849443D253032582C2555
:1011E0003032582C253032582C253032580000002F
:1011F00020547970653D5333344D4C303147313094
:101200003054000020547970653D556E6B6E6F77D9
:101210000000000051DD0020205665722E2573006D
:10122000648400200D20546F6F206D756368206208
:10123000616420626C6F636B2121210003B5602023
:1012400010490870BDF80210BDF8000001EB8020C5
:10125000BDF8041001EB80100B490870BDF80210B6
:10126000BDF8000001EB8020BDF8041001EB8010F8
:10127000000A05490870D0200249087000F006F8FD
:101280000CBD0000000001800000028030B54FF06E
:101290008074402500F08EF9054603E000F08AF9DD
:1012A0000546641E402D01D0002CF7D10CB94FF437
:1012B0008065284630BD000000B58FB001211820A0
:1012C00000F0ECFD0121880300F038FE0121084602
:1012D00000F014FE0C220E21514800F089FA0C2275
:1012E0000F214F4800F084FA0C2200214C4800F0F6
:1012F0007FFA0C2201214A4800F07AFA0C220721D9
:10130000484800F075FA0C220821464800F070FAAF
:101310000C220921434800F06BFA0C220A214148B3
:1013200000F066FA4CF203000D9002208DF83800B0
:101330008DF8390000208DF83A0001208DF83B002F
:101340000DA9374800F00CFA4FF4F0600D900DA98C
:10135000344800F005FA0C220B21314800F048FA1D
:101360000C2211462E4800F043FA4FF4C0500D9065
:101370000DA92B4800F0F4F90C220421284800F0B4
:1013800037FA0C220521264800F032FA30200D9061
:101390000DA9234800F0E4F90C220721204800F0B1
:1013A00027FA4FF400700D900DA91F4800F0D8F9EE
:1013B0000C2206211A4800F01BFA40200D90002054
:1013C0008DF838008DF83A0002208DF839000120A0
:1013D0008DF83B000DA9124800F0C2F904200090DE
:1013E000032001900290052003904FF48070049038
:1013F00000200590069040200790C002089003202E
:1014000009900A90CDF82CD0CDF830D004A8FFF781
:1014100001FE01210802FFF7ABFD0FB000BD000087
:10142000000C0240001002400018024000219022EF
:10143000074B1A700022074B1A709A03116801704B
:101440000A0A42700A0C82700A0EC27070470000CD
:1014500000000180000002802DE9FF4706461D467E
:10146000002400274FF480784FF04009A24639E06D
:10147000002022490870224908700870BDF8061043
:10148000BDF8040001EB8020BDF8081001EB8010CE
:101490001B490870BDF80610BDF8040001EB802060
:1014A000BDF8081001EB8010000A154908703020C3
:1014B00012490870F80200F5006A002400E0641C7C
:1014C000B4F5805FFBD3002404E04FF000400078C7
:1014D0003055641C5445F8D37F1C6D1E01A8FFF7DE
:1014E000DFFD804615B1B8F5807FC1D0FFF7CEFE95
:1014F000814649EA080004B0BDE8F0870000018099
:10150000000002802DE9FF4706461D460027002403
:101510004FF480784FF04009A2463AE0002023497A
:1015200008702349087008200870BDF80610BDF83F
:10153000040001EB8020BDF8081001EB80101C496D
:101540000870BDF80610BDF8040001EB8020BDF85E
:10155000081001EB8010000A15490870302013496B
:101560000870B80100F1400A002400E0641CB4F5E2
:10157000805FFBD3002404E04FF00040007830553A
:10158000641C5445F8D37F1C6D1E01A8FFF788FD2D
:10159000804615B1B8F5807FC0D0FFF777FE814651
:1015A00049EA080004B0BDE8F087000000000180AF
:1015B00000000280002100207022084B1A70D20621
:1015C000117811F0010F01D0012006E001F0400276
:1015D000402A01D1402000E0002070470000018037
:1015E0002DE9FF4707461C460025A8464FF48079A1
:1015F0004026AA4642E0802026490870002026495D
:1016000008700870BDF80610BDF8040001EB8020DA
:10161000BDF8081001EB80101F490870BDF80610D6
:10162000BDF8040001EB8020BDF8081001EB80102C
:10163000000A194908704FEAC82000F5006A002521
:1016400004E0785D4FF0004108706D1C5545F8D3FB
:1016500010201049087000BF4021104800F0EBF83E
:101660000028F9D0FFF712FE0646402E06D108F1F9
:101670000108641E01A8FFF713FD814624B1B9F5E6
:10168000807F01D1402EB6D046EA090004B0BDE803
:10169000F08700000000018000000280000C024082
:1016A0002DE9FF4707461C460025A8464FF48079E0
:1016B0004026AA4643E0802026490870002026499B
:1016C000087008200870BDF80610BDF8040001EB92
:1016D0008020BDF8081001EB80101F490870BDF88C
:1016E0000610BDF8040001EB8020BDF8081001EBE6
:1016F0008010000A184908704FEA881000F1400A6B
:10170000002504E0785D4FF0004108706D1C5545E0
:10171000F8D310200F49087000BF40210F4800F097
:101720008AF80028F9D0FFF7B1FD0646402E06D111
:1017300008F10108641E01A8FFF7B2FC814624B13C
:10174000B9F5807F01D1402EB5D046EA090004B03A
:10175000BDE8F0870000018000000280000C02401C
:10176000F0B50A4600210023002400BF3DE001251A
:1017700005FA01F3156805EA03049C4234D10568B3
:101780004F000326BE40B543056015794E00B540B5
:101790000668354305601579012D02D01579022DB3
:1017A00016D185684F000326BE40B5438560557944
:1017B0004E00B540866835438560456801268E40F9
:1017C000B5434560456896798E40B6B2354345606D
:1017D000C5684F000326BE40B543C560D5794E00AD
:1017E000B540C6683543C560491C1029BFD3F0BD5C
:1017F000F0B5002300244D07ED0E02FA05F3CE10DC
:1018000000F1200555F826504E07F70E0F26BE4072
:10181000B543CF1000F1200646F82750CE1000F156
:10182000200555F8265045EA0304CE1000F12005A6
:1018300045F82640F0BD0246002013690B4201D056
:10184000012000E00020704741837047018370470A
:1018500001464869806880B2704708B50146D1F8F2
:10186000CC00006800900098C0F3414008BD0246DB
:1018700002F29F30405C7047024602F5557050F806
:101880002100704770B504460E4600250021C4F8BB
:10189000101300BF0BE0002104F5467040F825103E
:1018A0003C3040F825103C304155681CC5B20F2D26
:1018B000F1DB0821A4F8B6133146204604F026FFD8
:1018C000204604F019FB204604F0B8F90121204617
:1018D00004F086FF204604F04AFA204604F065FB37
:1018E000002070BD0146D1F8100370470146D1F8C1
:1018F0001403704710B50446204604F0E6FE0020AD
:1019000010BD70B504460D46002104F29F304155CC
:10191000113000EB451041612946204604F084FD5A
:1019200070BD00BFFEE700002DE9F0410546002034
:101930004749087047490870474908704749087087
:101940002878022802D02878202803D10120444991
:10195000087002E00020424908704FF0000802249D
:101960000CE0285D012805D0285D022802D0285D02
:10197000032801D14FF00108601CC4B2082CF0DB31
:10198000B8F1010F01D1BDE8F081002030490870A5
:101990003049087002242AE0285D30B3285D3149BF
:1019A0002B4A127888542A480078401C284908702D
:1019B000002607E0285D2C49895D884200D105E0BA
:1019C000701CC6B2244800788642F3DB00BF224870
:1019D0000078864209D1285D24491E4A127888542D
:1019E0001C480078401C1B490870601CC4B2082CBD
:1019F000D2DB18480078012817D11C480078174915
:101A0000087017480078012805D119480978405C0A
:101A100018490F5C05E0164810490978405C1649E2
:101A20000F5C384605F010FE02E000200B490870FC
:101A30000748007808490870002405E00948005D5F
:101A400009490855601CC4B2062CF7DB00BF9AE7B1
:101A5000940D0020950D0020960D0020930D002080
:101A6000800D0020810D00208D0D0020870D0020AD
:101A7000DCA0030846A20308C4A1030810B505F0C2
:101A8000DBFD10BD2DE9F74F82B00446E40032487B
:101A9000005D4B2806D0E10830A010F079FC05B0BD
:101AA000BDE8F08F2C49601C0D5CA01C085C00EBAD
:101AB0000525E01C085C00EB0525201D11F80090B1
:101AC000601D085C00EB09201FFA80F9A01D11F8C9
:101AD00000A0E01D085C00EB0A201FFA80FA5746C0
:101AE00036E004983844401E00EBC00101EB0011C1
:101AF000039800EB411000EB400001901C49019855
:101B000000EB010800261DE028466D1CA0F13E50A8
:101B100090F800B008F806B028466D1CA0F13E50C1
:101B200090F800B008EB060080F801B028466D1C64
:101B3000A0F13E5090F800B008EB060080F802B02B
:101B4000F01C86B209EB4900B042DDDC781E87B29A
:101B5000002FC6DC00BFA2E7647C00200D204E6F82
:101B600020424D502046696C6521203A20256400B2
:101B7000009411D010B5044620780549C8706078EB
:101B80000870A0784870084605F0B9FD10BD000047
:101B9000A00D002010B505F0B1FD10BD00BFFEE79F
:101BA0007047000070B5002100230F22C47824B3D1
:101BB000174C246804F4E064C4F5E064C4F307211E
:101BC000C1F10404E3B20A4144789C40E1B2847854
:101BD000144021430C07210E0E4C05786155047802
:101BE00004F01F050124AC4005786D114FF0E0268C
:101BF00006EB8505C5F8004109E0047804F01F04F0
:101C00000125A540044C0678761144F8265070BD95
:101C10000CED00E000E400E080E100E00249014357
:101C2000024A1160704700000000FA050CED00E068
:101C300010B5024803F0B8F910BD0000303B012098
:101C400010B5024803F0B0F910BD0000EC340120DB
:101C500010B50021084600F0C9F8002000F0F2F8A5
:101C60000021012000F0C2F8012000F0EBF8002173
:101C7000022000F0BBF8022000F0E4F8002103206D
:101C800000F0B4F8032000F0DDF80021042000F09B
:101C9000ADF8042000F0D6F80021052000F0A6F8E9
:101CA000052000F0CFF80021062000F09FF8062064
:101CB00000F0C8F80021072000F098F8072000F095
:101CC000C1F80021082000F091F8082000F0BAF8CF
:101CD0000021092000F08AF8092000F0BFF8002157
:101CE0000A2000F083F80A2000F0ACF800210B2055
:101CF00000F07CF80B2000F0A5F800210C2000F08B
:101D000075F80C2000F09EF800210D2000F06EF810
:101D10000D2000F097F800210E2000F067F80E204B
:101D200000F090F800210F2000F060F80F2000F084
:101D300089F80021102000F059F8102000F082F8F6
:101D40000021112000F052F8112000F087F8002146
:101D5000122000F04BF8122000F074F8002113203C
:101D600000F044F8132000F06DF80021142000F07A
:101D70003DF8142000F066F80021152000F036F838
:101D8000152000F05FF80021162000F02FF8162033
:101D900000F058F80021172000F028F8172000F074
:101DA00051F80021182000F021F8182000F04AF81E
:101DB0000021192000F01AF8192000F043F8002142
:101DC0001A2000F013F81A2000F03CF800211B2024
:101DD00000F00CF81B2000F035F800211C2000F06A
:101DE00005F81C2000F02EF810BD00007CB504465C
:101DF0000D46114951F82400012100F04FF80F4819
:101E000030F8140000901DB901208DF8040002E0A4
:101E100000208DF8040000208DF8060001208DF8C8
:101E2000070002208DF80500054951F82400694695
:101E3000FFF796FC7CBD000068A003082CA00308F7
:101E4000AC0C0020034931F81010034A52F820204E
:101E5000118370472CA00308AC0C0020034931F813
:101E60001010034A52F82020518370472CA0030819
:101E7000AC0C0020064951F820104969054A32F897
:101E800010205140024A52F8202051617047000052
:101E9000AC0C00202CA003087047000029B1064AB2
:101EA00012680243044B1A6004E0034A126882433A
:101EB000014B1A60704700003038024029B1064AD1
:101EC00012680243044B1A6004E0034A126882431A
:101ED000014B1A60704700005038024029B1064A91
:101EE00012680243044B1A6004E0034A12688243FA
:101EF000014B1A60704700003438024029B1064A8D
:101F000012680243044B1A6004E0034A12688243D9
:101F1000014B1A60704700003838024029B1064A68
:101F200012680243044B1A6004E0034A12688243B9
:101F3000014B1A60704700004038024029B1064A40
:101F400012680243044B1A6004E0034A1268824399
:101F5000014B1A607047000044380240F0B5002180
:101F600000220024022500260223324F3F6807F09A
:101F70000C0121B1042905D0082937D105E02E4FE5
:101F8000076036E02D4F076033E02A4F3F1F3F6860
:101F9000C7F38056274F3F1F3F6807F03F036EB1DE
:101FA000264FB7FBF3F7DFF88CC0ACF1040CDCF87C
:101FB00000C0CCF3881C07FB0CF40CE01E4FB7FBF1
:101FC000F3F7DFF870C0ACF1040CDCF800C0CCF320
:101FD000881C07FB0CF4174F3F1F3F68C7F30147EE
:101FE0007F1C7D00B4FBF5F7076002E0124F07602D
:101FF00000BF00BF0F4F3F6807F0F0010909104F05
:102000007A5C0768D74047600A4F3F6807F4E051A1
:10201000890A0B4F7A5C4768D7408760054F3F6855
:1020200007F46041490B064F7A5C4768D740C760A8
:10203000F0BD0000083802400024F40000127A00CD
:10204000210D0020F8B5054600270020009000264D
:102050002F490860012229462E480CF0F1FB2E4939
:1020600008700846007850B12A480CF0A8FB2A48AE
:102070000278294629A010F03BF9701EF8BD30E027
:102080006B464FF48042334922480CF0D6FC22497B
:102090000870009810B10846007800B126E000985A
:1020A00006440098B0F5804F05D3781C80B20746EF
:1020B000042800DB0027012003F0B2FD00240DE01E
:1020C0002448015D12480068A0F13F50017010489B
:1020D0000068401C0E490860601C84B2009884426D
:1020E000EED31D48FFF7FEFB0028C9D100BF094809
:1020F0000CF065FB002406E003F056FC012003F021
:102100008FFD601C84B2322CF6DB3046B6E700004F
:1021100078020020C8320120E70D00200D0A3E554C
:1021200053422048533A5265616446696C65467271
:102130006F6D5553423A202573206E6F7420657879
:102140006973742C2072657320636F64653D256428
:10215000200D000098EC0020EC3401207CB50446F2
:102160000D46364951F82410354A52F8242041EAE8
:1021700002000121FFF792FE0CB1052C06D1314976
:1021800051F824000121FFF7D9FE05E02D4951F84F
:1021900024000121FFF7C2FE2A4951F82400012141
:1021A000FFF7CCFE274951F824000121FFF7B6FEC6
:1021B000254B13F81420254B33F81410244B53F8F7
:1021C0002400FFF715FB234B13F81420224B33F8A0
:1021D0001410224B53F82400FFF70AFB00208DF85F
:1021E000060001208DF8070002208DF804001C482D
:1021F00030F81400009002208DF80500144951F8C1
:1022000024006946FFF7ACFA02208DF80400154857
:1022100030F814000090114951F824006946FFF786
:102220009FFA114951F82400294600F013FE0E4987
:1022300051F82400012100F04DFD7CBDA09F030852
:10224000BC9F0308849F030810A00308F49F0308A1
:10225000740C00201EA0030802A00308900C0020AC
:10226000D89F0308E69F0308580C00207047000021
:102270000CB50020019000904048006840F4803088
:102280003E49086000BF3D48006800F400300090FF
:102290000198401C0190009818B90198B0F5A04F22
:1022A000F1D13648006810F4003F02D001200090C0
:1022B00001E000200090009801285DD12F484030B7
:1022C000006840F080502D49403108602C4800687B
:1022D00040F440402A4908602848083000682749EF
:1022E000083108600846006840F40040086008466D
:1022F000006840F4A05008602248091F0860081FC9
:10230000006840F08070091F086000BF1B4800682B
:1023100010F0007FFAD01A48006840F48030184965
:10232000086000BF1648406810F4803FFAD0144897
:10233000006840F400301249086000BF104840684F
:1023400010F4003FFAD040F205700F4908600B48C6
:102350000830006820F0030008490831086008468A
:10236000006840F00200086000BF044808300068C0
:1023700000F00C000828F8D10CBD00000038024025
:102380000070004008484006003C024070470000D2
:1023900010B51548006840F47000134908601348F0
:1023A000006840F001001149086000200F49083121
:1023B00008600E4800680E4908400C4908600D4846
:1023C000091D0860081F006820F48020091F0860AC
:1023D000002006490C310860FFF74AFF0648024911
:1023E0008039086010BD000088ED00E00038024030
:1023F000FFFFF6FE103000240000020810B5012196
:10240000880700F009FA1520FFF728FDC148008869
:10241000401C80B2BF49088013280ADBBE48007800
:1024200010B912F00BFB01E012F0CCFB0020B9490F
:1024300008802021B94800F0FFFC58B1B74800F0EF
:1024400073FDC1B2B64802780078401CB44B1870D6
:10245000B44881542021B44800F0EEFC58B1B24891
:1024600000F062FDC1B2B14802780078401CAF4B69
:102470001870AF4881542021AE4800F0DDFC58B1FF
:10248000AC4800F051FDC1B2AB4802780078401C66
:10249000A94B1870A9488154A948007800287DD11B
:1024A000A8480088A849098888420AD0A648008818
:1024B000A649405C9C498880A3480088401CA249EA
:1024C0000880A3480078401CC0B2A1490870A14907
:1024D0000978884214DDA0480088A049098888420C
:1024E0000BD09E4800889E49405C9249091D088097
:1024F0009A480088401C9949088000209449087037
:102500009848007820BB98480088984909888842F4
:102510000AD0964800889649405C964908809348BE
:102520000088401C914908809348007893490978B5
:10253000884209D0914801780078401C8F4A107079
:102540008F48405C8F49088001208649087022E04E
:102550008D4800788D490978884209D08B480178E8
:102560000078401C894A10708948405C6B4988801B
:102570008848007888490978884209D086480178D7
:102580000078401C844A10708448405C844908806C
:102590000020744908700120694900E006E00870D5
:1025A00080480068401C7F490860AEE020217148E7
:1025B000001F00F041FC60B16E48001F00F0B4FC49
:1025C000C1B2794802780078401C774B1870774880
:1025D000815420216B48001F00F02EFC60B1694837
:1025E000001F00F0A1FCC1B2714802780078401CC5
:1025F0006F4B18706F48815420216948001F00F00C
:102600001BFC60B16648001F00F08EFCC1B26A4836
:1026100002780078401C684B1870684881546848FC
:10262000007830B101282ED002284CD0032861D187
:102630005DE064480078A0B9634800886349098870
:1026400088420AD0614800886149405C614908803D
:102650005E480088401C5D49088001205949087087
:1026600010E05D48007850B15B480078401E10F0E3
:10267000FF005949087002D11120FFF7EFFB00203D
:102680005049087036E001205449087054480088C9
:1026900000F51670524908800846008842F2107111
:1026A00088420FDB4E480088401A4D4908800120BF
:1026B0004C4908804C48008820B14C480088401C98
:1026C0004A49088016E020214248001F00F0B4FB70
:1026D00060B14048001F00F027FCC1B244480278B6
:1026E0000078401C424B18704248815402E005F0CB
:1026F000D1FC00BF00BF32480078401C00F003004E
:102700002F49087000200E4908701520FFF79AFB2A
:1027100010BD00007C0200202A00002000100140B3
:102720004002002044700020005000404A02002077
:1027300044750020004C00404802002044740020F2
:1027400029020020380200203A020020000055D063
:1027500077020020AB020020340200203602002065
:10276000000054D02A020020300200203202002053
:10277000000053D0044800404E0200204F020020C9
:10278000447700200414014042020020430200204C
:10279000447100205202002053020020447900209E
:1027A000047800407002002046020020447300209C
:1027B0004C02002044760020500200204478002083
:1027C000280200202B0200202C0200202E020020D4
:1027D000000052D004440040760200201600002081
:1027E00054020020560200201E010020200000207C
:1027F000440200204472002010B503F0F5F910BD2A
:1028000021B1028842F08002028004E002884FF683
:102810007F731A4002807047CA430282704721B119
:10282000028842F00102028004E002884FF6FE7343
:102830001A400280704708B54FF4A060FFF7EEF928
:102840001C208DF8000001208DF801008DF8020099
:102850008DF803006846FFF7A5F901210846FFF748
:102860005DFB08BD30B50246002000230024158A18
:1028700005EA0103958905EA010413B10CB10120B1
:1028800000E0002030BD1AB183890B43838102E050
:1028900083898B438381704770B500240022002315
:1028A000058C4FF6EF7635400584028C8388048BC7
:1028B00048F6FF752C404FF6FF452C400D884FF62B
:1028C000FF7606EA05252C434FF6DF752A408D89F1
:1028D00006EA05152A434D8806EA05152A43154DD3
:1028E000A84202D0144DA8421DD14FF67F752A4050
:1028F000CD894FF6FF7606EA05152A434FF6BF75D8
:102900002A408D8806EA05152A434FF6FF352B40ED
:102910004FF2FF752B400D8A06EA85052B434D8A41
:1029200006EA85052B43838004838D6885630284D2
:1029300070BD000000000140000401400A46002173
:10294000018B4FF2FF7319404FF6FF7303EA022326
:102950001943018370473EB5044600214FF0804083
:10296000FFF75DFF002201218807FFF78CFFC4EB12
:10297000041001900520ADF800000020ADF808001B
:10298000ADF8020069464FF0804000F013F80121D5
:102990008807FFF741FF01218807FFF731FF012278
:1029A00011469007FFF76FFF01218807FFF737FFF8
:1029B0003EBD000000220288184B98420ED0184BF2
:1029C00098420BD0B0F1804F08D0164B984205D0FA
:1029D000154B984202D0154B984204D14FF68F7395
:1029E0001A404B881A43124B984207D0114B984219
:1029F00004D04FF6FF431A400B891A4302804B68FC
:102A0000C3620B880385054B984202D0044B984261
:102A100001D18B7A03860123838270470000014035
:102A2000000401400004004000080040000C004089
:102A300000100040001400401CB501210820FFF7E1
:102A40002DFA02220D210A48FEF7D2FE4FF4005063
:102A5000009000208DF806008DF8070002208DF808
:102A600004008DF8050069460148FEF779FE1CBD9B
:102A7000000C02401CB501210820FFF70FFA0222CA
:102A80000D210A48FEF7B4FE4FF4005000900020DC
:102A90008DF806008DF807008DF8040002208DF8EF
:102AA000050069460148FEF75BFE1CBD000C0240B4
:102AB00000B585B07020ADF800000120ADF802002F
:102AC0000220ADF80C0042F6452002906946044809
:102AD000FFF7E2FE08210248FFF730FF05B000BD16
:102AE000000800400EB501210420FFF717FA00206E
:102AF000ADF80000ADF8020045F28A4001900020D8
:102B0000ADF808008DF80A0069460448FFF752FF47
:102B100001210248FFF783FE0EBD000000080040BF
:102B200010B504460548844202D00548844203D1CA
:102B30001021044800F050F810BD000000200140B2
:102B4000002101400000024010B5044605488442BF
:102B500002D00548844203D12021044800F03CF80B
:102B600010BD000000200140002101400000024093
:102B700010B504460548844202D00548844203D17A
:102B80004021044800F028F810BD0000002001405A
:102B9000002101400000024010B50446094884426B
:102BA00002D00948844204D18021084800F014F87A
:102BB00006E00748844203D14115064800F00CF8AE
:102BC00010BD000000200140002101400000024033
:102BD00000220140001402407CB505460C460094DA
:102BE00003208DF8040000208DF807006946284670
:102BF000FEF7B6FD7CBD70B506460D462C46042C8E
:102C000003D13046FFF78CFF10E0052C03D130468E
:102C1000FFF79AFF0AE0062C03D13046FFF7A8FF22
:102C200004E0072C02D13046FFF7B6FF304600F033
:102C300001F870BD10B58AB0044600208DF815006B
:102C400008900790069001208DF8240000208DF850
:102C500014001C48844208D11B48006840F480706E
:102C6000194908600020049016E01848844208D1F1
:102C70001548006840F40070134908600020049073
:102C80000AE01348844207D10F48006840F480608E
:102C90000D490860002004900020029000904FF43D
:102CA000803001904FF4407003906846FDF772FD4C
:102CB00004A92046FDF78AFDA06840F00100A0604D
:102CC0000AB010BD002001404438024000210140FC
:102CD0000022014021B1828942F40052828104E045
:102CE00082894DF6FF731A40828170471FB500201C
:102CF00035490870354908703549087035490870FC
:102D000035490880354908803549087035490870CB
:102D100035490880354908803549087035490870BB
:102D200035490880354908803549087035490870AB
:102D3000354908803549088035490870354908709B
:102D400035490870354908703549087035490870AB
:102D5000354908703549087035490870354908709B
:102D6000ADF80400ADF80600ADF80800ADF80C00B1
:102D70000C20ADF80A004FF4E130009069460420C1
:102D8000FFF7ECF969460320FFF7E8F94FF4164026
:102D9000009069460220FFF7E1F969460520FFF738
:102DA000DDF969460620FFF7D9F94FF4614000903C
:102DB00069460020FFF7D2F94FF41650009069469B
:102DC0000120FFF7CBF91FBD430200204202002083
:102DD0004102002040020020320200203002002088
:102DE00047020020460200203A020020380200205C
:102DF0004B0200204A0200202E0200202C0200205C
:102E00004502002044020020360200203402002047
:102E100049020020480200204F0200204E020020FC
:102E20004D0200204C0200205302002052020020DC
:102E3000510200205002002002460020B1F5007F20
:102E400000D100BF13880B4201D0012000E0002018
:102E5000704700002DE9FF4705460E460024A146B5
:102E600000BFA046B08900B100BF2C8A24F44054B2
:102E7000F08804432C82AC8941F20C608443B08812
:102E800031890843718908430443AC81AC8A24F436
:102E90004074B0890443AC826846FFF75FF820486D
:102EA000854202D01F48854202D1DDF80C9001E036
:102EB000DDF80890A88910F4004F08D009EBC9008C
:102EC00000EB091031684900B0FBF1F707E009EBAE
:102ED000C90000EB091031688900B0FBF1F76420EC
:102EE000B7FBF0F004012009642101FB1078A889E8
:102EF00010F4004F08D0322000EBC800B0FBF1F016
:102F000000F00700044308E0322000EB08106421C1
:102F1000B0FBF1F000F00F0004432C81BDE8FF8707
:102F2000001001400014014001468888C0F30800E9
:102F30007047000003480078042801D10120704741
:102F40000020FCE7E80D002070B505460E46284637
:102F500000F0BEF90446A4F57F40FF3805D046F4E2
:102F6000004105F5B26020F81410E0B270BD2DE903
:102F7000F04105460E4617461C46012105F56C70CA
:102F800000EB4410817005F56C7000EB4410C660D6
:102F900005F56C7000EB4410076105F56C7000EBF3
:102FA0004410007E30B9002105F56C7000EB441030
:102FB000017205E0022105F56C7000EB441001720E
:102FC00021462846FEF79DFC0020BDE8F0812DE952
:102FD000F04105460E4617461C46002105F56C706B
:102FE00000EB4410817005F56C7000EB4410C66076
:102FF00005F56C7000EB4410076105F56C7000EB93
:103000004410407E28B905F56C7000EB4410017245
:1030100005E0022105F56C7000EB441001722146B9
:103020002846FEF76EFC0020BDE8F0812DE9F04156
:1030300005460C4616461F46022121750121617581
:103040000021E1822683618306F08000802805D17B
:1030500005F56C7000EB4710017605E0002105F5E1
:103060006C7000EB4710417600231A462146284633
:1030700000F02BF8BDE8F08101460122C1F81023D1
:10308000002070472DE9F04105460E4617461C46C4
:10309000012105F56C7000EB44108170022105F5EB
:1030A0006C7000EB4410017205F56C7000EB44107D
:1030B000C66005F56C7000EB441007612146284698
:1030C000FEF71FFC0020BDE8F0812DE9F0418046AD
:1030D0000C4615461E460127E078012802D002283A
:1030E00020D108E032462946204602F06BFA022041
:1030F000E070012717E0207F0D2805D10120E07046
:103100000021217700270CE0207F0B2803D101202C
:10311000E070002705E0207F0C2802D10120E0703C
:10312000032700E000BF00BF3846BDE8F0812DE96D
:10313000F04105460F4616461C46002105F56C7009
:1031400000EB4410817005F56C7000EB4410C76013
:1031500005F56C7000EB441006612EB9012105F5F0
:103160006C7000EB4410417605F56C7000EB441078
:10317000407E30B9002105F56C7000EB44100172FF
:1031800005E0022105F56C7000EB44100172214648
:103190002846FEF7B6FB0020BDE8F08170B5054675
:1031A0000E461446002105F56C7000EB441081704A
:1031B000032105F56C7000EB4410017205F56C708D
:1031C00000EB4410C660082105F56C7000EB44105C
:1031D000016121462846FEF794FBC0B270BD02464D
:1031E000022106E0002302F5B26020F81130481CED
:1031F000C1B20829F6DB0020704770B505460C46C1
:10320000002020706070A0700120E0700121217703
:103210004021A171002084F82000012121200155C6
:103220002179284600F023F86179284600F01FF83C
:10323000002070BD01460022C1F810230020704715
:1032400070B504460D46052D01D0042D06D1D4F8E5
:103250009010486C80470C20207007E0062D05D1A7
:103260000C202070D4F890100868804770BD02468A
:10327000082909DA02F5B26030F81100C0F30E0334
:1032800002F5B26020F81130002070472DE9F047B8
:1032900080460C4616461D46DDE9089746F080013B
:1032A000217506216175E58205F47F40B0F5407F08
:1032B00003D140F20941218301E00021218367838A
:1032C0003B464A4621464046FFF7FFFEBDE8F087F1
:1032D0000246002100BF0AE002F5B26030F811009A
:1032E00010F4004F01D108467047481CC1B20829AC
:1032F000F2DB4FF6FF70F7E710B502460B88147843
:1033000023440B801378981810BD00002DE9FC476A
:1033100004460D4616464FF0000804F588704FF439
:10332000007300222946CDE900062046FFF7AEFFD4
:103330005FEA00091BD10AE004F5887010F8080064
:103340000C4901F8080008F101001FFA80F8B045A7
:10335000F2DB04F5887305F1500205F13E0105F139
:103360003400009601F0C2FE074607B1B946484650
:10337000BDE8FC8798EA00202DE9FC4104460D4693
:10338000164604F588704FF4807300222946CDE973
:1033900000062046FFF77AFF070006D1324604F503
:1033A000887105F1220001F03BFF3846BDE8FC8141
:1033B0002DE9FC4104460E46154604F588704FF48D
:1033C000045301223146CDE900052046FFF75EFF98
:1033D00007463846BDE8FC812DE9FC4104460E460F
:1033E000154604F588704FF4085301223146CDE9A3
:1033F00000052046FFF74AFF07463846BDE8FC8136
:103400002DE9FC470446884615461E460A9F04F5EA
:10341000887045F4407300224146CDE900072046FC
:10342000FFF734FF5FEA000905D13A46314604F55B
:10343000887001F059FF4846BDE8FC872DE9F0414E
:1034400004460D462F464FF001080126254890F806
:103450004500052841D2DFE800F0031404203400C1
:1034600000BF092239462046FFF7A2FF40B904F504
:1034700088711D4801F010FF01201A4981F84500AC
:103480002CE01948028939462046FFF7A5FF18B9F4
:103490000320144981F8450020E000231A463946EC
:1034A000204602F05FF8064626B904200D4981F84F
:1034B000450005E0032E03D104200A4981F84500A8
:1034C0000CE000223946204602F064F820B90020C2
:1034D000044981F84500804600E000BF00BF404637
:1034E000BDE8F08154E50020F0E500202DE9F04131
:1034F00005460C46264600273B4890F8420030B16E
:10350000032817D004280BD0052867D129E03649B5
:10351000096D086880470420334981F8420000BFE4
:10352000284603F088F8012803D103202E4981F8AA
:10353000420054E02C4890F8403090F84620014674
:10354000284600F037FD012028490870052026494B
:1035500081F842002846FEF77BF92349A1F84C0088
:103560003DE02846FEF774F91F49B1F84C10401AA7
:103570001D49B1F84A10884204D303201A4981F842
:1035800042002AE0184890F840102846FEF76FF9EC
:1035900001280CD11548007801281ED100201349BC
:1035A00008701148006D41680F48884715E00E48C3
:1035B00090F840102846FEF75AF904280DD10A4821
:1035C00090F8403090F8482031462846FFF72EFD0D
:1035D00018B90320044981F8420000E000BF00BF91
:1035E0003846BDE8F081000054E500205C0D002065
:1035F00070B504460D46164890F8400078B114485E
:1036000090F84010204602F0A6FD114890F84010B6
:103610002046FFF72CFE00200D4981F840000C48A1
:1036200090F8410078B10A4890F84110204602F025
:1036300092FD074890F841102046FFF718FE002041
:10364000034981F8410000200249087070BD000064
:1036500054E500205C0D00202DE9FC4707460E468E
:10366000344600254FF0010906206B4981F84200DD
:1036700094F8440001287DD194F84500012802D136
:103680006648086506E094F84500022802D16448BF
:10369000614908650020604981F8420081F84500D1
:1036A00094F8520081F84800B4F85400A1F846009C
:1036B00094F85600A1F84A000846B0F84A000A28D3
:1036C00002DA0A20A1F84A0094F84200032802DC3A
:1036D00094F8420000E003208046002552E004F107
:1036E000500000EBC500807810F0800F23D004F16B
:1036F000500000EBC5008078474981F8440004F190
:10370000500000EBC50081783846FFF71DFC4249A8
:1037100081F840000846B0F846000321CDE90010CA
:103720002120035D94F820203B4890F84010384653
:1037300001F08EFC24E004F1500000EBC50080781D
:10374000354981F8430004F1500000EBC500817851
:103750003846FFF7F9FB304981F841000846B0F8D8
:1037600046000321CDE900102120035D94F82020BC
:10377000294800E00DE090F84110384601F068FC5F
:10378000681CC5B24545AADB002026490870814661
:103790003EE094F84300092803D123A00EF0A8FDD1
:1037A00032E094F84300022803D125A00EF0A0FDDA
:1037B0002AE094F84300082803D130A00EF098FDC9
:1037C00022E094F84300072803D134A00EF090FDC6
:1037D0001AE094F843000B2803D139A00EF088FDBD
:1037E00012E094F843000E2803D13FA00EF080FDB4
:1037F0000AE094F84300102803D144A00EF078FDAD
:1038000002E04CA00EF074FDD4F89010086C8047D4
:103810004846BDE8FC87000054E50020780D0020F4
:10382000980D00205C0D0020487562206973206EA1
:103830006F7420737570706F727465642E0D000064
:10384000436F6D6D756E69636174696F6E7320612E
:103850006E642043444320436F6E74726F6C206427
:103860006576696365206973206E6F742073757067
:10387000706F727465642E0D000000004D5343207C
:10388000646576696365206973206E6F7420737553
:1038900070706F727465642E0D0000005072696E56
:1038A00074657220646576696365206973206E6F44
:1038B0007420737570706F727465642E0D00000053
:1038C000536D61727420436172642064657669632C
:1038D00065206973206E6F7420737570706F7274D9
:1038E00065642E0D00000000566964656F206465F4
:1038F0007669636520206973206E6F74207375701C
:10390000706F727465642E0D00000000417564696B
:103910006F2F566964656F2044657669636573200F
:103920006973206E6F7420737570706F7274656444
:103930002E0D0000546865206174746163686564CD
:1039400020646576696365206973206E6F742073E7
:103950007570706F727465642E200D002DE9F04152
:1039600006460C46174625466879032802D10248C8
:103970000EF0BEFCBDE8F081068A03087047704770
:1039800010B502480EF0B4FC10BD000021890308F8
:1039900010B503480EF0ACFC00200249087010BDC1
:1039A0003C890308E90D002010B502A00EF0A0FC30
:1039B00010BD00000D0A3E5553422046533A44655F
:1039C00076696365206E6F7420737570706F7274A2
:1039D00065642E0D0000000010B504461CB90A48AD
:1039E0000EF086FC0EE0012C03D108480EF080FC9E
:1039F00008E0022C03D106480EF07AFC02E00548EC
:103A00000EF076FC10BD00007C890308A289030833
:103A1000C8890308ED89030870B50446254629893D
:103A200003A00EF065FC698907A00EF061FC70BD73
:103A30000D0A3E5553422046533A564944203A20F7
:103A400025303458680A00000D0A3E55534220467E
:103A5000533A504944203A2025303458680A00002F
:103A600010B503480EF044FC01200249087010BD57
:103A70005B890308E90D00207047000010B59AB07B
:103A80000446224604A101A803F078FE01A80EF026
:103A90002FFC1AB010BD00000D0A3E5553422046BF
:103AA000533A4D616E756661637475726572203A42
:103AB0002025730A0000000010B502A00EF018FCCB
:103AC00010BD00000D0A3E5553422046533A4F7632
:103AD000657263757272656E742064657465637473
:103AE00065642E0D0000000010B59AB00446224611
:103AF00004A101A803F042FE01A80EF0F9FB1AB0E0
:103B000010BD00000D0A3E5553422046533A5072F4
:103B10006F64756374203A2025730A0070470000B3
:103B200010B59AB00446224604A101A803F026FE6F
:103B300001A80EF0DDFB1AB010BD00000D0A3E55C5
:103B400053422046533A53657269616C204E756D3D
:103B5000626572203A2025730A00000010B5024801
:103B60000EF0C6FB10BD0000708A030801207047EC
:103B70002DE9F04106460C464FF0000800250021D3
:103B8000A174207F0C2878D2DFE800F077060F3D83
:103B9000466778939CC2D9F0627904F114013046EB
:103BA000FFF7FCFA02212177F1E061793046FDF759
:103BB0005EFE0546012D1FD1207D00F08007608B41
:103BC00058B141F2883074490880802F02D1032116
:103BD00021770CE00521217709E032206E49088029
:103BE000802F02D10921217701E00721217730467A
:103BF000FDF72EFE208205E0032D03D10B21217756
:103C00000521A174C3E02379A2893046A168FFF79A
:103C100039FA04212177BAE021793046FDF727FEF1
:103C20000546012D01D109212177042D04D16078A9
:103C300020700C2121770FE0032D02D10B21217779
:103C40000AE03046FDF704FE218A401A52490988ED
:103C5000884201D90B21217799E00121627906F58B
:103C60006C7000EB421041766379A2893046A168FE
:103C7000FFF75DFA0621217789E087E06179304618
:103C8000FDF7F5FD0546012D02D1072121770FE053
:103C9000042D04D1607820700C21217708E0022DDA
:103CA00002D10521217703E0032D01D10B212177DA
:103CB0006DE02379002211463046FFF7E3F9082131
:103CC000217764E021793046FDF7D1FD0546012DCD
:103CD00004D1607820700D21217718E0032D02D1E6
:103CE0000B21217713E03046FDF7B2FD218A401AFF
:103CF00029490988884202D90B21217707E0042D40
:103D000005D1607820700C2121774FF003083EE048
:103D1000617906F56C7000EB4110407E80F0010186
:103D2000627906F56C7000EB4210417663790022EF
:103D300011463046FFF7FBF90A21217727E0617928
:103D40003046FDF794FD0546012D04D160782070C2
:103D50000D21217708E0022D02D10921217703E00E
:103D6000032D01D10B21217711E0FFE7A07B401C3F
:103D7000C1B2A173022902DC0121217705E00821EB
:103D8000A174607820704FF0020800E000BF00BF0F
:103D90004046BDE8F0810000580D002070B592B09B
:103DA00005460C460126A0780A287DD2DFE800F0FF
:103DB0000525345C697D9AB7D4DE08222146284661
:103DC000FFF7DAFAC0B994F82910A1710120A070A8
:103DD000A0790021CDE90010617900231A46284618
:103DE00001F0B0F8A0790021CDE90010217900237D
:103DF0001A46284601F0A6F8BBE0122221462846C2
:103E0000FFF7BAFA38B9D4F89000C16904F122007A
:103E100088470220A070ACE001222146284601F02C
:103E20007BFB00BB022001F0FBFE012004F1020439
:103E3000A077D4F88E10086A8047032020700020F5
:103E400000900190A27FA1780346284601F07AF8FD
:103E5000002000900190A27FA4F102046179034642
:103E6000284601F06FF884E0092221462846FFF732
:103E70004DFA28B9E08EB0F5806F01DC0420A07007
:103E800077E0E28E21462846FFF740FA58B9D4F889
:103E9000900004F1500204F13E01436A04F1340041
:103EA00098470520A07064E062E094F8300088B183
:103EB000FF20009094F8302002AB21462846FFF7FF
:103EC0009FFA70B9D4F89000816A02A8884706204A
:103ED000A07006E0D4F89000816A28A088470620E8
:103EE000A07046E094F8310088B1FF20009094F86B
:103EF000312002AB21462846FFF782FA70B9D4F888
:103F00009000C16A02A888470720A07006E0D4F894
:103F10009000C16A19A088470720A07029E094F892
:103F2000320088B1FF20009094F8322002AB214685
:103F30002846FFF765FA70B9D4F89000016B02A823
:103F400088470820A07006E0D4F89000016B0BA011
:103F500088470820A0700CE094F8392021462846B4
:103F600001F0EDFA08B90920A07002E0002600E097
:103F700000BF00BF304612B070BD00004E2F4100A0
:103F80002DE9F04106460F4614461D46DDF818801F
:103F900021463046FFF731F9C4F88C50C4F89080C0
:103FA00039463046FDF76EFCD4F89010086880471B
:103FB000BDE8F0812DE9F04105460E4617461C4646
:103FC000012105F56C7000EB4410817005F56C70F3
:103FD00000EB4410C66005F56C7000EB44100761FF
:103FE00005F56C7000EB4410007E30B9002105F53A
:103FF0006C7000EB4410017205E0022105F56C7055
:1040000000EB4410017205F56C7000EB4410007E6B
:1040100080F0010105F56C7000EB4410017621463B
:104020002846FDF76EFC0020BDE8F0812DE9F04147
:1040300005460E461446012714B1012C12D108E0A2
:1040400010480378C27831462846FEF7EFFF07464E
:1040500009E00C484378827831462846FEF7E6FFAF
:10406000074600E000BF00BF07480068401C064943
:10407000086008460068042800D904273846BDE8CF
:10408000F08100003CE60020B40D002010B502468F
:1040900000200023014C237010BD00002CE60020FE
:1040A0002DE9F04105460F46002601242846FDF77C
:1040B00019FC20B3154801782846FDF7DDFB0646BC
:1040C0000D2E01D002241CE01148006811498842DD
:1040D00016D10F48406810494968884211D10C48F0
:1040E000007B08B900240CE00948007B012801D1BD
:1040F000012406E00648007B022802D1022400E0E9
:1041000002240648C4732046BDE8F0813CE6002046
:104110001CE6002055534253FCE500202CE600200D
:10412000012812D10D490978491C0C4A1170114619
:1041300009780A2905DA0621094A11700121D1708E
:104140000AE00A21064A117006E0022803D10A217A
:10415000034A117000E000BF70470000BC0D002052
:104160002CE6002070B505460C46A1212175FE21E4
:1041700061750021E1822183012161830123034ACA
:1041800021462846FEF7A1FF70BD000044E600204E
:104190002DE9F04781460F463E46012503244FF0A6
:1041A00000084846FDF79EFB002878D05548007867
:1041B0000B2875D2DFE800F006A10D445566927910
:1041C0007E339000484600F0A9FA02204D4908705D
:1041D00094E039464846FFF7C5FF0546BDB94A4851
:1041E000007A494981F84800084690F848000028BC
:1041F0000ADD4648007838B9012044490870D6F8ED
:104200009010086C804779E003203E490870032D28
:1042100004D103203B494870092008706EE073798F
:10422000002239464846FEF701FF05463DB9002009
:10423000354981F8480033484078324908705DE0DC
:10424000484600F0B5FD04463CB904202D490870ED
:1042500000202F490870002502E02046FFF760FF8C
:104260004CE0484600F0C6FC04463CB90520254910
:104270000870002026490870002502E02046FFF75C
:104280004FFF3BE0484600F0CDFB04464CB9082008
:104290001C49087000201E490870002504E02EE02B
:1042A0002BE02046FFF73CFF28E03946484600F067
:1042B00031F823E0D6F89010C86B804700F0FF0873
:1042C000B8F1000F03D108200E49087003E0B8F1DF
:1042D000010F00D1062511E004250FE0484600F04B
:1042E000F7FC04462CB907484078064908700025B9
:1042F00002E02046FFF714FF00E000BF00BF2846A1
:10430000BDE8F0872CE600203CE60020D00D002020
:10431000BC0D00202DE9F047804689460024404628
:10432000FDF7E0FA00287DD0F248007909287AD21A
:10433000DFE800F079051568CEFDFCFBFA00EE48D9
:1043400043781F22ED494046FEF741FE0120E9492E
:104350004871022008710020E9490870C6E1E6486A
:1043600041784046FDF783FA0446012C26D100200F
:10437000E44908600220DF494871E048007B00F012
:104380008007DE488068A8B1DC488068DE490860A4
:10439000D8488068DD49086008460068DC49086044
:1043A000802F03D10320D34908712AE00420D1498A
:1043B000087126E00520CF49087122E0022C04D1C3
:1043C000CC484079CB4908711BE0042C06D1012070
:1043D000D04908700820C749087112E0032C10D199
:1043E000C7480078401CC649087008460078032872
:1043F00004DAC0484079BF49087102E00220BD4993
:10440000C87373E1BC4801784046FDF730FA0446B2
:10441000012C03D0B748407903283AD00020B9498D
:10442000086001E063E160E10320B2494871B248ED
:104430008088B5490968884216D2AF4803788288D7
:10444000B24801684046FEF792FDAB488088AE490D
:104450000968081AAC490860A7488088AB49096810
:104460000844AA49086032E0A748006818B9052046
:10447000A04908712BE0A0480378A348008882B2C5
:10448000A24801684046FEF772FD00209E49086080
:104490001DE0042C08D100209E4908700720954992
:1044A00008710520487112E0032C10D1944800785F
:1044B000401C9349087008460078032804DA8D48A8
:1044C00040798C49087102E002208A49C8730DE1E5
:1044D000894841784046FDF7CAF90446012C43D18A
:1044E0000020884908600420824948718248C088B9
:1044F00085490968884222D27F484378C288834828
:1045000001684046FEF763FD804800688049086006
:104510007948C0887D49096808447C490860764824
:10452000C0887949096803E0CDE0B2E07CE059E059
:10453000081A7549086000207149087051E07248F6
:10454000006818B905206B4908714AE06A48437849
:104550006D48008882B26D4801684046FEF737FD1D
:104560000020694908603CE0022C1CD167480068C3
:104570006749096888420DD05F484378C288C0887F
:10458000DFF888C1DCF800C0ACEB00014046FEF764
:104590001EFD26E058484378C2885C4801684046C2
:1045A000FEF715FD1DE0042C08D1012059490870C3
:1045B0000820504908710520487112E0032C10D1E1
:1045C0004F480078401C4E49087008460078032880
:1045D00004DA484840794749087102E00220454919
:1045E000C87383E00520434948714B4888603F20E9
:1045F00088810C2604E0002047498855701EC6B209
:10460000002EF8D10020444908703B48037839480F
:104610003F2281684046FEF7AAFC06203549087112
:1046200000203749087061E0334801784046FDF7C3
:104630001EF90446012C0FD10020324908600520E4
:104640002C49487108468078087049464046FFF773
:1046500027FD2849C8731BE0042C06D100202D49F2
:10466000087007202349087112E0032C10D1244858
:104670000078401C2249087008460078032804DAB4
:104680001C4840791B49087102E002201949C8738F
:104690002CE0002249464046FFF7C8FC054665B9B4
:1046A0001C480078022803D108201249087109E04B
:1046B000104840790F49087104E0042D02D102200E
:1046C0000C49C87312E0012249464046FFF7AEFC90
:1046D000054625B9074840790649087104E0042DCC
:1046E00002D102200349C87300E000BF00BFBDE84B
:1046F000F08700002CE600203CE60020FCE50020CE
:10470000B80D0020B40D0020A40D0020A80D00203D
:10471000AC0D0020B00D00201CE6002010B50446B2
:104720002046FDF7DFF848B1074808490860084807
:1047300048600020487301200649C87000200649DF
:1047400008600649087010BD55534243FCE500203F
:10475000504030202CE60020B40D0020BC0D00207D
:1047600070B504460D461048407860B10E48417857
:10477000204601F0F0FC0C4841782046FEF777FD1A
:104780000020094948700848007860B1064801785F
:10479000204601F0E0FC044801782046FEF767FD62
:1047A00000200149087070BD3CE600207CB506463B
:1047B0000D462C4694F84300082856D194F845003D
:1047C000502852D194F8520010F0800F07D094F87E
:1047D00052004649C870B4F85400888006E094F846
:1047E000520042498870B4F85400C88094F85A00C6
:1047F00010F0800F07D094F85A003C49C870B4F804
:104800005C00888006E094F85A0038498870B4F853
:104810005C00C880354881783046FEF795FB334907
:1048200048700846C1783046FEF78EFB2F49087065
:104830000846C0880221CDE900102120035D94F8CC
:1048400020202A484178304600F002FC2748808822
:104850000221CDE900102120035D94F82020234897
:104860000178304600F0F4FB3EE094F8430009285C
:1048700003D11FA00DF03CFD32E094F84300022864
:1048800003D121A00DF034FD2AE094F84300032861
:1048900003D12CA00DF02CFD22E094F84300072852
:1048A00003D130A00DF024FD1AE094F843000B284A
:1048B00003D135A00DF01CFD12E094F843000E2842
:1048C00003D13BA00DF014FD0AE094F8430010283A
:1048D00003D140A00DF00CFD02E048A00DF008FD52
:1048E000D4F89010086C804700207CBD3CE6002086
:1048F000487562206973206E6F7420737570706FD5
:10490000727465642E0D0000436F6D6D756E696382
:104910006174696F6E7320616E6420434443204369
:104920006F6E74726F6C206465766963652069735D
:10493000206E6F7420737570706F727465642E0DC5
:104940000000000048494420646576696365206979
:1049500073206E6F7420737570706F727465642E3F
:104960000D0000005072696E74657220646576698E
:104970006365206973206E6F7420737570706F7239
:104980007465642E0D000000536D617274204361E4
:10499000726420646576696365206973206E6F7444
:1049A00020737570706F727465642E0D00000000C6
:1049B000566964656F206465766963652020697354
:1049C000206E6F7420737570706F727465642E0D35
:1049D00000000000417564696F2F566964656F209F
:1049E00044657669636573206973206E6F74207304
:1049F0007570706F727465642E0D000054686520C8
:104A000061747461636865642064657669636520B8
:104A10006973206E6F7420737570706F7274656443
:104A20002E200D0070B5054603262846FCF75AFFD8
:104A3000002855D02B48C078012802D002284DD13B
:104A400027E03F2028498860802008730A20887367
:104A5000264824498860052088700F2405E000213D
:104A600021480F300155601EC4B2002CF7D11A2026
:104A70001D49C8733F211C484174C1740120194964
:104A80000871072008700320C8730220C87003262D
:104A900025E01448C07B80B91448807810F0800F5E
:104AA00003D001201249087302E000201049087366
:104AB00001200C49C87000260FE00A48C07B01287D
:104AC00003D10849C870012607E00648C07B0228C8
:104AD00003D101200349C870022600E000BF00BFD7
:104AE000304670BD2CE60020FCE5002098E6002052
:104AF00088E60020FFB581B007460E461D4603201C
:104B0000394908703846FCF7EDFE002867D0374871
:104B1000C078012802D002285FD139E0344885608E
:104B20008020334908730A208873304886600F2438
:104B300005E000212E480F300155601EC4B2002C44
:104B4000F7D128202A49C8739DF80F1028484174CE
:104B50009DF80E1081749DF80D10C1749DF80C1015
:104B60000175C5F34F2000909DF801102048817514
:104B70009DF80010C17501201C49087107200870BC
:104B80000320C8730220C87003201749087025E06D
:104B90001648C07B50B93846FCF7A4FE30B101205E
:104BA0001249C87000201049087015E00F48C07BFA
:104BB000012807D13846FCF795FE18B101200B49B2
:104BC000C87009E00948C07B022805D101200749C7
:104BD000C87002200449087000E000BF00BF02480E
:104BE000007805B0F0BD0000DB0D00202CE60020B1
:104BF000FCE5002070B5054603262846FCF772FE4A
:104C000000285AD02E48C078012802D0022852D15C
:104C100023E008202B498860802008730A208873CD
:104C2000294827498860042088700F2405E0002166
:104C300024480F300155601EC4B2002CF7D1252046
:104C40002049C87301201E490871072008700320FD
:104C5000C8730220C87003262EE01948C07BC8B96B
:104C6000194800781949C870174840788870164864
:104C7000807848701448C0780870134881791348C8
:104C800041721148C0791149087201200C49C8705D
:104C900000260FE00A48C07B012803D10849C870EC
:104CA000012607E00648C07B022803D10120044901
:104CB000C870022600E000BF00BF304670BD000093
:104CC0002CE60020FCE5002098E6002088E6002085
:104CD00070B5054603262846FCF704FE00285DD083
:104CE0002F48C078012802D0022855D12BE03F2060
:104CF0002C498860802008730A2088732A48284934
:104D00008860084680784870062088700F2405E087
:104D1000002124480F300155601EC4B2002CF7D189
:104D200003202049C87300211E4801743F21C1742B
:104D300001201B490871072008700320C873022056
:104D4000C870032629E01648C07BA0B91648017830
:104D50001648C1711448417814488171124881780D
:104D6000124841711048C0781049087101200C495F
:104D7000C87000260FE00A48C07B012803D108490B
:104D8000C870012607E00648C07B022803D1012035
:104D90000349C870022600E000BF00BF304670BD66
:104DA0002CE60020FCE5002098E6002088E60020A4
:104DB00070B5054603262846FCF794FD002846D02A
:104DC0002448C078012802D002283ED124E00020E7
:104DD0002149886008730620887320481D4988602F
:104DE0003F208881032088700F2405E000211A48A5
:104DF0000F300155601EC4B2002CF7D100201649B7
:104E0000C873012013490871072008700320C87374
:104E10000220C870032619E00E48C07B20B901208B
:104E20000C49C87000260FE00A48C07B012803D156
:104E30000849C870012607E00648C07B022803D154
:104E400001200449C870022600E000BF00BF3046C0
:104E500070BD00002CE60020FCE500201CE60020D0
:104E60002DE9FF4182B007460E461D464FF003086C
:104E70003846FCF737FD00285BD03048C078012861
:104E800002D0022853D138E02D48856000202C49FB
:104E900008730A208873294886600F2405E00021E2
:104EA00027480F300155601EC4B2002CF7D12A20CC
:104EB0002349C8739DF81310214841749DF81210BE
:104EC00081749DF81110C1749DF810100175C5F31F
:104ED0004F2001909DF80510194881759DF8041028
:104EE000C175012015490871072008700320C87397
:104EF0000220C8704FF003081AE01048C07B28B9A0
:104F000001200E49C8704FF000080FE00B48C07B2D
:104F1000012802D10949C87008E00848C07B02286E
:104F200004D101200549C8704FF0020800E000BF1D
:104F300000BF404606B0BDE8F08100002CE600202E
:104F4000FCE500202DE9F04704460D4617461E46B5
:104F5000DDE9089827B104F56C7000EB4510077087
:104F600004F56C7000EB4510C088404508D0B8F1DE
:104F7000000F05D004F56C7000EB4510A0F806801A
:104F800004F56C7000EB4510C078B04205D026B136
:104F900004F56C7000EB4510C6702946204601F000
:104FA00027F90020BDE8F08738B505460024002029
:104FB0000090284601F047FB002847D0284601F022
:104FC0004CFB0090009808B9002038BD0098C0F351
:104FD000C00018B1284602F0F9FA04430098C0F363
:104FE000001018B1284602F03EFA04430098C0F3BE
:104FF000401018B1284602F069F804430098C0F345
:10500000806018B1284602F097F904430098C0F375
:10501000406018B1284601F044FC04430098C0F3F6
:10502000006018B1284602F0E9F804430098C0F384
:10503000407018B1284601F0FBFB04430098C0F310
:10504000405018B1284601F009FC04432046BCE753
:105050002DE9F04704460D4617461E46DDE908894E
:1050600004F5B26010F8150000F07F0104F56C70D3
:1050700000EB4510417004F5B26010F81500C0F364
:10508000C01104F56C7000EB4510817004F56C7074
:1050900000EB4510077004F56C7000EB451080F8CC
:1050A000058004F56C7000EB4510A0F8069004F53F
:1050B0006C7000EB4510C670002104F56C7000EBBD
:1050C0004510017604F56C7000EB451041762EB961
:1050D000012104F56C7000EB451001712946204652
:1050E00001F086F80020BDE8F08700002DE9F04FC0
:1050F00087B006468A4693461D462C460027B8468A
:1051000000BF2878307068787070A978E87801EB73
:10511000002070802879307168797071A879B07139
:10512000E879F071287A30721098092872DD092028
:1051300001903079022864DC002006905BE001A930
:105140002046FEF7D9F804466078042853D1A078A9
:1051500047B207EBC70050440690E07803284ADACC
:10516000214603A800F0ADF84FF000089DF81000AC
:1051700003283ADC34E001A92046FEF7BDF80446D6
:10518000607805282CD107EB47000BEBC00000EB43
:10519000C800029020480078B84206D01E490F701F
:1051A00003A9069800F08DF80CE02179607901EBF5
:1051B00000201A490988884200DA15E003A90698F8
:1051C00000F07FF82146029800F056F821796079C6
:1051D00001EB00201149088008F101004FFA80F826
:1051E0009DF810004045C6DC05E04FF00309484635
:1051F00007B0BDE8F08F7088BDF8041088429EDCCF
:1052000003E04FF003094846F2E700200349088015
:10521000014908700020EBE7DE0D0020DC0D0020C6
:1052200010B50B7803704B7843708C78CB7804EB17
:10523000032343800B7903714B7943718B7983711D
:10524000CB79C371082A16DD0C7A4B7A04EB032361
:1052500003818C7ACB7A04EB032343810C7B4B7B59
:1052600004EB032383818B7B8373CB7BC3730B7C26
:1052700003744B7C437410BD0A7802704A78427004
:105280008A788270CA78C2700B794A7903EB02225D
:1052900082808A79827170470A7802704A784270F7
:1052A0008B78CA7803EB022242800A7902714A792C
:1052B00042718A798271CB790A7A03EB02220281E8
:1052C00070470A7802704A7842708A788270CA7889
:1052D000C2700A7902714A7942718A798271CA79F7
:1052E000C2710A7A0272704730B513464578032DB1
:1052F00014D10578AD1E9D4202DC0578AD1E00E09C
:105300001D46ACB2801C002204E0855C0D70491C77
:10531000951CAAB2A242F8DB00250D7030BD0146F3
:105320000022C1F814230020704701460122C1F871
:105330001423002070473EB505460C46022002901B
:105340002846FCF7CFFA18B12846FCF7CFFA30B957
:10535000207820B12078032801D003202070207805
:105360000D287CD2DFE800F0071822B1D25F7C8FD5
:105370009C6BD2D2A1002846FCF7B4FA58B10120A8
:105380002070642000F04CFC2846FCF7B3FAD4F8F7
:105390009010C8688047BAE0D5F81403012804D1FA
:1053A00002202070322000F03BFCB0E0D4F89010D6
:1053B0008868804700212846FDF7C6FD607180217E
:1053C0002846FDF7C1FD20712846FCF793FA48BB3B
:1053D000D4F89010C86880472846FCF73EFAC1B25E
:1053E00021200155052020702122105DD4F8902045
:1053F00091698847A0790021CDE900102120035D43
:1054000094F8202021792846FFF722FEA079002178
:10541000CDE900102120035D94F820206179284611
:10542000FFF716FE73E021462846FEF7B7FC28B9C1
:10543000D4F89010486B80470920207067E0D4F8BA
:105440009010886B8047012808D1D4F88C00214641
:1054500002682846904708B90620207057E055E0BA
:10546000D4F88C00214682682846904702909DF827
:10547000080010B90720207004E09DF808102046AD
:10548000FDF7DEFE43E0D4F88C002146C2682846D2
:10549000904702909DF808102046FDF7D1FE36E0B7
:1054A00021462846FEF764FB31E021462846FDF7F9
:1054B000A4FED4F8901048688047D4F88C0004F11A
:1054C000200142682846904721E0D4F890100869EE
:1054D000804721462846FDF790FED4F89010486892
:1054E0008047D4F88C0004F1200142682846904798
:1054F0002846FDF774FE00202070E97A2846FCF764
:10550000C1F90121284600F008FD00E000BF00BFFE
:105510003EBD01460020704770B506460C46154654
:105520000021217505216175E582002121836183B8
:1055300000231A4621463046FDF7C7FD70BD70B501
:1055400006460C4615460021217509216175E58244
:1055500000212183618300231A4621463046FDF74E
:10556000B4FD70BD2DE9F04107460C4615461E46B8
:10557000212121750A21617546EA0521E182002178
:105580002183618300231A4621463846FDF79DFD9D
:10559000BDE8F08170B506460C46154621212175FF
:1055A0000B21617515B10021E18201E00121E18249
:1055B00000212183618300231A4621463046FDF7EE
:1055C00084FD70BD10B50346187858700820187017
:1055D00099609A8101241C77002010BD2DE9F041CB
:1055E00006460C46174625466879082802D1024827
:1055F0000CF07EFEBDE8F0817A8B030800200149A3
:1056000008707047E80D00207047000010B5024890
:105610000CF06EFE10BD0000938A030810B5002048
:105620000449087004480CF063FE00200349087028
:1056300010BD0000E80D0020AF8A0308EA0D00202D
:1056400010B502A00CF054FE10BD00000D0A3E552E
:1056500053422048533A20446576696365206E6F53
:105660007420737570706F72746564203A204C55A5
:105670004E203E506F7274323A30200010B504460E
:105680001CB90A480CF034FE0EE0012C03D1084886
:105690000CF02EFE08E0022C03D106480CF028FE88
:1056A00002E005480CF024FE10BD0000F08A03085B
:1056B000168B03083C8B0308618B030870B5044606
:1056C0002546298903A00CF013FE698905A00CF07A
:1056D0000FFE70BD0D0A564944203A20253034583B
:1056E000680A00000D0A504944203A2025303458F9
:1056F000680A000010B503480CF0FAFD01200249C9
:10570000087010BDCE8A0308EA0D00200020014970
:1057100008707047E80D002010B50F48007810B1F0
:10572000042814D112E000220CA10D4809F058F809
:1057300028B10CA00CF0DCFD4FF0FF3010BD14A020
:105740000CF0D6FD04200449087001E000E000BF21
:1057500000BF0020F2E70000E80D0020000000007C
:10576000983001200D0A3E5553422048533A436178
:105770006E6E6F7420696E697469616C697A6520F8
:1057800046696C652053797374656D2E0D000000B9
:105790000D0A3E5553422048533A46696C652053E2
:1057A000797374656D20696E697469616C697A6575
:1057B000642E0D0010B50446214602A00CF098FDA1
:1057C00010BD00000D0A3E5553422048533A4D612A
:1057D0006E756661637475726572203A2025730A6E
:1057E0000000000010B502A00CF082FD10BD00000A
:1057F0000D0A3E5553422048533A4F766572637501
:105800007272656E742064657465637465642E00DD
:1058100010B50446214602A00CF06AFD10BD000040
:105820000D0A3E5553422048533A50726F647563D7
:1058300074203A2025730A0000200149087070473F
:10584000E80D002010B50446214602A00CF050FDE2
:1058500010BD00000D0A3E5553422048533A53658F
:105860007269616C204E756D626572203A202573F5
:105870000A00000010B502480CF03AFD10BD00000F
:105880003E8C03080120704708B50FA00CF030FDD6
:10589000002000F031F91348134B144A0121009005
:1058A0001348FEF76DFB124800F0FAF84FF4FA7057
:1058B00000F0B6F900200F4908710F4908600FA0E9
:1058C0000CF016FD08BD00000D20757362204653D4
:1058D00020696E6974205374617274202D2D2D2DF2
:1058E0002D2D2D0048000020600D0020E0400120FB
:1058F000303B0120ED0D00207802002020757362FE
:1059000020667320696E69742066696E6973680029
:1059100010B50648FBF7E6FF30B105490348FFF72D
:105920000AFD00200349088010BD0000303B012023
:10593000E04001201400002008B50AA00CF0D8FCBB
:105940000F48104B104A002100901048FEF718FB3A
:105950000E4800F0A5F80EA00CF0CAFC0120114979
:10596000088008BD0D2075736220687320696E6918
:1059700074205374617274202D2D2D2D2D2D2D002A
:10598000D0000020C00D00209C3A0120EC34012002
:105990002075736220687320696E69742066696E71
:1059A000697368001A01002010B50448FBF79AFFDC
:1059B00018B103490148FFF7BEFC10BDEC340120CB
:1059C0009C3A01201CB50446E07A01281ED1012131
:1059D0000846FCF763FA4FF48060009003208DF8CE
:1059E000050001208DF8040000208DF806008DF8D8
:1059F000070069461648FBF7B3FE4FF48061144870
:105A0000FBF724FFC82000F00BF900BFE07AF0B9E3
:105A100001210220FCF742FA4FF48050009003204D
:105A20008DF8050001208DF8040000208DF8060097
:105A30008DF8070069460748FBF792FE4FF4805146
:105A40000448FBF703FFC82000F0EAF800BF1CBDC4
:105A5000000002400004024070B505460C46E87A9A
:105A600001280AD124B981020B48FBF7EFFE04E0BC
:105A70004FF480610848FBF7E7FEE87A58B92CB983
:105A80004FF480510548FBF7E1FE04E04FF48051EC
:105A90000248FBF7D9FE70BD00000240000402403E
:105AA00038B504464FF4C060FCF7B8F8E07A012836
:105AB0000FD143208DF8000001208DF80100042053
:105AC0008DF8020001208DF803006846FCF76AF8A3
:105AD00010E0E07A70B94D208DF8000001208DF8BB
