:020000040802F0
:1000000060E802209D010208112002088F1B0208EF
:100010000D200208510A0208559402080000000051
:100020000000000000000000000000008D27020812
:10003000B10B02080000000009230208B13F0208CA
:10004000B7010208B7010208B7010208B7010208A8
:10005000B7010208B7010208B7010208B701020898
:10006000B7010208B7010208B7010208B701020888
:10007000B7010208B7010208B7010208B701020878
:10008000B7010208B7010208B7010208B701020868
:10009000B7010208B7010208B7010208B701020858
:1000A000B7010208B7010208B7010208B701020848
:1000B00021400208B7010208B7010208B70102088F
:1000C000B7010208B7010208B7010208B701020828
:1000D000B7010208B7010208B7010208B701020818
:1000E000B7010208B7010208B7010208B701020808
:1000F000B7010208B7010208B7010208B7010208F8
:10010000B7010208B701020881440208B7010208DA
:10011000B7010208B7010208B7010208B7010208D7
:10012000B7010208B7010208B7010208B7010208C7
:10013000B7010208B7010208B7010208B7010208B7
:10014000B7010208B7010208B7010208A12002089E
:10015000B7010208B7010208B7010208B701020897
:10016000B7010208B7010208B7010208B701020887
:10017000B7010208B1200208B7010208B70102085E
:10018000B7010208B7010208DFF80CD000F0E4FA6A
:10019000004800470D62030860E8022006488047D7
:1001A00006480047FEE7FEE7FEE7FEE7FEE7FEE75C
:1001B000FEE7FEE7FEE7FEE7B53F02088901020819
:1001C0002DE9F05F0546002092469B46884606468C
:1001D000814640241BE0284641464746224600F01F
:1001E0002DF953465A46C01A914110D3114618466C
:1001F000224600F014F92D1A67EB01084F462246FB
:100200000120002100F00BF917EB00094E41201EE0
:10021000A4F10104DFDC484631462A464346BDE8E6
:10022000F09F30B505462A460B4612F8010B13F82D
:10023000014B08B1A042F8D01CB1002802D06D1CBF
:10024000F1E7284630BD034611F8012B00F8012BD9
:10025000002AF9D1184670472DE9FE4F804681EA01
:100260000300C00F0C46009021F0004123F0004530
:10027000B8EB0200A94105D24046214690461C46F3
:100280000B46024623F00040104304D1404621466D
:1002900003B0BDE8F08F270DC7F30A00C3F30A517E
:1002A0000290401A0190402866DAC3F3130040F42C
:1002B000801B0098924620B10023D2EB030A63EB27
:1002C0000B0B01985946C0F14002504600F0A7F8C8
:1002D00006460D4650465946019A00F0BFF810EB0D
:1002E00008006141002487EA115284EAE7731A4347
:1002F0003BD0009A3AB3019A012A4FEA075210DC28
:10030000001B61EB02014FF0004202EA0752CDE907
:100310000042001C41F5801132462B4600F0BDF82A
:10032000B6E7001B61EB0201001C41F580130018C9
:100330005B412018A2F5001747EB030140EAD57096
:10034000B6196D4111E06D084FEA360645EAC075F1
:100350004FEA0752001B61EB0201001C41F58011BE
:1003600049084FEA30000019514132462B4603B08C
:10037000BDE8F04F00F084B800980122400000234F
:10038000D0EB020263EBE073009821464FEAE07481
:10039000B8EB000061EB0401E9E783F000435BE7A1
:1003A00081F0004158E70EB540F23341029100213F
:1003B000CDE900110A460B4600F06FF803B000BD0E
:1003C000C1F30A5210B5C1F3130140F2FF3341F4F7
:1003D00080119A4201DA002010BD40F233439A4264
:1003E000A2F2334203DC524200F028F810BD9040E4
:1003F00010BD30B50B46014600202022012409E043
:1004000021FA02F59D4205D303FA02F5491B04FACD
:1004100002F52844151EA2F10102F1DC30BD202AAC
:1004200004DB203A00FA02F1002070479140C2F14B
:10043000200320FA03F3194390407047202A04DB7D
:10044000203A21FA02F00021704721FA02F3D0404D
:10045000C2F120029140084319467047202A06DB6A
:10046000CB17203A41FA02F043EAE07306E041FA82
:1004700002F3D040C2F12002914008431946704770
:1004800010B5002B08DA401C41F1000192185B41C5
:100490001A4301D120F0010010BD2DE9F04D924624
:1004A0009B4611B1B1FA81F202E0B0FA80F220323B
:1004B0009046FFF7B4FF04460F4640EA0A0041EABF
:1004C0000B0153465A46084303D120463946BDE83E
:1004D000F08D114653EA010015D0C8F14002504694
:1004E000FFF7ACFF05460E46504659464246FFF719
:1004F00096FF084301D0012000E00020054346EAB2
:10050000E0762C4337430A984FEA4453A0EB0800A7
:100510004FEAD4240A304FF0000244EA47544FEA2D
:10052000D72502D500200146D1E701051019694100
:10053000DDE9084500196941BDE8F04DA0E72DE966
:10054000FE4F81EA030404F0004421F000410094CE
:100550004FF0000B23F0004350EA010402D052EAAE
:10056000030404D10020014603B0BDE8F08FC3F3BB
:100570000A54C1F30A552C44A4F2F3340194A0FBAD
:100580000254C1F3130141F48011C3F3130343F484
:10059000801301FB024400FB034E840A970A44EADD
:1005A000815447EA8357A4FB076802958D0A05FB2F
:1005B00007854FEA932C04FB0C542705029D4FEA54
:1005C000065847EA1637B5EB08056EEB070C870EA1
:1005D000920E47EA811742EA8312A7FB0201B6EBAB
:1005E0000B0164EB00042B0D43EA0C335E1844EB63
:1005F0001C50DA465146E7FB0201C5F313044FEAEB
:100600000B3343EA14534FEA0432019C43EA0603D6
:10061000A4F10C040294009CCDE900B4FFF73DFF67
:10062000A2E72DE9F04D81EA030404F0004B21F02C
:10063000004514464FF0000A23F0004150EA05023D
:1006400020D054EA01021DD0C5F30A570246C5F373
:100650001303C1F31300C1F30A5640F4801543F4A9
:100660008013A7EB0608101BD64608F2FD3873EB83
:10067000050002D308F1010801E092185B41B8F1CE
:10068000000F03DA00200146BDE8F08D00204FF492
:100690008011064684460EE0171B73EB050705D351
:1006A000121B63EB050306434CEA010C49084FEAB1
:1006B000300092185B4150EA0107EDD152EA030085
:1006C00012D082EA040083EA0501084303D1002224
:1006D0004FF0004308E0101BAB4102D2012200237F
:1006E00002E06FF0010253101AEB06004CEB0851C8
:1006F00010EB0A0041EB0B01BDE8F04DFFF7C0BE67
:10070000C1F30A52C1F3130140F2FF3341F48011E7
:100710009A4202DA00200146704740F233439A427F
:10072000A2F2334202DC5242FFF788BEFFF777BEE7
:1007300030B5002904DB4FF00044404264EB010176
:10074000002B04DB4FF00044524264EB0303994258
:1007500008BF904230BD0000064C074D06E0E0683F
:1007600040F0010394E8070098471034AC42F6D3F8
:10077000FFF70EFD00CB040820CB040870B58D18E0
:1007800010F8014B14F0030201D110F8012B2311D2
:1007900006D110F8013B03E010F8016B01F8016B82
:1007A000521EF9D1B3B110F8012B04F00C048A1ACF
:1007B0000C2C04D0A2EB841203F1020308E010F821
:1007C000014BA2EB0422F7E712F8014B01F8014BB1
:1007D0005B1EF9D5A942D3D3002070BD00210A4A7F
:1007E00011680A4A01EA0201D0E9002342EA030241
:1007F000836842EA0302C36842EA030242EA010153
:10080000034AC2F80413704704230140E030FCFFA0
:100810000020014030B50246002000235068104CF3
:1008200020400D790C6844EA05242043506090680C
:100830000C4C2040D1E903542C438D682C434D7956
:1008400044EA450420439060D06A20F470000C7D97
:10085000641EE4B2234340EA0350D06230BD00007E
:10086000FFFEFFFCFDF7FFC0F0B504460D4600207B
:100870000021092D11DDE068A5F10A0606EB460707
:10088000072606FA07F18843A5F10A0606EB460695
:1008900003FA06F10843E0600CE0206905EB450728
:1008A000072606FA07F1884305EB450603FA06F129
:1008B00008432061072A0FDA606B561E06EB860795
:1008C0001F2606FA07F18843561E06EB860605FA30
:1008D00006F10843606322E00D2A0FDA206BD61F71
:1008E00006EB86071F2606FA07F18843D61F06EB9C
:1008F000860605FA06F10843206310E0E06AA2F1DB
:100900000D0606EB86071F2606FA07F18843A2F1BB
:100910000D0606EB860605FA06F10843E062F0BD17
:1009200010B520490978491E1F4A515C814237D0D1
:100930001E490988A1F54072013A19D01B4909885E
:10094000A1F54072023A13D018490988A1F58062D6
:10095000013A0DD015490988A1F58062023A07D005
:1009600012490A8812490F4B1B7821F8132009E01D
:100970000C490978491E0E4A32F81110094B1B78B0
:1009800022F8131007490B780978491C054C21708F
:100990000549C8540749097811B90121054A117060
:1009A00010BD000088070020170302203802002035
:1009B0005E0402208907002070B505460C460748F2
:1009C0000560204600F00EF800BF044800680028CB
:1009D000FBD10021024803F066FD70BDA01300208A
:1009E000000C00403EB504460021184803F05BFDB2
:1009F00000220121154803F08AFD022C02D10B20B0
:100A0000019004E0012C02D142F6DF600190052044
:100A1000ADF800000020ADF80800ADF8020069460E
:100A20000A4803F00BFE0121084803F039FD0121BB
:100A3000064803F029FD01221146044803F067FD32
:100A40000121024803F02FFD3EBD0000000C0040D4
:100A500000BFFEE71CB50121D12001F057FC0420A6
:100A6000009000208DF804008DF8060001208DF81C
:100A7000070002208DF8050069461A4800F0A6FF1D
:100A8000082000906946174800F0A0FF1020009051
:100A90006946144800F09AFF2020009069461148EA
:100AA00000F094FF4FF40050009069460E4800F0AB
:100AB0008DFF0120009069460C4800F087FF02205E
:100AC00000906946094800F081FF042000906946C3
:100AD000074800F07BFF082000906946044800F0BA
:100AE00075FF1CBD001002400018024000000240CB
:100AF000001C024070B500265A201F4908700025CE
:100B00002BE000241D48006910F0200F01D144F0B3
:100B100001041A48006910F0100F01D144F00204DA
:100B20001648006910F0080F01D144F0040413487E
:100B3000006910F0040F01D144F008040E48007859
:100B4000844205D1701CC0B20646022803DB06E0D1
:100B5000094804700026681CC5B2142DD1DB00BF03
:100B60000548017806A017F0F9FF142D02DB08A054
:100B700017F0F4FF70BD00008C130020001002403D
:100B80000D20444950205357203D20253278000045
:100B900009202A2A2A20444950205357207265618F
:100BA00064204572726F72212121202A2A2A0000B6
:100BB0007047000100E0401E0028FCD17047000093
:100BC0002DE9F04FADF5177D06460FF27419002799
:100BD000412E03D146264FF0500801E04FF6FF7832
:100BE00000205A49087049460AA813F018FB5849D2
:100BF00008700846007800287BD1494655A017F0B8
:100C0000ADFF00BF91A90AA813F040FC504908703D
:100C10000846007810B99DF84D0200B984E09DF8AF
:100C20004D022E2800D1EDE70DF24D2554A34A4682
:100C300054A102A8009508F00FFC9DF84C0210F09A
:100C4000100F00D0DEE751A12846FFF7EAFA00288E
:100C500069D0687AB04202D0687A404563D13B4897
:100C60000078401C394908702A460846017848A097
:100C700017F074FF35480078402800DB54E0687AAC
:100C8000502805D14D48007840F001004B490870CC
:100C9000687A462805D14948007840F00200474963
:100CA00008702A480078441E0320B4FBF0F000EBE3
:100CB000800101EBC0005A2101EB40001FFA80FACD
:100CC0000320B4FBF0F100FB1140C0EB0010C0EBBF
:100CD000C000642101EB400B2BA300225146584673
:100CE000009516F04DFE02A801F0E4FB07463946D8
:100CF00000E01AE032A017F031FF002404E034488D
:100D0000205C34490855641C202CF8D3202406E0CC
:100D10002F48205C3049214401F8200C641CBC425F
:100D2000F6D31BF0C1FD6DE704E0094801782BA064
:100D300017F014FF054800780DF5177DBDE8F08F1A
:100D4000303A2F444649363030000000521400201B
:100D5000531400200D0A3E5553422048533A45781B
:100D6000706C6F72653A204469726563746F727952
:100D7000207363616E6E6564203D20257300000062
:100D80002F00000025732573257300004446490099
:100D90000D3E5553422048533A4578706C6F72654A
:100DA0003A20666F756E642066696C656E616D656C
:100DB000203D202532643A2573000000DD08002024
:100DC0000A2066696C652073697A653A25640000BB
:100DD000000024D05216022000002AD00D0A3E55F1
:100DE00053422048533A4578706C6F72653A2043FD
:100DF000616E6E6F74206F70656E20726F6F7420FD
:100E00006469726563746F7279202564202E0D0009
:100E100001490860704700000C3C024070B5044670
:100E20000A460026092502B909E0012A01D1160265
:100E300005E0022A01D1160201E04FF4407600F0ED
:100E4000F5F80546092D28D11548006820F44070B2
:100E50001349086008460068304308600846006887
:100E600020F0F80008600846006844F002010843DA
:100E70000B4908600846006840F48030086000F0C4
:100E8000D5F805460648006820F0020004490860CD
:100E90000846006820F0F8000860284670BD000091
:100EA000103C024009201349096801F48031B1F572
:100EB000803F01D101201CE00E49096811F0100F9C
:100EC00001D0062015E00B49096811F4807F01D09C
:100ED00002200EE00749096811F0EF0F01D007204A
:100EE00007E00449096811F0020F01D0082000E072
:100EF000092070470C3C024010B50446214884424A
:100F000004D202210020FFF789FF39E01E48844205
:100F100004D202210820FFF781FF31E01B48844200
:100F200004D202211020FFF779FF29E018488442FB
:100F300004D202211820FFF771FF21E015488442F6
:100F400004D202212020FFF769FF19E012488442F1
:100F500004D202212820FFF761FF11E00F488442EC
:100F600004D202213020FFF759FF09E00C488442E7
:100F700004D202213820FFF751FF01E0002010BD0C
:100F80000120FCE7004000080080000800C00008C5
:100F90000000010800000208000004080000060824
:100FA000000008080348006840F00040014908605C
:100FB00070470000103C024030B502460C4609253F
:100FC00000F034F80546092D19D10E48006820F4C8
:100FD00040700C4908600846006840F400700860E2
:100FE0000846006840F001000860146000F01EF838
:100FF00005460448006820F00100024908602846C0
:1010000030BD0000103C02400548006810F0004F61
:1010100005D0044802490C3908600348086070474D
:10102000103C024023016745AB89EFCD08B509208C
:101030000090FFF737FF009002E0FFF733FF0090CA
:101040009DF800000128F8D09DF8000008BD0000C0
:1010500099B1102808D14FF02042126E42F00402DC
:101060004FF020431A661CE00E4A126842F0040258
:101070004FF02043C3F8802013E0102808D14FF030
:101080002042126E084B1A404FF020431A6608E0C7
:10109000044A1268044B02EA03024FF02043C3F8EB
:1010A00080207047800000A0FBFF0F0010280AD1AD
:1010B00018214FF020421166402151664FF0FC315B
:1010C0009166D16610E01821084A11604FF0400186
:1010D0004FF02042C2F884104FF0FC31044A1160F6
:1010E0004FF02042C2F88C1070470000800000A032
:1010F000880000A030B5002100220023446844F09D
:10110000080485682C43C5682C4305692C43456950
:1011100044EA4524856944EA4531C4692468C569BF
:101120006D6844EA0524C5692D8944EA0544C5690A
:101130002D7B44EA0562046A2468056A6D6844EA06
:101140000524056A2D8944EA0544056A2D7B44EA95
:1011500005630468102C05D14FF020442166A26677
:10116000E36607E0044C21604FF02044C4F8882077
:10117000024C236030BD0000800000A08C0000A065
:1011800001464FF480708A88521C8A808A88402ADF
:1011900011D100228A804A88521C4A804A88B2F5BE
:1011A000806F08D100224A800A88521C0A800A886F
:1011B000012A00D1400070477FB54FF48070FFF7DF
:1011C00075FF00F0E9F803A800F0A0F99DF80F0002
:1011D00000909DF80E309DF80D209DF80C1033A066
:1011E00017F0BCFC9DF80C0001280ED19DF80D00F5
:1011F000F1280AD19DF80E0038B99DF80F001D287E
:1012000003D133A017F0AAFC02E036A017F0A6FC29
:101210000020ADF80400ADF80600ADF80800012389
:101220003448DDE9011200F0DDF90020314981F890
:1012300021000846007846282BD1084640784D28E2
:1012400027D108468078562823D1084640792D2892
:101250001FD129A017F082FC01232648DDE90112E5
:1012600000F06AF9002410E0012000EB440021495D
:101270000D5C002000EB4400085C00EB052085B20B
:101280001F4820F81450601C84B2B4F5806FEBDB6B
:101290000AE019F017FA282806DB19F013FA2828B3
:1012A00002DB18A017F05AFC7FBD00000D204E6134
:1012B0006E64466C61736849443D253032582C2574
:1012C0003032582C253032582C253032580000004E
:1012D00020547970653D5333344D4C3031473130B3
:1012E0003054000020547970653D556E6B6E6F77F9
:1012F0000000000040800220205665722E257300F9
:10130000722602200D20546F6F206D756368206275
:10131000616420626C6F636B2121210003B5602042
:1013200010490870BDF80210BDF8000001EB8020E4
:10133000BDF8041001EB80100B490870BDF80210D5
:10134000BDF8000001EB8020BDF8041001EB801017
:10135000000A05490870D0200249087000F006F81C
:101360000CBD0000000001800000028030B54FF08D
:101370008074402500F08EF9054603E000F08AF9FC
:101380000546641E402D01D0002CF7D10CB94FF456
:101390008065284630BD000000B58FB001211820BF
:1013A00000F0B4FF0121880301F000F80121084694
:1013B00000F0DCFF0C220E21514800F04FFB0C2204
:1013C0000F214F4800F04AFB0C2200214C4800F04E
:1013D00045FB0C2201214A4800F040FB0C2207216A
:1013E000484800F03BFB0C220821464800F036FB41
:1013F0000C220921434800F031FB0C220A2141480C
:1014000000F02CFB4CF203000D9002208DF8380008
:101410008DF8390000208DF83A0001208DF83B004E
:101420000DA9374800F0D2FA4FF4F0600D900DA9E5
:10143000344800F0CBFA0C220B21314800F00EFBAF
:101440000C2211462E4800F009FB4FF4C0500D90BD
:101450000DA92B4800F0BAFA0C220421284800F00C
:10146000FDFA0C220521264800F0F8FA30200D90F4
:101470000DA9234800F0AAFA0C220721204800F009
:10148000EDFA4FF400700D900DA91F4800F09EFA80
:101490000C2206211A4800F0E1FA40200D900020AD
:1014A0008DF838008DF83A0002208DF839000120BF
:1014B0008DF83B000DA9124800F088FA0420009036
:1014C000032001900290052003904FF48070049057
:1014D00000200590069040200790C002089003204D
:1014E00009900A90CDF82CD0CDF830D004A8FFF7A1
:1014F00001FE01210802FFF7ABFD0FB000BD0000A7
:10150000000C02400010024000180240002190220E
:10151000074B1A700022074B1A709A03116801706A
:101520000A0A42700A0C82700A0EC27070470000EC
:1015300000000180000002802DE9FF4706461D469D
:10154000002400274FF480784FF04009A24639E08C
:10155000002022490870224908700870BDF8061062
:10156000BDF8040001EB8020BDF8081001EB8010ED
:101570001B490870BDF80610BDF8040001EB80207F
:10158000BDF8081001EB8010000A154908703020E2
:1015900012490870F80200F5006A002400E0641C9B
:1015A000B4F5805FFBD3002404E04FF000400078E6
:1015B0003055641C5445F8D37F1C6D1E01A8FFF7FD
:1015C000DFFD804615B1B8F5807FC1D0FFF7CEFEB4
:1015D000814649EA080004B0BDE8F08700000180B8
:1015E000000002802DE9FF4706461D460027002423
:1015F0004FF480784FF04009A2463AE0002023499A
:1016000008702349087008200870BDF80610BDF85E
:10161000040001EB8020BDF8081001EB80101C498C
:101620000870BDF80610BDF8040001EB8020BDF87D
:10163000081001EB8010000A15490870302013498A
:101640000870B80100F1400A002400E0641CB4F501
:10165000805FFBD3002404E04FF000400078305559
:10166000641C5445F8D37F1C6D1E01A8FFF788FD4C
:10167000804615B1B8F5807FC0D0FFF777FE814670
:1016800049EA080004B0BDE8F087000000000180CE
:1016900000000280002100207022084B1A70D20640
:1016A000117811F0010F01D0012006E001F0400295
:1016B000402A01D1402000E0002070470000018056
:1016C0002DE9FF4707461C460025A8464FF48079C0
:1016D0004026AA4642E0802026490870002026497C
:1016E00008700870BDF80610BDF8040001EB8020FA
:1016F000BDF8081001EB80101F490870BDF80610F6
:10170000BDF8040001EB8020BDF8081001EB80104B
:10171000000A194908704FEAC82000F5006A002540
:1017200004E0785D4FF0004108706D1C5545F8D31A
:1017300010201049087000BF4021104800F0B1F996
:101740000028F9D0FFF712FE0646402E06D108F118
:101750000108641E01A8FFF713FD814624B1B9F505
:10176000807F01D1402EB6D046EA090004B0BDE822
:10177000F08700000000018000000280000C0240A1
:101780002DE9FF4707461C460025A8464FF48079FF
:101790004026AA4643E080202649087000202649BA
:1017A000087008200870BDF80610BDF8040001EBB1
:1017B0008020BDF8081001EB80101F490870BDF8AB
:1017C0000610BDF8040001EB8020BDF8081001EB05
:1017D0008010000A184908704FEA881000F1400A8A
:1017E000002504E0785D4FF0004108706D1C554500
:1017F000F8D310200F49087000BF40210F4800F0B7
:1018000050F90028F9D0FFF7B1FD0646402E06D169
:1018100008F10108641E01A8FFF7B2FC814624B15B
:10182000B9F5807F01D1402EB5D046EA090004B059
:10183000BDE8F0870000018000000280000C02403B
:1018400070B5ADF5167D31A500260020324908702F
:10185000294609A812F0E3FC3049087008460078D0
:1018600000284AD129462EA017F078F940E090A927
:1018700009A812F00BFE294908700846007810B933
:101880009DF8490200B937E09DF849022E2800D1A1
:101890002EE00DF249242DA32A462DA101A8009483
:1018A00007F0DAFD9DF8480210F0100F00D01FE09D
:1018B00029A12046FEF7B5FCC8B1607A622802D0A3
:1018C000607A422813D10420244908701248007815
:1018D000401C11490870214621A017F03FF901A8CA
:1018E00000F0E8FD0646314627A017F037F900BFA3
:1018F000094800780028BAD004E00848017826A0FA
:1019000017F02CF930460DF5167D70BD303A2F4496
:101910004649363030000000521400205314002095
:101920000D0A3E5553422048533A4669726D77611D
:1019300072653A204469726563746F7279207363CB
:10194000616E6E6564203D20257300002F0000004D
:10195000257325732573000044463600DD080020FA
:101960000D3E5553422048533A4669726D77617275
:10197000653A20666F756E642066696C656E616D90
:1019800065203D2025730000092066696C65207381
:10199000697A653A256400000D0A3E555342204895
:1019A000533A4578706C6F72653A2043616E6E6F82
:1019B00074206F70656E20726F6F74206469726539
:1019C00063746F7279202564202E0D00F0B50A46ED
:1019D00000210023002400BF3DE0012505FA01F3AA
:1019E000156805EA03049C4234D105684F000326BC
:1019F000BE40B543056015794E00B54006683543D5
:101A000005601579012D02D01579022D16D1856852
:101A10004F000326BE40B543856055794E00B54062
:101A2000866835438560456801268E40B54345602C
:101A3000456896798E40B6B235434560C5684F001B
:101A40000326BE40B543C560D5794E00B540C66893
:101A50003543C560491C1029BFD3F0BDF0B5002344
:101A600000244D07ED0E02FA05F3CE1000F120051B
:101A700055F826504E07F70E0F26BE40B543CF103F
:101A800000F1200646F82750CE1000F1200555F849
:101A9000265045EA0304CE1000F1200545F8264003
:101AA000F0BD0246002013690B4201D0012000E086
:101AB00000207047418370470183704701464869A1
:101AC000806880B2704708B50146D1F8CC00006844
:101AD00000900098C0F3414008BD024602F29F30DA
:101AE000405C7047024602F5557050F8210070477F
:101AF00070B504460E4600250021C4F8101300BF3F
:101B00000BE0002104F5467040F825103C3040F809
:101B100025103C304155681CC5B20F2DF1DB082162
:101B2000A4F8B6133146204606F05EFC204606F0C7
:101B300051F8204605F0F0FE0121204606F0BEFCDB
:101B4000204605F082FF204606F09DF8002070BD7B
:101B50000146D1F8100370470146D1F814037047CD
:101B600010B50446204606F01EFC002010BD70B5DE
:101B700004460D46002104F29F304155113000EB20
:101B8000451041612946204606F0BCFA70BD00BFF1
:101B9000FEE7000070B50023002100227B4C248862
:101BA000B4F5407F7EDB794C2488B4F5806F79DA18
:101BB000774C2478002C75D0764C248804EB4405AF
:101BC00005EB0414744D2C5D202CF4D0714C24884A
:101BD000641C04EB440505EB04146F4D2C5D202CB4
:101BE00060D100202AE06B4C248804EB440505EB0F
:101BF0000414694D2C44245C302C0CDB654C248887
:101C000004EB440505EB0414634D2C44245C392C8F
:101C100001DC012311E05F4C248804EB440505EB53
:101C200004145D4D2C44245C2CB9441EE4B22146BE
:101C30002246122001E000231220401C1228D2DB91
:101C4000002BB8D0002013E0524C248804EB44054C
:101C500005EB0414504D2C44255C4E4C2488641C28
:101C600004EB440606EB04144B4E34442554401C4C
:101C70001228E9DB86E0B1BB464C248804EB44051E
:101C800005EB0414444D2C44645C392C2CD1122AED
:101C900018DA31253F4C2488641C04EB440606EB1B
:101CA000041400E070E03C4E35553025394C248852
:101CB000641C04EB440606EB0414374E2644541C03
:101CC000355525E000200BE03025324C2488641C7B
:101CD00004EB440606EB04142F4E34442554401CF8
:101CE0001228F1DB14E014E02A4C2488641C04EB75
:101CF000440505EB0414284D2C5D641CE5B2254C0D
:101D00002488641C04EB440606EB0414224E35556B
:101D100039E0204C248804EB440505EB04141E4DE7
:101D20002C44645C392C15D01A4C248804EB4405EF
:101D300005EB0414184D2C44645C641CE5B2154C8E
:101D40002488641C04EB440606EB0414124E34444D
:101D5000655418E00F4C248804EB440505EB04148B
:101D60000D4D2C44645C392C0CD13025094C248851
:101D7000641C04EB440606EB0414074E344465541B
:101D80004C1EE1B277E700BF70BD000038020020B2
:101D90000109002094060020283600202DE9F0419A
:101DA00005460020474908704749087047490870B0
:101DB000474908702878022802D02878202803D1C3
:101DC00001204449087002E00020424908704FF0A9
:101DD000000802240CE0285D012805D0285D0228B7
:101DE00002D0285D032801D14FF00108601CC4B265
:101DF000082CF0DBB8F1010F01D1BDE8F081002023
:101E0000304908703049087002242AE0285D30B358
:101E1000285D31492B4A127888542A480078401CA2
:101E200028490870002607E0285D2C49895D884212
:101E300000D105E0701CC6B2244800788642F3DB6E
:101E400000BF22480078864209D1285D24491E4AF5
:101E5000127888541C480078401C1B490870601C8C
:101E6000C4B2082CD2DB18480078012817D11C48CE
:101E700000781749087017480078012805D11948DB
:101E80000978405C18490F5C05E01648104909784C
:101E9000405C16490F5C384607F044FA02E0002027
:101EA0000B4908700748007808490870002405E0CD
:101EB0000948005D09490855601CC4B2062CF7DBCF
:101EC00000BF9AE700140020011400200214002033
:101ED000FF130020EC130020ED130020F913002065
:101EE000F3130020C4C404082EC60408ACC50408BB
:101EF00010B507F00FFA10BD2DE9F74F82B0044678
:101F0000E4003048005D4B2806D0E1082EA016F012
:101F1000AFFE05B0BDE8F08F2A49601C0D5CA01C27
:101F2000085C00EB0525E01C085C00EB0525201D86
:101F300011F80090601D085C00EB09201FFA80F981
:101F4000A01D11F800A0E01D085C00EB0A201FFA9C
:101F500080FA574631E004983844401E00EBC00137
:101F600001EB0011039800EB411000EB40000190E1
:101F70001A49019800EB0108002618E028466D1C5C
:101F8000174910F801B008F806B028466D1C10F883
:101F900001B008EB060080F801B028466D1C10F86F
:101FA00001B008EB060080F802B0F01C86B209EB25
:101FB0004900B042E2DC781E87B2002FCBDC00BFC4
:101FC000A7E70000721602200D204E6F20424D50F0
:101FD0002046696C6521203A20256400009411D0C8
:101FE000000050D010B5044620780549C8706078CC
:101FF0000870A0784870084607F0EFF910BD00009F
:102000000C14002010B507F0E7F910BD00BFFEE783
:102010007047000070B5002100230F22C47824B35C
:10202000174C246804F4E064C4F5E064C4F30721A9
:10203000C1F10404E3B20A4144789C40E1B28478DF
:10204000144021430C07210E0E4C0578615504788D
:1020500004F01F050124AC4005786D114FF0E02617
:1020600006EB8505C5F8004109E0047804F01F047B
:102070000125A540044C0678761144F8265070BD21
:102080000CED00E000E400E080E100E002490143E3
:10209000024A1160704700000000FA050CED00E0F4
:1020A00010B5024804F0EEFD10BD00001CDE022059
:1020B00010B5024804F0E6FD10BD0000D8D702209C
:1020C00010B50021084600F0C9F8002000F0F2F831
:1020D0000021012000F0C2F8012000F0EBF80021FF
:1020E000022000F0BBF8022000F0E4F800210320F9
:1020F00000F0B4F8032000F0DDF80021042000F027
:10210000ADF8042000F0D6F80021052000F0A6F874
:10211000052000F0CFF80021062000F09FF80620EF
:1021200000F0C8F80021072000F098F8072000F020
:10213000C1F80021082000F091F8082000F0BAF85A
:102140000021092000F08AF8092000F0BFF80021E2
:102150000A2000F083F80A2000F0ACF800210B20E0
:1021600000F07CF80B2000F0A5F800210C2000F016
:1021700075F80C2000F09EF800210D2000F06EF89C
:102180000D2000F097F800210E2000F067F80E20D7
:1021900000F090F800210F2000F060F80F2000F010
:1021A00089F80021102000F059F8102000F082F882
:1021B0000021112000F052F8112000F087F80021D2
:1021C000122000F04BF8122000F074F800211320C8
:1021D00000F044F8132000F06DF80021142000F006
:1021E0003DF8142000F066F80021152000F036F8C4
:1021F000152000F05FF80021162000F02FF81620BF
:1022000000F058F80021172000F028F8172000F0FF
:1022100051F80021182000F021F8182000F04AF8A9
:102220000021192000F01AF8192000F043F80021CD
:102230001A2000F013F81A2000F03CF800211B20AF
:1022400000F00CF81B2000F035F800211C2000F0F5
:1022500005F81C2000F02EF810BD00007CB50446E7
:102260000D46114951F82400012100F04FF80F48A4
:1022700030F8140000901DB901208DF8040002E030
:1022800000208DF8040000208DF8060001208DF854
:10229000070002208DF80500054951F82400694621
:1022A000FFF794FB7CBD000050C4040814C404086C
:1022B00018130020034931F81010034A52F8202067
:1022C0001183704714C4040818130020034931F81F
:1022D0001010034A52F820205183704714C4040898
:1022E00018130020064951F820104969054A32F8B0
:1022F00010205140024A52F82020516170470000DE
:102300001813002014C404087047000029B1064ABD
:1023100012680243044B1A6004E0034A12688243C5
:10232000014B1A60704700003038024029B1064A5C
:1023300012680243044B1A6004E0034A12688243A5
:10234000014B1A60704700005038024029B1064A1C
:1023500012680243044B1A6004E0034A1268824385
:10236000014B1A60704700003438024029B1064A18
:1023700012680243044B1A6004E0034A1268824365
:10238000014B1A60704700003838024029B1064AF4
:1023900012680243044B1A6004E0034A1268824345
:1023A000014B1A60704700004038024029B1064ACC
:1023B00012680243044B1A6004E0034A1268824325
:1023C000014B1A607047000044380240F0B500210C
:1023D00000220024022500260223324F3F6807F026
:1023E0000C0121B1042905D0082937D105E02E4F71
:1023F000076036E02D4F076033E02A4F3F1F3F68EC
:10240000C7F38056274F3F1F3F6807F03F036EB169
:10241000264FB7FBF3F7DFF88CC0ACF1040CDCF807
:1024200000C0CCF3881C07FB0CF40CE01E4FB7FB7C
:10243000F3F7DFF870C0ACF1040CDCF800C0CCF3AB
:10244000881C07FB0CF4174F3F1F3F68C7F3014779
:102450007F1C7D00B4FBF5F7076002E0124F0760B8
:1024600000BF00BF0F4F3F6807F0F0010909104F90
:102470007A5C0768D74047600A4F3F6807F4E0512D
:10248000890A0B4F7A5C4768D7408760054F3F68E1
:1024900007F46041490B064F7A5C4768D740C76034
:1024A000F0BD0000083802400024F40000127A0059
:1024B0008D130020F8B50546002700200090002667
:1024C0002E490860012229462D4811F0EBFD2D49C7
:1024D00008700846007850B1294811F0A1FD29483C
:1024E0000278294628A016F039FB701EF8BD2FE0AF
:1024F0006B464FF480423249214811F0D0FE214909
:102500000870009810B10846007800B125E00098E6
:1025100006440098B0F5804F05D3781C80B207467A
:10252000042800DB0027012005F0E8F900240CE076
:102530002348005D11490968224A88540F48006801
:10254000401C0E490860601C84B200988442EFD39E
:102550001D48FFF7FDFA0028CAD100BF084811F056
:102560005FFD002406E005F08DF8012005F0C6F9B6
:10257000601C84B2322CF6DB3046B7E7D40800206A
:10258000B4D50220531400200D0A3E555342204872
:10259000533A5265616446696C6546726F6D555376
:1025A000423A202573206E6F742065786973742C0D
:1025B0002072657320636F64653D2564200D000003
:1025C000848F0220000024D0D8D702202DE9F041CA
:1025D00000270020204908802048008820B9204892
:1025E00005882048068803E01F4805881F4806889C
:1025F000002004E000211E4A22F81010401C41F285
:1026000088318842F6DB34461EE0A0B209F040F97A
:10261000012818D10AF03EF9012814D10AF0DCF89B
:10262000012810D11348007810B10AF0F7F850B122
:1026300038467F1C0E4921F81040791E0C4A32F8AA
:10264000110007F0BBFC641EAC42DEDA781E0A49BA
:102650000860BDE8F0810000860600209C0700208D
:102660009407002096070020980700209A07002072
:10267000889D012051020020140900207CB50446E9
:102680000D46364951F82410354A52F8242041EAC3
:1026900002000121FFF73AFE0CB1052C06D13149A9
:1026A00051F824000121FFF781FE05E02D4951F882
:1026B00024000121FFF76AFE2A4951F82400012174
:1026C000FFF774FE274951F824000121FFF75EFE51
:1026D000254B13F81420254B33F81410244B53F8D2
:1026E0002400FFF7BBF9234B13F81420224B33F8D7
:1026F0001410224B53F82400FFF7B0F900208DF896
:10270000060001208DF8070002208DF804001C4807
:1027100030F81400009002208DF80500144951F89B
:1027200024006946FFF752F902208DF8040015488D
:1027300030F814000090114951F824006946FFF761
:1027400045F9114951F82400294602F0F1F90E49E2
:1027500051F82400012102F001F97CBD88C304086E
:10276000A4C304086CC30408F8C30408DCC3040849
:10277000E012002006C40408EAC30408FC1200208A
:10278000C0C30408CEC30408C41200207047000070
:102790002DE9F04F85B04FF0000A0020049003901F
:1027A000F0A1F848FDF74FFDF74800780D2868D2F2
:1027B000DFE800F067070F171F272F373F474F57F6
:1027C0005F004A20EF494870412088704E20C87051
:1027D00057E04620EB494870452088704220C87079
:1027E0004FE04D20E7494870412088705220C87062
:1027F00047E04120E3494870502088705220C8705B
:102800003FE04D20DF494870412088705920C87052
:1028100037E04A20DB494870552088704E20C87048
:102820002FE04A20D7494870552088704C20C87046
:1028300027E04120D3494870552088704720C87050
:102840001FE05320CF494870452088705020C87041
:1028500017E04F20CB494870432088705420C8703F
:102860000FE04E20C74948704F2088705620C8702E
:1028700007E04420C3494870452088704320C87051
:1028800000BF00BFC148007808F08AFA0546280A50
:10289000BC4948718D71BE48007808F081FA054640
:1028A000280AB8498872CD72BA48007808F078FAD8
:1028B0000546280AB34948738D73B748007808F075
:1028C0006FFA0546280AAF4908744D74B34800787A
:1028D00008F066FA0546280AAA49C8740D751A2137
:1028E000A84811F07EFE002405E0A649085D18F016
:1028F000C3FF601CC4B21C2CF7DBA9A1A148FDF7E3
:10290000A2FC002405E09F49085D18F0B5FF601C9B
:10291000C4B21C2CF7DBAAA19A48FDF794FC002452
:1029200005E09849085D18F0A7FF601CC4B21C2C94
:10293000F7DBABA19348FDF786FC002405E0B04827
:10294000005D90490855601CC4B20B2CF7DBAD4804
:10295000008808F025FA0546280E8A490874280CD4
:102960004874280A8874CD741A21864811F039FEFB
:10297000002405E08349085D18F07EFF601CC4B2A6
:102980001C2CF7DBA048007801280ED19FA17D48C0
:10299000FDF759FC002405E07A49085D18F06CFF4A
:1029A000601CC4B21C2CF7DB01E20025FAE19F4950
:1029B000681C085C0C2806D10AF1010000F0FF0A2F
:1029C0009B48405D04909949681C085C0D2806D11D
:1029D0000AF1010000F0FF0A9548405D0390934919
:1029E000681C085C0C2871D192A16648FDF72BFC8D
:1029F000002605240BE02A2000FB054094490A5CD0
:102A00003046711CCEB25F490A54601CC4B2082C17
:102A1000F1DB002407E020223046711CCEB2594978
:102A20000A54601CC4B2042CF5DB8A4800780128E3
:102A30001AD1002415E07D49681C085C401E00EB9B
:102A40000010854901EBC0007949495D01EB011196
:102A50000844025D3046711CCEB24A490A54601CDB
:102A6000C4B2102CE7DB19E0002415E06F49681CA4
:102A7000085C401E00EB0010784901EBC0006C4977
:102A8000495D01EB01110844025D3046711CCEB274
:102A90003C490A54601CC4B2102CE7DB002407E058
:102AA00020223046711CCEB236490A54601CC4B292
:102AB000022CF5DB002405E03249085D18F0DCFE4D
:102AC000601CC4B21B2CF7DB6BE1FFE75749681CA5
:102AD000085C0D2843D15F48007801283FD155A1FB
:102AE0002848FDF7B0FB002605240BE02A2000FB58
:102AF000054057490A5C3046711CCEB221490A5440
:102B0000601CC4B2082CF1DB002407E02022304610
:102B1000711CCEB21B490A54601CC4B2042CF5DBF4
:102B20004C48007801281BD1002415E03F49681C5F
:102B3000085C401E00EB0010474901EBC0003C4917
:102B4000495D01EB01110844025D3046711CCEB2B3
:102B50000C490A54601CC4B2102CE7DB9AE0B0E0C8
:102B60007EE000007E4A414E2F30312F323032302D
:102B70002030303A30303A303020202020200D0AEA
:102B800000000000521502208B0700208C07002057
:102B90008A0700208D0700208E0700208F07002065
:102BA0004E616D653A20202020202020202020200A
:102BB00020205365783A202020200D0A00000000D4
:102BC000576172643A2020202020202020202020DD
:102BD00020204167653A202020200D0A00000000D7
:102BE0005374726970204E616D6531202020283049
:102BF000303030302920202020200D0A0000000035
:102C00002F040220920700206E07002020202020A1
:102C100020202020204E6F205374726970202020C5
:102C20002020202020200D0A000000004004022067
:102C3000500402202020202020202020202020209E
:102C4000202020202020202020202020200D0A00CD
:102C500017FF0120FD080020BF850408D7A0040845
:102C6000002415E0FE49681C085C401E00EB0010C3
:102C7000FC4901EBC000FC49495D01EB011108442E
:102C8000025D3046711CCEB2F8490A54601CC4B2D1
:102C9000102CE7DB002407E020223046711CCEB266
:102CA000F2490A54601CC4B2022CF5DB002405E092
:102CB000EE49085D18F0E0FD601CC4B21B2CF7DB88
:102CC0006FE0EBA1E948FDF7BEFA002605240BE012
:102CD0002A2000FB0540EE490A5C3046711CCEB24A
:102CE000E2490A54601CC4B2082CF1DB002407E05E
:102CF00020223046711CCEB2DC490A54601CC4B29A
:102D0000042CF5DBE348007801281AD1002415E0F3
:102D1000D349681C085C401E00EB0010DE4901EB43
:102D2000C000D149495D01EB01110844025D304604
:102D3000711CCEB2CD490A54601CC4B2102CE7DB22
:102D400019E0002415E0C649681C085C401E00EB31
:102D50000010C44901EBC000C349495D01EB0111FA
:102D60000844025D3046711CCEB2C0490A54601C52
:102D7000C4B2102CE7DB002407E020223046711C8F
:102D8000CEB2BA490A54601CC4B2032CF5DB00244D
:102D900005E0B649085D18F06FFD601CC4B21C2C3C
:102DA000F7DB6D1CAE480078A8423FF600AEAC4899
:102DB00000780D280DDAAEA1AC48FDF744FA0024E6
:102DC00005E0AA49085D18F057FD601CC4B21C2C30
:102DD000F7DBB2A1A548FDF736FA002406E0B748B4
:102DE000015DA24A201D1154601CC4B2082CF6DB00
:102DF0001A219E4811F0F5FB002405E09B49085D6F
:102E000018F03AFD601CC4B21C2CF7DBACA197484B
:102E1000FDF719FAB248008841F28931884229DA6F
:102E20004FF00C0B0BE0AF4810F80B0028B1AD4889
:102E300010F80B00202800D004E0ABF1010BBBF12F
:102E4000000FF0DA00BF0BF1010B00200090CBF176
:102E50000D0008E000994A1C0092A24A525C834B84
:102E6000C11C5A54401C0D28F4DB1A217F4811F074
:102E7000B8FB0BE0002407E09A4904F10800095C64
:102E80007A4A1154601CC4B2082CF5DB002405E01A
:102E90007649085D18F0F0FC601CC4B21C2CF7DB0E
:102EA00091A17248FDF7CFF9002002900190814670
:102EB00080464FF007090BE0934810F8090028B14D
:102EC000914810F80900202800D004E0A9F1010978
:102ED000B9F1000FF0DA00BF09F1010900240BE09D
:102EE0008948005D302803DB8748005D392801DD13
:102EF00001200290601CC4B24C45F1DB002702980F
:102F000038B1032703E020205849C8557F1C0B2FF8
:102F1000F9DB0027C9F1080007E039467F1C7A4A2F
:102F2000525C524BC11C5A54401C0828F5DB6C48BB
:102F3000008841F2893188423EDB4FF007080BE000
:102F4000684810F8080028B1664810F808002028E2
:102F500000D004E0A8F10108B8F1000FF0DA00BFDA
:102F600008F1010800240BE05E48005D302803DB17
:102F70005C48005D392801DD01200190601CC4B26D
:102F80004445F1DB0027019838B1102703E02020E9
:102F90003649C8557F1C182FF9DB0027C8F10800F7
:102FA00008E039467F1C4F4A525C304B00F110015B
:102FB0005A54401C0828F4DBBAF1020F08DA5348CF
:102FC000008828B95248008810B97E2027494876E1
:102FD000002405E02549085D18F04EFC601CC4B2D1
:102FE0001C2CF7DBBAF1020F38D14AA11F48FDF7BC
:102FF0002AF928480078012817D1002412E04D4909
:10300000039801EB0011049851F8200000EBC00078
:10301000494901EB4000015D04F10900134A1154D4
:10302000601CC4B2112CEADB16E0002412E0414916
:10303000039801EB0011049851F8200000EBC00048
:103040003E4901EB4000015D04F10900074A1154BB
:10305000601CC4B2112CEADB002477E0A5E000007C
:1030600040040220D7A00408500402205215022078
:103070002020202020202020202020202020202050
:10308000202020202020202020200D0A00000000E9
:1030900017FF0120FD080020BF85040828534E3D7E
:1030A0002020202020202020292020202020202017
:1030B0002020202020200D0A00000000723E022067
:1030C00049442820202020202020202020202020AB
:1030D000292020202020202020200D0A0000000090
:1030E000920700201C0402204F502830303030302E
:1030F000303030294C4F5428303030303030303080
:1031000029200D0A00000000110402207007002091
:1031100072070020413A4320202020202020202038
:1031200020202020202020202020202020200D0AC8
:1031300000000000F0BB040840BC040888BC040880
:10314000BD49085D18F098FB601CC4B21C2CF7DB6D
:10315000AFF2E401B848FDF776F8002410E0B74973
:10316000039801EB0011049851F82000C0EBC00057
:10317000B34901EB4000005DAF490855601CC4B283
:103180000D2CECDBAF48008828B9AF48008810B997
:103190007E20A9494876002405E0A749085D18F07B
:1031A0006BFB601CC4B21C2CF7DBA648008818B966
:1031B000A5480088002876D0A4A19F48FDF743F8D1
:1031C000A0480088092817D2DFE800F00517273A41
:1031D0004B5C6E7E8F0000240CE0A448007800EB6E
:1031E0004000A34901EB4000015DA01D924A11542B
:1031F000601CC4B2062CF0DB88E000240AE09D4885
:103200009A49097800EBC100015DA01D8A4A11545A
:10321000601CC4B2082CF2DB78E000240DE0934877
:10322000007800EB400101EBC00093490844015DC8
:10323000A01D814A1154601CC4B20B2CEFDB65E069
:1032400000240BE089480078C0EBC0008B4908449B
:10325000015DA01D784A1154601CC4B2072CF1DB3B
:1032600054E000240BE081480078C0EBC0008449A2
:103270000844015DA01D704A1154601CC4B2072CA3
:10328000F1DB43E000240BE07848007800EB80009D
:103290007C490844015DA01D674A1154601CC4B2FA
:1032A000052CF1DB32E0C3E000240AE076486F49E8
:1032B000097800EBC100015DA01D5F4A1154601C3C
:1032C000C4B2082CF2DB21E000240BE06748007850
:1032D000C0EBC0006D490844015DA01D564A115461
:1032E000601CC4B2072CF1DB10E000240BE05F4847
:1032F0000078C0EBC00066490844015DA01D4E4A3D
:103300001154601CC4B2072CF1DB00BF00BF1A21AE
:10331000494811F066F9002405E04749085D18F0B6
:10332000ABFA601CC4B21C2CF7DB5AA14248FCF774
:103330008AFF4548008806286BD2DFE800F00315B5
:103340002639495900240CE04848007800EB400039
:10335000474901EB4000015DA01D374A1154601C34
:10336000C4B2062CF0DB54E000240BE03F480078A8
:10337000C0EBC0004F490844015DA01D2E4A115406
:10338000601CC4B2072CF1DB43E000240DE0374899
:10339000007800EB400101EBC00047490844015DA3
:1033A000A01D254A1154601CC4B20B2CEFDB30E089
:1033B00000240AE041482D49097800EBC100015D75
:1033C000A01D1D4A1154601CC4B2082CF2DB20E081
:1033D00000240AE03A482549097800EBC100015D64
:1033E000A01D154A1154601CC4B2082CF2DB10E079
:1033F00000240BE01D480078C0EBC00024490844BD
:10340000015DA01D0C4A1154601CC4B2072CF1DBF5
:1034100000BF00BF1A21084811F0E3F8002405E0BE
:103420000549085D18F028FA601CC4B21C2CF7DBB3
:1034300005B0BDE8F08F000052150220F0BB040873
:10344000D0BC04087007002072070020436F6C6F27
:10345000722020202020202020202020202020201A
:103460002020202020200D0A00000000120900204A
:103470009E060020AA060020BA060020D0060020E2
:10348000DE060020EC060020F606002006070020DD
:103490001407002054757262202020202020202054
:1034A000202020202020202020202020207E0D0AE7
:1034B00000000000220700203007002046070020FF
:1034C000560700202DE9F05F8046B8F1060F7DDA3F
:1034D000F6A1FE48FCF7B7FEFD4800780D2868D23B
:1034E000DFE800F067070F171F272F373F474F57B9
:1034F0005F004A20F549C871412008724E20487289
:1035000057E04620F149C8714520087242204872B0
:103510004FE04D20ED49C871412008725220487299
:1035200047E04120E949C871502008725220487292
:103530003FE04D20E549C87141200872592048728A
:1035400037E04A20E149C871552008724E20487280
:103550002FE04A20DD49C871552008724C2048727E
:1035600027E04120D949C871552008724720487288
:103570001FE05320D549C871452008725020487279
:1035800017E04F20D149C871432008725420487277
:103590000FE04E20CD49C8714F2008725620487266
:1035A00007E04420C949C871452008724320487289
:1035B00000BF00BFC748007807F0F2FB0546280AA5
:1035C000C249C8720D73C448007800E02CE007F0CF
:1035D000E7FB0546280ABD4908744D74BF480078CA
:1035E00007F0DEFB0546280AB849C8740D75BC48CB
:1035F000007807F0D5FB0546280AB4498875CD75D3
:10360000B848007807F0CCFB0546280AAF49487651
:103610008D76002405E0AD49085D18F02DF9601C99
:10362000C4B21C2CF7DBA8E0AFA1A848FCF70BFE46
:10363000A74800780D2868D2DFE800F067070F1769
:103640001F272F373F474F575F004A209F49C871B8
:10365000412008724E20487257E046209B49C871AD
:1036600045200872422048724FE04D209749C871AA
:10367000412008725220487247E041209349C871A6
:1036800050200872522048723FE04D208F49C87187
:10369000412008725920487237E04A208B49C8718E
:1036A000552008724E2048722FE04A208749C87181
:1036B000552008724C20487227E041208349C87188
:1036C00055200872472048721FE053207F49C87177
:1036D000452008725020487217E04F207B49C8717E
:1036E00043200872542048720FE04E207749C87179
:1036F0004F2008725620487207E044207349C87171
:10370000452008724320487200BF00BF714800780E
:1037100007F046FB0546280A6C49C8720D736E48CF
:10372000007807F03DFB0546280A68498873CD7389
:103730006A48007807F034FB0546280A6349487454
:103740008D746748007807F02BFB0546280A5F490F
:1037500008754D756348007807F022FB0546280A76
:103760005A49C8750D76002405E05849085D18F0DF
:1037700083F8601CC4B21C2CF7DB4FF0000B002751
:103780000BE06148C05D202802D10BF1010B03E082
:103790005D48C05D00B902E07F1C0D2FF1DB00BF6A
:1037A0005F4500D10027DFB958A14848FCF74BFD21
:1037B0005D48008807F0F4FA0546280E43498871F1
:1037C000280CC871280A08724D72002405E03F4990
:1037D000085D18F051F8601CC4B21B2CF7DB99E1AE
:1037E000032098FBF0F100FB1180002845D14FA188
:1037F0003648FCF728FD4C48008807F0D1FA05460A
:10380000280E32498871280CC871280A08724D7236
:1038100000264548008841F28831884211DD08269B
:103820000B2408E03046711CCEB23749085C2749AA
:103830000855601CC4B2132CF4DB00202349085542
:103840000CE00B2408E03046711CCEB22E49085C17
:103850001E490855601CC4B2182CF4DB1C211B48FF
:1038600010F0BFFE002405E01849085D18F004F8C8
:10387000601CC4B21E2CF7DB4CE1032098FBF0F176
:1038800000FB1180012879D128A11048FCF7DBFC4E
:103890002548008807F084FA0546280E0B498871F0
:1038A000280CC871280A08724D724FE002446174F6
:1038B00065203A4D41522D31392D3230323120318F
:1038C000323A33353A31300D0A00000052150220E9
:1038D0008B0700208C0700208A0700208D0700201E
:1038E0008E0700208F0700200244617465203A4D46
:1038F00041522D31392D32312031313A33353A317F
:1039000037200D0A000000001C04022049445F4ECD
:103910004F3A303030302D20202020202020202011
:1039200020202020200D0A009207002049445F4EED
:103930004F3A303030302D202020202020202020F1
:1039400020202020202020200D0A0000FE48008892
:1039500041F28831884212DD0826132408E03046FF
:10396000711CCEB2F949085CF9490855601CC4B213
:103970001B2CF4DB0020F649085514E022E04FF040
:103980000009C7F10D00C6B20BE04846411C01F02A
:10399000FF09EE49095CEE4A06F10E001154701C55
:1039A000C6B20D2EF1DB1C21E94810F01AFE0024EE
:1039B00005E0E749085D17F05FFF601CC4B21E2CEC
:1039C000F7DBA7E0032098FBF0F100FB1180022851
:1039D000F7D100260FE0DD48805D302806DBDB48AC
:1039E000805D392802DC4FF0010A02E04FF0000A46
:1039F00003E0701CC6B2BE42EDDB00BFBAF1000F9F
:103A000005D0D148008841F2883188424CDDAFF2C0
:103A1000E401CF48FCF717FCCB48008807F0C0F959
:103A20000546280ECA498871280CC871280A0872F0
:103A30004D72C548008841F28831884211DD082660
:103A4000132408E03046711CCEB2C049085CC0495E
:103A50000855601CC4B21B2CF4DB0020BC4908557F
:103A600013E04FF00009C7F10D00C6B20BE0484665
:103A7000411C01F0FF09B549095CB54A06F10E0089
:103A80001154701CC6B20D2EF1DB1C21B04810F091
:103A9000A8FD002405E0AE49085D17F0EDFE601CAE
:103AA000C4B21E2CF7DB35E0BAF1010F32D1A9A167
:103AB000A748FCF7C8FBA448008807F071F9054641
:103AC000280EA3498871280CC871280A08724D7203
:103AD0004FF00009C7F10D00C6B20BE04846411C8B
:103AE00001F0FF099949095C994A06F10B0011544C
:103AF000701CC6B20D2EF1DB1821954810F071FD37
:103B0000002405E09249085D17F0B6FE601CC4B2BF
:103B10001B2CF7DBB8F1060F1CDA95A18C48FCF7DB
:103B200092FB002405E08A49085D17F0A5FE601CA1
:103B3000C4B2082CF7DB91A18548FCF784FB002474
:103B400005E08349085D17F097FE601CC4B2082C9D
:103B5000F7DB1BE08CA17E48FCF775FB002405E039
:103B60007B49085D17F088FE601CC4B21C2CF7DB93
:103B70008DA17748FCF767FB002405E07449085DD8
:103B800017F07AFE601CC4B21C2CF7DB8E4800785C
:103B900001280ED18DA16E48FCF755FB002405E0ED
:103BA0006B49085D17F068FE601CC4B21C2CF7DB83
:103BB00059E1002552E1B8F1060F69DA8BA164489A
:103BC000FCF741FB002605240BE02A2000FB054002
:103BD0008E490A5C3046711CCEB25D490A54601CA5
:103BE000C4B2082CF1DB002407E020223046711C0F
:103BF000CEB257490A54601CC4B2042CF5DB002431
:103C000017E08349681C085C401E00EB001101EBC3
:103C10008010804901448048405D401C00EBC0009A
:103C20000844025D3046711CCEB249490A54601CFA
:103C3000C4B2082CE5DB002407E020223046711CCA
:103C4000CEB243490A54601CC4B2032CF5DB0024F5
:103C500011E06F49681C085C401E00EB001101EB8D
:103C600080106C490844025D3046711CCEB2384960
:103C70000A54601CC4B2082CEBDB002405E0344974
:103C8000085D17F0F9FD601CC4B21C2CF7DBE4E002
:103C900062A12F48FCF7D7FA002605240BE02A2062
:103CA00000FB054059490A5C3046711CCEB22849D8
:103CB0000A54601CC4B2082CF1DB002407E0202267
:103CC0003046711CCEB222490A54601CC4B2042C86
:103CD000F5DB002417E04E49681C085C401E00EB31
:103CE000001101EB80104B4901444B48405D401CE2
:103CF00000EBC0000844025D3046711CCEB214498E
:103D00000A54601CC4B2082CE5DB002407E0202222
:103D10003046711CCEB20E490A54601CC4B2052C48
:103D2000F5DB00248CE03A49681C085C401E00EB7F
:103D3000001101EB801037490844025D3046711CC8
:103D4000CEB203490A5479E0920700201C040220F5
:103D50005215022049445F4E4F3A303030302D30FA
:103D6000303030303030303030303030200D0A00DC
:103D7000576172643A200D0A000000004E414D4523
:103D80003A200D0A00000000576172643A2020209A
:103D90002020202020202020202020202020202023
:103DA00020200D0A000000004E414D453A20202001
:103DB0002020202020202020202020202020202003
:103DC00020200D0A000000006E0700202020202087
:103DD00020202020204E6F205374726970202020F4
:103DE0002020202020200D0A00000000202020207C
:103DF00020202020202020202020202020202020C3
:103E00002020202020200D0A0000000017FF0120A4
:103E1000400402209C750408500402202020202029
:103E20002020202020202020202020202020202092
:103E300020202020202020200D0A0000601CC4B279
:103E4000082CFFF670AF002405E00F49085D17F05D
:103E500013FD601CC4B21E2CF7DB6D1C0B480078F0
:103E6000A8423FF6A8AE0AA10748FCF7ECF90024E7
:103E700005E00549085D17F0FFFC601CC4B2032C87
:103E8000F7DBBDE8F09F000052150220400402203D
:103E9000030D0A000CB50020019000904048006816
:103EA00040F480303E49086000BF3D48006800F49F
:103EB000003000900198401C0190009818B90198BA
:103EC000B0F5A04FF1D13648006810F4003F02D0A1
:103ED0000120009001E000200090009801285DD1B1
:103EE0002F484030006840F080502D494031086034
:103EF0002C48006840F440402A49086028480830AF
:103F000000682749083108600846006840F400400E
:103F100008600846006840F4A05008602248091F65
:103F20000860081F006840F08070091F086000BF2B
:103F30001B48006810F0007FFAD01A48006840F46F
:103F400080301849086000BF1648406810F4803F70
:103F5000FAD01448006840F400301249086000BFED
:103F60001048406810F4003FFAD040F205700F4945
:103F700008600B480830006820F003000849083149
:103F800008600846006840F00200086000BF04486E
:103F90000830006800F00C000828F8D10CBD0000C3
:103FA000003802400070004008484006003C0240D3
:103FB0007047000010B51548006840F470001349C0
:103FC00008601348006840F00100114908600020B3
:103FD0000F49083108600E4800680E4908400C4936
:103FE00008600D48091D0860081F006820F4802043
:103FF000091F0860002006490C310860FFF74AFFDE
:10400000064802498039086010BD000088ED00E0D4
:1040100000380240FFFFF6FE1030002400000208C6
:1040200070B5DC48007800B90724DA480078012828
:1040300000D10124D7480078022800D10024D648B6
:10404000007800B90725D4480078012800D101255F
:10405000D1480078022800D100250121880700F00E
:104060001FFA1520FEF732F9CC48007860B9CC4829
:104070000088401C80B2CA490880192811DB002042
:10408000088018F029FA0CE0C5480088401C80B26E
:10409000C3490880192804DB18F0E2FA0020C0495F
:1040A00008802021BF4800F035FD58B1BD4800F020
:1040B000A9FDC1B2BC4802780078401CBA4B187008
:1040C000BA4881542021BA4800F024FD58B1B848BC
:1040D00000F098FDC1B2B74802780078401CB54B9B
:1040E0001870B54881542021B44800F013FD58B130
:1040F000B24800F087FDC2B2B14801780078401C98
:10410000AF4B1870AF484254AF48007800287DD1BB
:10411000AE480088AE49098888420AD0AC48008879
:10412000AC49405CA2498880A9480088401CA84945
:104130000880A9480078401CC0B2A7490870A04276
:1041400014DDA6480088A649098888420BD0A448F7
:104150000088A449405C9949091D0880A04800884E
:10416000401C9F49088000209B4908709E480078A9
:10417000401CC0B29C490870A84213DD9B480088CF
:104180009B49098888420AD0994800889949405C2F
:104190009949088096480088401C9549088000206D
:1041A000914908709548007898B9954800789549E4
:1041B0000978884209D0934801780078401C914AD8
:1041C00010709148405C9149088001208B4908702B
:1041D00024E08F4800788F490978884209D08D48BB
:1041E00001780078401C8B4A10708B48405C6D4908
:1041F00088808A4800788A49097888420BD08848A4
:1042000001780078401C864A107000E00FE0854875
:10421000405C8549088000207849087001206A497F
:10422000087082480068401C80490860AEE0202188
:104230007148001F00F06EFC60B16F48001F00F075
:10424000E1FCC1B27A4802780078401C784B1870C3
:104250007848815420216D48001F00F05BFC60B15C
:104260006A48001F00F0CEFCC1B2734802780078A3
:10427000401C714B18707148815420216A48001FFE
:1042800000F048FC60B16848001F00F0BBFCC2B2FF
:104290006B4801780078401C694B1870694842549B
:1042A0006948007830B101282ED002284CD003286C
:1042B00061D15DE065480078A0B96548008865492E
:1042C000098888420AD0634800886349405C634992
:1042D000088060480088401C5E49088001205B49D6
:1042E000087010E05E48007850B15D480078401ECC
:1042F00010F0FF005A49087002D11120FDF7E6FFC7
:1043000000205249087036E001205649087056488E
:10431000008800F51670544908800846008842F26B
:10432000107188420FDB50480088401A4E490880BF
:1043300001204E4908804E48008820B14D48008831
:10434000401C4C49088016E020214448001F00F022
:10435000E1FB60B14148001F00F054FCC1B2464887
:1043600002780078401C444B18704448815402E0A5
:1043700005F000FD00BF00BF33480078401C00F08E
:1043800003003149087000200F4908701520FDF71F
:1043900091FF70BD0A0900200B09002028000020B1
:1043A000D80800200010014098080020520A02207E
:1043B00000500040A2080020520F0220004C004094
:1043C000A0080020520E0220810800209008002042
:1043D00092080020000033D0CF0800208C08002075
:1043E0008E080020000032D0D0080020880800206D
:1043F0008A080020000031D00448004082080020D4
:10440000A6080020A7080020521102200414014031
:104410009A0800209B080020520B0220AA080020C6
:10442000AB0800205213022004780040C808002086
:104430009E080020520D0220A408002052100220E5
:10444000A8080020521202208008002083080020C3
:104450008408002086080020000030D0044400407A
:10446000CE08002014000020AC080020AE08002078
:104470003C0200201E0000209C080020520C02205C
:1044800010B503F01FFA10BD21B1028842F080027E
:10449000028004E002884FF67F731A400280704762
:1044A000CA430282704721B1028842F001020280B1
:1044B00004E002884FF6FE731A400280704708B588
:1044C0004FF4A060FDF7E2FD1C208DF800000120F4
:1044D0008DF801008DF802008DF803006846FDF7A5
:1044E00099FD01210846FDF751FF08BD30B5024690
:1044F000002000230024158A05EA0103958905EAB6
:10450000010413B10CB1012000E0002030BD1AB14C
:1045100083890B43838102E083898B4383817047C6
:1045200070B5002400220023058C4FF6EF7635404D
:104530000584028C8388048B48F6FF752C404FF667
:10454000FF452C400D884FF6FF7606EA05252C43E3
:104550004FF6DF752A408D8906EA05152A434D88F6
:1045600006EA05152A43154DA84202D0144DA8426B
:104570001DD14FF67F752A40CD894FF6FF7606EAAA
:1045800005152A434FF6BF752A408D8806EA0515A2
:104590002A434FF6FF352B404FF2FF752B400D8A13
:1045A00006EA85052B434D8A06EA85052B43838061
:1045B00004838D688563028470BD000000000140A3
:1045C000000401400A460021018B4FF2FF7319409D
:1045D0004FF6FF7303EA02231943018370473EB588
:1045E000044600214FF08040FFF75DFF00220121CB
:1045F0008807FFF78CFFC4EB041001900520ADF88D
:1046000000000020ADF80800ADF8020069464FF048
:10461000804000F013F801218807FFF741FF0121D6
:104620008807FFF731FF012211469007FFF76FFF60
:1046300001218807FFF737FF3EBD000000220288F6
:10464000184B98420ED0184B98420BD0B0F1804FC7
:1046500008D0164B984205D0154B984202D0154B06
:10466000984204D14FF68F731A404B881A43124B6D
:10467000984207D0114B984204D04FF6FF431A409E
:104680000B891A4302804B68C3620B880385054B74
:10469000984202D0044B984201D18B7A03860123C1
:1046A0008382704700000140000401400004004084
:1046B00000080040000C00400010004000140040C2
:1046C0001CB501210820FDF721FE02220D210A4818
:1046D000FDF7C4F94FF40050009000208DF806005B
:1046E0008DF8070002208DF804008DF8050069465A
:1046F0000148FDF76BF91CBD000C02401CB50121FF
:104700000820FDF703FE02220D210A48FDF7A6F955
:104710004FF40050009000208DF806008DF807003F
:104720008DF8040002208DF8050069460148FDF768
:104730004DF91CBD000C024000B585B07020ADF8ED
:1047400000000120ADF802000220ADF80C0042F696
:104750004520029069460448FFF7E2FE082102481E
:10476000FFF730FF05B000BD000800400EB5012185
:104770000420FDF70BFE0020ADF80000ADF80200AC
:1047800045F28A4001900020ADF808008DF80A003B
:1047900069460448FFF752FF01210248FFF783FEF4
:1047A0000EBD00000008004010B5044605488442D4
:1047B00002D00548844203D11021044800F050F88B
:1047C00010BD000000200140002101400000024017
:1047D00010B504460548844202D00548844203D1FE
:1047E0002021044800F03CF810BD000000200140EA
:1047F000002101400000024010B5044605488442F3
:1048000002D00548844203D14021044800F028F832
:1048100010BD0000002001400021014000000240C6
:1048200010B504460948844202D00948844204D1A4
:104830008021084800F014F806E00748844203D1BC
:104840004115064800F00CF810BD000000200140A2
:1048500000210140000002400022014000140240FB
:104860007CB505460C46009403208DF8040000201A
:104870008DF8070069462846FDF7A8F87CBD70B59D
:1048800006460D462C46042C03D13046FFF78CFF1C
:1048900010E0052C03D13046FFF79AFF0AE0062C02
:1048A00003D13046FFF7A8FF04E0072C02D13046C1
:1048B000FFF7B6FF304600F001F870BD10B58AB0C2
:1048C000044600208DF815000890079006900120FE
:1048D0008DF8240000208DF814001C48844208D173
:1048E0001B48006840F4807019490860002004905B
:1048F00016E01848844208D11548006840F400705A
:1049000013490860002004900AE01348844207D14C
:104910000F48006840F480600D4908600020049052
:104920000020029000904FF4803001904FF44070CE
:1049300003906846FBF752FF04A92046FBF76AFF85
:10494000A06840F00100A0600AB010BD0020014046
:1049500044380240002101400022014021B18289F7
:1049600042F40052828104E082894DF6FF731A40BE
:10497000828170471FB50020484908704849087077
:1049800048490870484908704849088048490880E3
:1049900048490870484908704849088048490880D3
:1049A00048490870484908704849088048490880C3
:1049B00048490870484908704849088048490880B3
:1049C00048490870484908704849087048490870C3
:1049D00048490870484908704849087048490870B3
:1049E0004849087048490870ADF80400ADF8060061
:1049F000ADF80800ADF80C000C20ADF80A004FF43B
:104A0000E130009069460420FDF738FE3F48007809
:104A1000022803D169460320FDF730FE3C480078A8
:104A2000022802D16946FDF729FE4FF41640009096
:104A300036480078012803D169460320FDF71EFEA1
:104A400033480078012803D169460220FDF716FE9D
:104A500069460520FDF712FE69460620FDF70EFEA9
:104A60004FF46140009069460020FDF707FE4FF4C7
:104A7000165000902548007818B969460320FDF7C4
:104A8000FDFD2348007818B969460220FDF7F6FDC0
:104A900069460120FDF7F2FD1FBD00009B080020C4
:104AA0009A08002099080020980800208A08002011
:104AB000880800209F0800209E08002092080020FF
:104AC00090080020A3080020A208002086080020EB
:104AD000840800209D0800209C0800208E080020EB
:104AE0008C080020A1080020A0080020A7080020B2
:104AF000A6080020A5080020A4080020AB0800207C
:104B0000AA080020A9080020A80800200A090020FF
:104B10000B09002002460020B1F5007F00D100BF44
:104B200013880B4201D0012000E0002070470000F4
:104B30002DE9FF4705460E460024A14600BFA046CA
:104B4000B08900B100BF2C8A24F44054F08804439B
:104B50002C82AC8941F20C608443B08831890843CF
:104B6000718908430443AC81AC8A24F44074B08951
:104B70000443AC826846FDF729FC2048854202D0F8
:104B80001F48854202D1DDF80C9001E0DDF8089065
:104B9000A88910F4004F08D009EBC90000EB0910F8
:104BA00031684900B0FBF1F707E009EBC90000EB01
:104BB000091031688900B0FBF1F76420B7FBF0F011
:104BC00004012009642101FB1078A88910F4004F2A
:104BD00008D0322000EBC800B0FBF1F000F0070075
:104BE000044308E0322000EB08106421B0FBF1F030
:104BF00000F00F0004432C81BDE8FF870010014046
:104C00000014014001468888C0F308007047000086
:104C100003480078042801D1012070470020FCE7F8
:104C20005414002070B505460E46284600F0BEF923
:104C30000446A4F57F40FF3805D046F4004105F551
:104C4000B26020F81410E0B270BD2DE9F0410546C5
:104C50000E4617461C46012105F56C7000EB44100A
:104C6000817005F56C7000EB4410C66005F56C7042
:104C700000EB4410076105F56C7000EB4410007EFA
:104C800030B9002105F56C7000EB4410017205E0AD
:104C9000022105F56C7000EB441001722146284694
:104CA000FCF765FF0020BDE8F0812DE9F0410546E5
:104CB0000E4617461C46002105F56C7000EB4410AB
:104CC000817005F56C7000EB4410C66005F56C70E2
:104CD00000EB4410076105F56C7000EB4410407E5A
:104CE00028B905F56C7000EB4410017205E0022153
:104CF00005F56C7000EB4410017221462846FCF764
:104D000036FF0020BDE8F0812DE9F04105460C4654
:104D100016461F4602212175012161750021E1829D
:104D20002683618306F08000802805D105F56C702C
:104D300000EB4710017605E0002105F56C7000EBF3
:104D40004710417600231A462146284600F02BF8EA
:104D5000BDE8F08101460122C1F810230020704710
:104D60002DE9F04105460E4617461C46012105F582
:104D70006C7000EB44108170022105F56C7000EB43
:104D80004410017205F56C7000EB4410C66005F527
:104D90006C7000EB4410076121462846FCF7E7FEE3
:104DA0000020BDE8F0812DE9F04180460C46154613
:104DB0001E460127E078012802D0022820D108E011
:104DC00032462946204602F06BFA0220E0700127A5
:104DD00017E0207F0D2805D10120E0700021217708
:104DE00000270CE0207F0B2803D10120E070002772
:104DF00005E0207F0C2802D10120E070032700E0AD
:104E000000BF00BF3846BDE8F0812DE9F0410546FE
:104E10000F4616461C46002105F56C7000EB441049
:104E2000817005F56C7000EB4410C76005F56C707F
:104E300000EB441006612EB9012105F56C7000EB02
:104E40004410417605F56C7000EB4410407E30B99B
:104E5000002105F56C7000EB4410017205E00221A1
:104E600005F56C7000EB4410017221462846FCF7F2
:104E70007EFE0020BDE8F08170B505460E46144662
:104E8000002105F56C7000EB44108170032105F5DD
:104E90006C7000EB4410017205F56C7000EB44106F
:104EA000C660082105F56C7000EB441001612146D5
:104EB0002846FCF75CFEC0B270BD0246022106E047
:104EC000002302F5B26020F81130481CC1B2082955
:104ED000F6DB0020704770B505460C4600202070B8
:104EE0006070A0700120E070012121774021A17144
:104EF000002084F820000121212001552179284635
:104F000000F023F86179284600F01FF8002070BDFA
:104F100001460022C1F810230020704770B50446F6
:104F20000D46052D01D0042D06D1D4F89010486C03
:104F300080470C20207007E0062D05D10C20207042
:104F4000D4F890100868804770BD0246082909DA35
:104F500002F5B26030F81100C0F30E0302F5B26042
:104F600020F81130002070472DE9F04780460C46AC
:104F700016461D46DDE9089746F080012175062199
:104F80006175E58205F47F40B0F5407F03D140F2C2
:104F90000941218301E00021218367833B464A4682
:104FA00021464046FFF7FFFEBDE8F087024600219C
:104FB00000BF0AE002F5B26030F8110010F4004FB3
:104FC00001D108467047481CC1B20829F2DB4FF6F0
:104FD000FF70F7E710B502460B88147823440B8066
:104FE0001378981810BD00002DE9FC4704460D46C3
:104FF00016464FF0000804F588704FF40073002245
:105000002946CDE900062046FFF7AEFF5FEA00091A
:105010001BD10AE004F5887010F808000C4901F86B
:10502000080008F101001FFA80F8B045F2DB04F532
:10503000887305F1500205F13E0105F13400009638
:1050400001F0C2FE074607B1B9464846BDE8FC87F5
:10505000848D02202DE9FC4104460D46164604F5D8
:1050600088704FF4807300222946CDE9000620465F
:10507000FFF77AFF070006D1324604F5887105F183
:10508000220001F03BFF3846BDE8FC812DE9FC41E0
:1050900004460E46154604F588704FF40453012269
:1050A0003146CDE900052046FFF75EFF074638464A
:1050B000BDE8FC812DE9FC4104460E46154604F589
:1050C00088704FF4085301223146CDE9000520468F
:1050D000FFF74AFF07463846BDE8FC812DE9FC474B
:1050E0000446884615461E460A9F04F5887045F416
:1050F000407300224146CDE900072046FFF734FF08
:105100005FEA000905D13A46314604F5887001F09E
:1051100059FF4846BDE8FC872DE9F04104460D469D
:105120002F464FF001080126254890F84500052834
:1051300041D2DFE800F003140420340000BF09224C
:1051400039462046FFF7A2FF40B904F588711D4893
:1051500001F010FF01201A4981F845002CE01948A0
:10516000028939462046FFF7A5FF18B903201449E4
:1051700081F8450020E000231A463946204602F017
:105180005FF8064626B904200D4981F8450005E080
:10519000032E03D104200A4981F845000CE00022C7
:1051A0003946204602F064F820B90020044981F80D
:1051B0004500804600E000BF00BF4046BDE8F081EA
:1051C00040880220DC8802202DE9F04105460C468B
:1051D000264600273B4890F8420030B1032817D0FC
:1051E00004280BD0052867D129E03649096D0868E5
:1051F00080470420334981F8420000BF284603F06D
:1052000088F8012803D103202E4981F8420054E098
:105210002C4890F8403090F846200146284600F08F
:1052200037FD0120284908700520264981F84200F1
:105230002846FCF743FC2349A1F84C003DE02846F2
:10524000FCF73CFC1F49B1F84C10401A1D49B1F85D
:105250004A10884204D303201A4981F842002AE008
:10526000184890F840102846FCF737FC01280CD16C
:105270001548007801281ED10020134908701148F4
:10528000006D41680F48884715E00E4890F84010BF
:105290002846FCF722FC04280DD10A4890F840303B
:1052A00090F8482031462846FFF72EFD18B9032014
:1052B000044981F8420000E000BF00BF3846BDE865
:1052C000F081000040880220C813002070B5044619
:1052D0000D46164890F8400078B1144890F84010F8
:1052E000204602F0A6FD114890F840102046FFF736
:1052F0002CFE00200D4981F840000C4890F8410038
:1053000078B10A4890F84110204602F092FD074813
:1053100090F841102046FFF718FE0020034981F85D
:10532000410000200249087070BD00004088022042
:10533000C81300202DE9FC4707460E4634460025D9
:105340004FF0010906206B4981F8420094F84400AF
:1053500001287DD194F84500012802D166480865EE
:1053600006E094F84500022802D1644861490865C6
:105370000020604981F8420081F8450094F852000D
:1053800081F84800B4F85400A1F8460094F856009B
:10539000A1F84A000846B0F84A000A2802DA0A20B2
:1053A000A1F84A0094F84200032802DC94F8420075
:1053B00000E003208046002552E004F1500000EB9D
:1053C000C500807810F0800F23D004F1500000EB6E
:1053D000C5008078474981F8440004F1500000EB93
:1053E000C50081783846FFF71DFC424981F840002E
:1053F0000846B0F846000321CDE900102120035DE6
:1054000094F820203B4890F84010384601F08EFC7C
:1054100024E004F1500000EBC5008078354981F8A4
:10542000430004F1500000EBC50081783846FFF7D7
:10543000F9FB304981F841000846B0F846000321E5
:10544000CDE900102120035D94F82020294800E0D8
:105450000DE090F84110384601F068FC681CC5B2B8
:105460004545AADB00202649087081463EE094F8B5
:105470004300092803D123A013F070FB32E094F815
:105480004300022803D125A013F068FB2AE094F81A
:105490004300082803D130A013F060FB22E094F809
:1054A0004300072803D134A013F058FB1AE094F806
:1054B00043000B2803D139A013F050FB12E094F8FD
:1054C00043000E2803D13FA013F048FB0AE094F8F4
:1054D0004300102803D144A013F040FB02E04CA08D
:1054E00013F03CFBD4F89010086C80474846BDE8A8
:1054F000FC87000040880220E413002004140020F0
:10550000C8130020487562206973206E6F74207381
:105510007570706F727465642E0D0000436F6D6D51
:10552000756E69636174696F6E7320616E64204388
:10553000444320436F6E74726F6C206465766963B8
:1055400065206973206E6F7420737570706F72744C
:1055500065642E0D000000004D534320646576699C
:105560006365206973206E6F7420737570706F723D
:105570007465642E0D0000005072696E74657220AF
:10558000646576696365206973206E6F7420737536
:1055900070706F727465642E0D000000536D61723F
:1055A0007420436172642064657669636520697361
:1055B000206E6F7420737570706F727465642E0D39
:1055C00000000000566964656F2064657669636554
:1055D00020206973206E6F7420737570706F727401
:1055E00065642E0D00000000417564696F2F5669D7
:1055F00064656F2044657669636573206973206E06
:105600006F7420737570706F727465642E0D000076
:1056100054686520617474616368656420646576AC
:10562000696365206973206E6F7420737570706F85
:10563000727465642E200D002DE9F04106460C467B
:10564000174625466879032802D1024813F086FAE6
:10565000BDE8F081C25E04087047704710B502488B
:1056600013F07CFA10BD0000DD5D040810B503489E
:1056700013F074FA00200249087010BDF85D0408A8
:105680005514002010B502A013F068FA10BD0000F8
:105690000D0A3E5553422046533A44657669636588
:1056A000206E6F7420737570706F727465642E0D48
:1056B0000000000010B504461CB90A4813F04EFA69
:1056C0000EE0012C03D1084813F048FA08E0022C40
:1056D00003D1064813F042FA02E0054813F03EFAFF
:1056E00010BD0000385E04085E5E0408845E040895
:1056F000A95E040870B504462546298903A013F065
:105700002DFA698907A013F029FA70BD0D0A3E55DC
:1057100053422046533A564944203A2025303458C3
:10572000680A00000D0A3E5553422046533A50493C
:1057300044203A2025303458680A000010B5034848
:1057400013F00CFA01200249087010BD175E04081E
:10575000551400207047000010B59AB00446224648
:1057600004A101A803F078FE01A813F0F7F91AB01C
:1057700010BD00000D0A3E5553422046533A4D617C
:105780006E756661637475726572203A2025730ABE
:105790000000000010B502A013F0E0F910BD0000F9
:1057A0000D0A3E5553422046533A4F766572637553
:1057B0007272656E742064657465637465642E0D21
:1057C0000000000010B59AB00446224604A101A8CA
:1057D00003F042FE01A813F0C1F91AB010BD000099
:1057E0000D0A3E5553422046533A50726F6475631A
:1057F00074203A2025730A007047000010B59AB053
:105800000446224604A101A803F026FE01A813F0D5
:10581000A5F91AB010BD00000D0A3E5553422046AE
:10582000533A53657269616C204E756D62657220E2
:105830003A2025730A00000010B5024813F08EF9D3
:1058400010BD00002C5F0408012070472DE9F041D5
:1058500006460C464FF0000800250021A174207F69
:105860000C2878D2DFE800F077060F3D4667789382
:105870009CC2D9F0627904F114013046FFF7FCFABA
:1058800002212177F1E061793046FCF726F90546DF
:10589000012D1FD1207D00F08007608B58B141F2AF
:1058A000883074490880802F02D1032121770CE0D1
:1058B0000521217709E032206E490880802F02D12E
:1058C0000921217701E0072121773046FCF7F6F81E
:1058D000208205E0032D03D10B2121770521A1743E
:1058E000C3E02379A2893046A168FFF739FA042181
:1058F0002177BAE021793046FCF7EFF80546012D13
:1059000001D109212177042D04D1607820700C2168
:1059100021770FE0032D02D10B2121770AE03046D9
:10592000FCF7CCF8218A401A52490988884201D9EB
:105930000B21217799E00121627906F56C7000EB6B
:10594000421041766379A2893046A168FFF75DFA7B
:105950000621217789E087E061793046FCF7BDF8C0
:105960000546012D02D1072121770FE0042D04D136
:10597000607820700C21217708E0022D02D10521EA
:10598000217703E0032D01D10B2121776DE02379ED
:10599000002211463046FFF7E3F90821217764E041
:1059A00021793046FCF799F80546012D04D160783D
:1059B00020700D21217718E0032D02D10B212177D2
:1059C00013E03046FCF77AF8218A401A2949098801
:1059D000884202D90B21217707E0042D05D1607898
:1059E00020700C2121774FF003083EE0617906F525
:1059F0006C7000EB4110407E80F00101627906F589
:105A00006C7000EB421041766379002211463046FB
:105A1000FFF7FBF90A21217727E061793046FCF78F
:105A20005CF80546012D04D1607820700D212177A6
:105A300008E0022D02D10921217703E0032D01D1D5
:105A40000B21217711E0FFE7A07B401CC1B2A173BD
:105A5000022902DC0121217705E00821A174607888
:105A600020704FF0020800E000BF00BF4046BDE8D4
:105A7000F0810000C413002070B592B005460C46BA
:105A80000126A0780A287DD2DFE800F00525345CE5
:105A9000697D9AB7D4DE082221462846FFF7DAFA54
:105AA000C0B994F82910A1710120A070A07900213B
:105AB000CDE90010617900231A46284601F0B0F8BC
:105AC000A0790021CDE90010217900231A4628464B
:105AD00001F0A6F8BBE0122221462846FFF7BAFAE9
