:020000040802F0
:10000000A88D02209D010208211F0208AF1A0208D4
:100010001D1F02087109020819840208000000006F
:100020000000000000000000000000009926020807
:10003000D10A02080000000019220208ED2F020870
:10004000B7010208B7010208B7010208B7010208A8
:10005000B7010208B7010208B7010208B701020898
:10006000B7010208B7010208B7010208B701020888
:10007000B7010208B7010208B7010208B701020878
:10008000B7010208B7010208B7010208B701020868
:10009000B7010208B7010208B7010208B701020858
:1000A000B7010208B7010208B7010208B701020848
:1000B0005D300208B7010208B7010208B701020863
:1000C000B7010208B7010208B7010208B701020828
:1000D000B7010208B7010208B7010208B701020818
:1000E000B7010208B7010208B7010208B701020808
:1000F000B7010208B7010208B7010208B7010208F8
:10010000B7010208B70102086D340208B7010208FE
:10011000B7010208B7010208B7010208B7010208D7
:10012000B7010208B7010208B7010208B7010208C7
:10013000B7010208B7010208B7010208B7010208B7
:10014000B7010208B7010208B7010208B11F02088F
:10015000B7010208B7010208B7010208B701020897
:10016000B7010208B7010208B7010208B701020887
:10017000B7010208C11F0208B7010208B70102084F
:10018000B7010208B7010208DFF80CD000F04EFA00
:100190000048004709370308A88D02200648804719
:1001A00006480047FEE7FEE7FEE7FEE7FEE7FEE75C
:1001B000FEE7FEE7FEE7FEE7F12F020889010208ED
:1001C0002DE9F05F0546002092469B46884606468C
:1001D000814640241BE0284641464746224600F01F
:1001E00060F853465A46C01A914110D3114618463A
:1001F000224600F047F82D1A67EB01084F462246C9
:100200000120002100F03EF817EB00094E41201EAE
:10021000A4F10104DFDC484631462A464346BDE8E6
:10022000F09F30B505462A460B4612F8010B13F82D
:10023000014B08B1A042F8D01CB1002802D06D1CBF
:10024000F1E7284630BD034611F8012B00F8012BD9
:10025000002AF9D11846704730B50B4601460020F8
:100260002022012409E021FA02F59D4205D303FA78
:1002700002F5491B04FA02F52844151EA2F10102F9
:10028000F1DC30BD202A04DB203A00FA02F1002024
:1002900070479140C2F1200320FA03F319439040C4
:1002A0007047202A04DB203A21FA02F0002170472F
:1002B00021FA02F3D040C2F12002914008431946CE
:1002C00070472DE9FE4F804681EA0300C00F0C46BF
:1002D000009021F0004123F00045B8EB0200A94155
:1002E00005D24046214690461C460B46024623F066
:1002F0000040104304D14046214603B0BDE8F08FD2
:10030000270DC7F30A00C3F30A510290401A019067
:10031000402866DAC3F3130040F4801B009892462D
:1003200020B10023D2EB030A63EB0B0B0198594673
:10033000C0F140025046FFF7A5FF06460D46504665
:100340005946019A00F084F910EB0800614100243D
:1003500087EA115284EAE7731A433BD0009A3AB312
:10036000019A012A4FEA075210DC001B61EB0201DF
:100370004FF0004202EA0752CDE90042001C41F56D
:10038000801132462B4600F082F9B6E7001B61EB84
:100390000201001C41F5801300185B412018A2F5F2
:1003A000001747EB030140EAD570B6196D4111E023
:1003B0006D084FEA360645EAC0754FEA0752001B42
:1003C00061EB0201001C41F5801149084FEA300041
:1003D0000019514132462B4603B0BDE8F04F00F002
:1003E00049B90098012240000023D0EB020263EBE0
:1003F000E073009821464FEAE074B8EB000061EB2F
:100400000401E9E783F000435BE781F0004158E72E
:100410002DE9FE4F81EA030404F0004421F000417D
:1004200000944FF0000B23F0004350EA010402D087
:1004300052EA030404D10020014603B0BDE8F08F66
:10044000C3F30A54C1F30A552C44A4F2F3340194C3
:10045000A0FB0254C1F3130141F48011C3F3130351
:1004600043F4801301FB024400FB034E840A970A05
:1004700044EA815447EA8357A4FB076802958D0A32
:1004800005FB07854FEA932C04FB0C542705029DBE
:100490004FEA065847EA1637B5EB08056EEB070C2E
:1004A000870E920E47EA811742EA8312A7FB0201E8
:1004B000B6EB0B0164EB00042B0D43EA0C335E1822
:1004C00044EB1C50DA465146E7FB0201C5F3130426
:1004D0004FEA0B3343EA14534FEA0432019C43EAD8
:1004E0000603A4F10C040294009CCDE900B400F0D2
:1004F000CEF8A2E72DE9F04D81EA030404F0004BA9
:1005000021F0004514464FF0000A23F0004150EA64
:10051000050220D054EA01021DD0C5F30A57024655
:10052000C5F31303C1F31300C1F30A5640F4801559
:1005300043F48013A7EB0608101BD64608F2FD38DB
:1005400073EB050002D308F1010801E092185B414A
:10055000B8F1000F03DA00200146BDE8F08D00205D
:100560004FF48011064684460EE0171B73EB050717
:1005700005D3121B63EB050306434CEA010C490843
:100580004FEA300092185B4150EA0107EDD152EA80
:10059000030012D082EA040083EA0501084303D174
:1005A00000224FF0004308E0101BAB4102D20122B1
:1005B000002302E06FF0010253101AEB06004CEB2F
:1005C000085110EB0A0041EB0B01BDE8F04D00F0C3
:1005D00051B8C1F30A52C1F3130140F2FF3341F4A1
:1005E00080119A4202DA00200146704740F23343FC
:1005F0009A42A2F2334202DC5242FFF752BEFFF7A8
:1006000041BE000030B5002904DB4FF000444042F9
:1006100064EB0101002B04DB4FF00044524264EB19
:100620000303994208BF904230BD0000064C074DBD
:1006300006E0E06840F0010394E8070098471034B2
:10064000AC42F6D3FFF7A4FDE836040808370408E7
:10065000202A06DBCB17203A41FA02F043EAE07386
:1006600006E041FA02F3D040C2F120029140084373
:100670001946704710B5002B08DA401C41F1000103
:1006800092185B411A4301D120F0010010BD2DE901
:10069000F04D92469B4611B1B1FA81F202E0B0FAF8
:1006A00080F220329046FFF7EDFD04460F4640EA07
:1006B0000A0041EA0B0153465A46084303D120463B
:1006C0003946BDE8F08D114653EA010015D0C8F156
:1006D00040025046FFF7E5FD05460E465046594696
:1006E0004246FFF7CFFD084301D0012000E0002083
:1006F000054346EAE0762C4337430A984FEA4453D1
:10070000A0EB08004FEAD4240A304FF0000244EA7C
:1007100047544FEAD72502D500200146D1E701050D
:1007200010196941DDE9084500196941BDE8F04D3E
:10073000A0E770B58D1810F8014B14F0030201D139
:1007400010F8012B231106D110F8013B03E010F83B
:10075000016B01F8016B521EF9D1B3B110F8012BF6
:1007600004F00C048A1A0C2C04D0A2EB841203F1BE
:10077000020308E010F8014BA2EB0422F7E712F89D
:10078000014B01F8014B5B1EF9D5A942D3D30020E0
:1007900070BD000000210A4A11680A4A01EA0201FC
:1007A000D0E9002342EA0302836842EA0302C368F5
:1007B00042EA030242EA0101034AC2F80413704705
:1007C00004230140E030FCFF0020014030B5024628
:1007D000002000235068104C20400D790C6844EA3A
:1007E00005242043506090680C4C2040D1E903540C
:1007F0002C438D682C434D7944EA45042043906096
:10080000D06A20F470000C7D641EE4B2234340EAF9
:100810000350D06230BD0000FFFEFFFCFDF7FFC0BB
:10082000F0B504460D4600200021092D11DDE068D9
:10083000A5F10A0606EB4607072606FA07F18843E4
:10084000A5F10A0606EB460603FA06F10843E06046
:100850000CE0206905EB4507072606FA07F18843F7
:1008600005EB450603FA06F108432061072A0FDA73
:10087000606B561E06EB86071F2606FA07F18843B3
:10088000561E06EB860605FA06F10843606322E071
:100890000D2A0FDA206BD61F06EB86071F2606FAF5
:1008A00007F18843D61F06EB860605FA06F10843D2
:1008B000206310E0E06AA2F10D0606EB86071F2612
:1008C00006FA07F18843A2F10D0606EB860605FA43
:1008D00006F10843E062F0BD70B505460C460748D6
:1008E0000560204600F00EF800BF044800680028AC
:1008F000FBD10021024802F0CCFD70BD081200209F
:10090000000C00403EB504460021184802F0C1FD2D
:1009100000220121154802F0F0FD022C02D10B202B
:10092000019004E0012C02D142F6DF600190052025
:10093000ADF800000020ADF80800ADF802006946EF
:100940000A4802F071FE0121084802F09FFD0121D2
:10095000064802F08FFD01221146044802F0CDFD49
:100960000121024802F095FD3EBD0000000C004050
:1009700000BFFEE71CB50121D12001F04FFC04208F
:10098000009000208DF804008DF8060001208DF8FD
:10099000070002208DF8050069461A4800F0A6FFFE
:1009A000082000906946174800F0A0FF1020009032
:1009B0006946144800F09AFF2020009069461148CB
:1009C00000F094FF4FF40050009069460E4800F08C
:1009D0008DFF0120009069460C4800F087FF02203F
:1009E00000906946094800F081FF042000906946A4
:1009F000074800F07BFF082000906946044800F09B
:100A000075FF1CBD001002400018024000000240AB
:100A1000001C024070B500265A201F4908700025AE
:100A20002BE000241D48006910F0200F01D144F094
:100A300001041A48006910F0100F01D144F00204BB
:100A40001648006910F0080F01D144F0040413485F
:100A5000006910F0040F01D144F008040E4800783A
:100A6000844205D1701CC0B20646022803DB06E0B2
:100A7000094804700026681CC5B2142DD1DB00BFE4
:100A80000548017806A015F0C7F9142D02DB08A06F
:100A900015F0C2F970BD0000F411002000100240F2
:100AA0000D20444950205357203D20253278000026
:100AB00009202A2A2A204449502053572072656170
:100AC00064204572726F72212121202A2A2A000097
:100AD0007047000100E0401E0028FCD17047000074
:100AE0002DE9F04FADF5177D06460FF27819002776
:100AF000412E03D146264FF0500801E04FF6FF7813
:100B000000205B49087049460AA810F048FF59497F
:100B100008700846007800287BD1494656A015F099
:100B20007BF900BF91A90AA811F070F8514908702B
:100B30000846007810B99DF84D0200B986E09DF88E
:100B40004D022E2800D1EDE70DF24D2555A34A4662
:100B500055A102A8009507F061FC9DF84C0210F029
:100B6000100F00D0DEE752A12846FFF75AFB0028FD
:100B70006BD0687AB04202D0687A404565D13C4873
:100B80000078401C3A4908702A460846017849A076
:100B900015F042F936480078402800DB56E0687AC4
:100BA000502805D14E48007840F001004C490870AB
:100BB000687A462805D14A48007840F00200484942
:100BC00008702B480078441E0320B4FBF0F000EBC3
:100BD000800101EBC0005A2101EB40001FFA80FAAE
:100BE0000320B4FBF0F100FB1140C0EB0010C0EBA0
:100BF000C000642101EB400B2CA300225146584653
:100C0000009514F0A4F802A801F0DCFB0746394671
:100C100000E01CE033A015F0FFF8002405E0A4F18B
:100C20003F50007833490855641C202CF7D320240A
:100C300007E0A4F13F5000782F49214401F8200C2F
:100C4000641CBC42F5D318F091FA6BE704E0094844
:100C500001782AA015F0E0F8054800780DF5177D19
:100C6000BDE8F08F303A2F4446493630300000005E
:100C7000BA120020BB1200200D0A3E5553422048F4
:100C8000533A4578706C6F72653A204469726563B7
:100C9000746F7279207363616E6E6564203D2025E8
:100CA000730000002F0000002573257325730000DA
:100CB000444649000D3E5553422048533A4578700A
:100CC0006C6F72653A20666F756E642066696C653C
:100CD0006E616D65203D202532643A257300000069
:100CE0004D0700200A2066696C652073697A653AB1
:100CF0002564000095C30120000049D00D0A3E552F
:100D000053422048533A4578706C6F72653A2043DD
:100D1000616E6E6F74206F70656E20726F6F7420DD
:100D20006469726563746F7279202564202E0D00EA
:100D300001490860704700000C3C024070B5044651
:100D40000A460026092502B909E0012A01D1160246
:100D500005E0022A01D1160201E04FF4407600F0CE
:100D6000F5F80546092D28D11548006820F4407093
:100D70001349086008460068304308600846006868
:100D800020F0F80008600846006844F002010843BB
:100D90000B4908600846006840F48030086000F0A5
:100DA000D5F805460648006820F0020004490860AE
:100DB0000846006820F0F8000860284670BD000072
:100DC000103C024009201349096801F48031B1F553
:100DD000803F01D101201CE00E49096811F0100F7D
:100DE00001D0062015E00B49096811F4807F01D07D
:100DF00002200EE00749096811F0EF0F01D007202B
:100E000007E00449096811F0020F01D0082000E052
:100E1000092070470C3C024010B50446214884422A
:100E200004D202210020FFF789FF39E01E488442E6
:100E300004D202210820FFF781FF31E01B488442E1
:100E400004D202211020FFF779FF29E018488442DC
:100E500004D202211820FFF771FF21E015488442D7
:100E600004D202212020FFF769FF19E012488442D2
:100E700004D202212820FFF761FF11E00F488442CD
:100E800004D202213020FFF759FF09E00C488442C8
:100E900004D202213820FFF751FF01E0002010BDED
:100EA0000120FCE7004000080080000800C00008A6
:100EB0000000010800000208000004080000060805
:100EC000000008080348006840F00040014908603D
:100ED00070470000103C024030B502460C46092520
:100EE00000F034F80546092D19D10E48006820F4A9
:100EF00040700C4908600846006840F400700860C3
:100F00000846006840F001000860146000F01EF818
:100F100005460448006820F00100024908602846A0
:100F200030BD0000103C02400548006810F0004F42
:100F300005D0044802490C3908600348086070472E
:100F4000103C024023016745AB89EFCD08B509206D
:100F50000090FFF737FF009002E0FFF733FF0090AB
:100F60009DF800000128F8D09DF8000008BD0000A1
:100F700099B1102808D14FF02042126E42F00402BD
:100F80004FF020431A661CE00E4A126842F0040239
:100F90004FF02043C3F8802013E0102808D14FF011
:100FA0002042126E084B1A404FF020431A6608E0A8
:100FB000044A1268044B02EA03024FF02043C3F8CC
:100FC00080207047800000A0FBFF0F0010280AD18E
:100FD00018214FF020421166402151664FF0FC313C
:100FE0009166D16610E01821084A11604FF0400167
:100FF0004FF02042C2F884104FF0FC31044A1160D7
:101000004FF02042C2F88C1070470000800000A012
:10101000880000A030B5002100220023446844F07D
:10102000080485682C43C5682C4305692C43456931
:1010300044EA4524856944EA4531C4692468C569A0
:101040006D6844EA0524C5692D8944EA0544C569EB
:101050002D7B44EA0562046A2468056A6D6844EAE7
:101060000524056A2D8944EA0544056A2D7B44EA76
:1010700005630468102C05D14FF020442166A26658
:10108000E36607E0044C21604FF02044C4F8882058
:10109000024C236030BD0000800000A08C0000A046
:1010A00001464FF480708A88521C8A808A88402AC0
:1010B00011D100228A804A88521C4A804A88B2F59F
:1010C000806F08D100224A800A88521C0A800A8850
:1010D000012A00D1400070477FB54FF48070FFF7C0
:1010E00075FF00F0E9F803A800F0A0F99DF80F00E3
:1010F00000909DF80E309DF80D209DF80C1033A047
:1011000014F08AFE9DF80C0001280ED19DF80D0008
:10111000F1280AD19DF80E0038B99DF80F001D285E
:1011200003D133A014F078FE02E036A014F074FE70
:101130000020ADF80400ADF80600ADF8080001236A
:101140003448DDE9011200F0DDF90020314981F871
:1011500021000846007846282BD1084640784D28C3
:1011600027D108468078562823D1084640792D2873
:101170001FD129A014F050FE01232648DDE90112F9
:1011800000F06AF9002410E0012000EB440021493E
:101190000D5C002000EB4400085C00EB052085B2EC
:1011A0001F4820F81450601C84B2B4F5806FEBDB4C
:1011B0000AE016F0DDFA282806DB16F0D9FA28280E
:1011C00002DB18A014F028FE7FBD00000D204E6148
:1011D0006E64466C61736849443D253032582C2555
:1011E0003032582C253032582C253032580000002F
:1011F00020547970653D5333344D4C303147313094
:101200003054000020547970653D556E6B6E6F77D9
:101210000000000084250220205665722E257300F0
:10122000B6CB01200D20546F6F206D75636820626E
:10123000616420626C6F636B2121210003B5602023
:1012400010490870BDF80210BDF8000001EB8020C5
:10125000BDF8041001EB80100B490870BDF80210B6
:10126000BDF8000001EB8020BDF8041001EB8010F8
:10127000000A05490870D0200249087000F006F8FD
:101280000CBD0000000001800000028030B54FF06E
:101290008074402500F08EF9054603E000F08AF9DD
:1012A0000546641E402D01D0002CF7D10CB94FF437
:1012B0008065284630BD000000B58FB001211820A0
:1012C00000F0ACFF0121880300F0F8FF012108467F
:1012D00000F0D4FF0C220E21514800F04FFB0C22ED
:1012E0000F214F4800F04AFB0C2200214C4800F02F
:1012F00045FB0C2201214A4800F040FB0C2207214B
:10130000484800F03BFB0C220821464800F036FB21
:101310000C220921434800F031FB0C220A214148EC
:1013200000F02CFB4CF203000D9002208DF83800E9
:101330008DF8390000208DF83A0001208DF83B002F
:101340000DA9374800F0D2FA4FF4F0600D900DA9C6
:10135000344800F0CBFA0C220B21314800F00EFB90
:101360000C2211462E4800F009FB4FF4C0500D909E
:101370000DA92B4800F0BAFA0C220421284800F0ED
:10138000FDFA0C220521264800F0F8FA30200D90D5
:101390000DA9234800F0AAFA0C220721204800F0EA
:1013A000EDFA4FF400700D900DA91F4800F09EFA61
:1013B0000C2206211A4800F0E1FA40200D9000208E
:1013C0008DF838008DF83A0002208DF839000120A0
:1013D0008DF83B000DA9124800F088FA0420009017
:1013E000032001900290052003904FF48070049038
:1013F00000200590069040200790C002089003202E
:1014000009900A90CDF82CD0CDF830D004A8FFF781
:1014100001FE01210802FFF7ABFD0FB000BD000087
:10142000000C0240001002400018024000219022EF
:10143000074B1A700022074B1A709A03116801704B
:101440000A0A42700A0C82700A0EC27070470000CD
:1014500000000180000002802DE9FF4706461D467E
:10146000002400274FF480784FF04009A24639E06D
:10147000002022490870224908700870BDF8061043
:10148000BDF8040001EB8020BDF8081001EB8010CE
:101490001B490870BDF80610BDF8040001EB802060
:1014A000BDF8081001EB8010000A154908703020C3
:1014B00012490870F80200F5006A002400E0641C7C
:1014C000B4F5805FFBD3002404E04FF000400078C7
:1014D0003055641C5445F8D37F1C6D1E01A8FFF7DE
:1014E000DFFD804615B1B8F5807FC1D0FFF7CEFE95
:1014F000814649EA080004B0BDE8F0870000018099
:10150000000002802DE9FF4706461D460027002403
:101510004FF480784FF04009A2463AE0002023497A
:1015200008702349087008200870BDF80610BDF83F
:10153000040001EB8020BDF8081001EB80101C496D
:101540000870BDF80610BDF8040001EB8020BDF85E
:10155000081001EB8010000A15490870302013496B
:101560000870B80100F1400A002400E0641CB4F5E2
:10157000805FFBD3002404E04FF00040007830553A
:10158000641C5445F8D37F1C6D1E01A8FFF788FD2D
:10159000804615B1B8F5807FC0D0FFF777FE814651
:1015A00049EA080004B0BDE8F087000000000180AF
:1015B00000000280002100207022084B1A70D20621
:1015C000117811F0010F01D0012006E001F0400276
:1015D000402A01D1402000E0002070470000018037
:1015E0002DE9FF4707461C460025A8464FF48079A1
:1015F0004026AA4642E0802026490870002026495D
:1016000008700870BDF80610BDF8040001EB8020DA
:10161000BDF8081001EB80101F490870BDF80610D6
:10162000BDF8040001EB8020BDF8081001EB80102C
:10163000000A194908704FEAC82000F5006A002521
:1016400004E0785D4FF0004108706D1C5545F8D3FB
:1016500010201049087000BF4021104800F0B1F977
:101660000028F9D0FFF712FE0646402E06D108F1F9
:101670000108641E01A8FFF713FD814624B1B9F5E6
:10168000807F01D1402EB6D046EA090004B0BDE803
:10169000F08700000000018000000280000C024082
:1016A0002DE9FF4707461C460025A8464FF48079E0
:1016B0004026AA4643E0802026490870002026499B
:1016C000087008200870BDF80610BDF8040001EB92
:1016D0008020BDF8081001EB80101F490870BDF88C
:1016E0000610BDF8040001EB8020BDF8081001EBE6
:1016F0008010000A184908704FEA881000F1400A6B
:10170000002504E0785D4FF0004108706D1C5545E0
:10171000F8D310200F49087000BF40210F4800F097
:1017200050F90028F9D0FFF7B1FD0646402E06D14A
:1017300008F10108641E01A8FFF7B2FC814624B13C
:10174000B9F5807F01D1402EB5D046EA090004B03A
:10175000BDE8F0870000018000000280000C02401C
:1017600070B5ADF5167D31A5002600203249087010
:10177000294609A810F013F9304908700846007886
:1017800000284AD129462EA014F046FB40E090A93B
:1017900009A810F03BFA294908700846007810B9EA
:1017A0009DF8490200B937E09DF849022E2800D182
:1017B0002EE00DF249242DA32A462DA101A8009464
:1017C00006F02CFE9DF8480210F0100F00D01FE02C
:1017D00029A12046FEF725FDC8B1607A622802D013
:1017E000607A422813D104202449087012480078F6
:1017F000401C11490870214621A014F00DFB01A8DE
:1018000000F0E0FD0646314627A014F005FB00BFBE
:10181000094800780028BAD004E00848017826A0DA
:1018200014F0FAFA30460DF5167D70BD303A2F44AB
:101830004649363030000000BA120020BB120020AA
:101840000D0A3E5553422048533A4669726D7761FE
:1018500072653A204469726563746F7279207363AC
:10186000616E6E6564203D20257300002F0000002E
:101870002573257325730000444636004D0700206C
:101880000D3E5553422048533A4669726D77617256
:10189000653A20666F756E642066696C656E616D71
:1018A00065203D2025730000092066696C65207362
:1018B000697A653A256400000D0A3E555342204876
:1018C000533A4578706C6F72653A2043616E6E6F63
:1018D00074206F70656E20726F6F7420646972651A
:1018E00063746F7279202564202E0D00F0B50A46CE
:1018F00000210023002400BF3DE0012505FA01F38B
:10190000156805EA03049C4234D105684F0003269C
:10191000BE40B543056015794E00B54006683543B5
:1019200005601579012D02D01579022D16D1856833
:101930004F000326BE40B543856055794E00B54043
:10194000866835438560456801268E40B54345600D
:10195000456896798E40B6B235434560C5684F00FC
:101960000326BE40B543C560D5794E00B540C66874
:101970003543C560491C1029BFD3F0BDF0B5002325
:1019800000244D07ED0E02FA05F3CE1000F12005FC
:1019900055F826504E07F70E0F26BE40B543CF1020
:1019A00000F1200646F82750CE1000F1200555F82A
:1019B000265045EA0304CE1000F1200545F82640E4
:1019C000F0BD0246002013690B4201D0012000E067
:1019D0000020704741837047018370470146486982
:1019E000806880B2704708B50146D1F8CC00006825
:1019F00000900098C0F3414008BD024602F29F30BB
:101A0000405C7047024602F5557050F8210070475F
:101A100070B504460E4600250021C4F8101300BF1F
:101A20000BE0002104F5467040F825103C3040F8EA
:101A300025103C304155681CC5B20F2DF1DB082143
:101A4000A4F8B6133146204605F0C4FC204605F044
:101A5000B7F8204604F056FF0121204605F024FD8A
:101A6000204604F0E8FF204605F003F9002070BD91
:101A70000146D1F8100370470146D1F814037047AE
:101A800010B50446204605F084FC002010BD70B55A
:101A900004460D46002104F29F304155113000EB01
:101AA000451041612946204605F022FB70BD00BF6C
:101AB000FEE7000070B5002300210022764C248848
:101AC000B4F5407F7ED1754C2478002C7AD0744CCC
:101AD0002488641C04EB440505EB0414714D2C5D53
:101AE000002CEFD100202DE06D4C248804EB440540
:101AF00005EB04146B4D2C44245C302C0FDB684C3C
:101B0000248804EB440505EB0414664D2C44245C46
:101B1000392C04DC0123C4B22146224611E0604C7A
:101B2000248804EB440505EB04145E4D2C44245C2E
:101B30002CB9441EE4B221462246122001E00023C3
:101B40001220401C1228CFDB002BBFD0002013E056
:101B5000534C248804EB440505EB0414514D2C44EC
:101B6000255C4F4C2488641C04EB440606EB0414EB
:101B70004C4E34442554401C1228E9DB88E0C1BB9C
:101B8000474C248804EB440505EB0414454D2C44D4
:101B9000645C392C2ED1112A18DA3125404C248866
:101BA000641C04EB440606EB04143E4E3555302508
:101BB0003B4C2488641C04EB440606EB0414394EA9
:101BC000264400E066E0541C355527E0112A25D153
:101BD00000200BE03025324C2488641C04EB4406C2
:101BE00006EB04142F4E34442554401C1228F1DB1C
:101BF00014E014E02A4C2488641C04EB440505EB33
:101C00000414284D2C5D641CE5B2254C2488641C0A
:101C100004EB440606EB0414224E355539E0204C03
:101C2000248804EB440505EB04141E4D2C44645C2D
:101C3000392C15D01A4C248804EB440505EB041408
:101C4000184D2C44645C641CE5B2154C2488641C5B
:101C500004EB440606EB0414124E3444655418E0B9
:101C60000F4C248804EB440505EB04140D4D2C4463
:101C7000645C392C0CD13025094C2488641C04EB9D
:101C8000440606EB0414074E344465544C1EE1B27E
:101C900075E700BF70BD00003A0200207007002009
:101CA000300500205C3400202DE9F041054600207D
:101CB0004749087047490870474908704749087004
:101CC0002878022802D02878202803D1012044490E
:101CD000087002E00020424908704FF0000802241A
:101CE0000CE0285D012805D0285D022802D0285D7F
:101CF000032801D14FF00108601CC4B2082CF0DBAE
:101D0000B8F1010F01D1BDE8F08100203049087021
:101D10003049087002242AE0285D30B3285D31493B
:101D20002B4A127888542A480078401C28490870A9
:101D3000002607E0285D2C49895D884200D105E036
:101D4000701CC6B2244800788642F3DB00BF2248EC
:101D50000078864209D1285D24491E4A12788854A9
:101D60001C480078401C1B490870601CC4B2082C39
:101D7000D2DB18480078012817D11C480078174991
:101D8000087017480078012805D119480978405C87
:101D900018490F5C05E0164810490978405C16495F
:101DA0000F5C384606F0B4FA02E000200B490870D8
:101DB0000748007808490870002405E00948005DDC
:101DC00009490855601CC4B2062CF7DB00BF9AE72E
:101DD00068120020691200206A1200206712002099
:101DE0005412002055120020611200205B120020C6
:101DF000AC300408163204089431040810B506F01B
:101E00007FFA10BD2DE9F74F82B00446E400324856
:101E1000005D4B2806D0E10830A014F071F805B041
:101E2000BDE8F08F2C49601C0D5CA01C085C00EB29
:101E30000525E01C085C00EB0525201D11F800902D
:101E4000601D085C00EB09201FFA80F9A01D11F845
:101E500000A0E01D085C00EB0A201FFA80FA57463C
:101E600036E004983844401E00EBC00101EB00113D
:101E7000039800EB411000EB400001901C490198D1
:101E800000EB010800261DE028466D1CA0F13E5025
:101E900090F800B008F806B028466D1CA0F13E503E
:101EA00090F800B008EB060080F801B028466D1CE1
:101EB000A0F13E5090F800B008EB060080F802B0A8
:101EC000F01C86B209EB4900B042DDDC781E87B217
:101ED000002FC6DC00BFA2E7B6C301200D204E6F65
:101EE00020424D502046696C6521203A202564002F
:101EF000009411D010B5044620780549C870607868
:101F00000870A0784870084606F05DFA10BD000021
:101F10007412002010B506F055FA10BD00BFFEE7A0
:101F20007047000070B5002100230F22C47824B34D
:101F3000174C246804F4E064C4F5E064C4F307219A
:101F4000C1F10404E3B20A4144789C40E1B28478D0
:101F5000144021430C07210E0E4C0578615504787E
:101F600004F01F050124AC4005786D114FF0E02608
:101F700006EB8505C5F8004109E0047804F01F046C
:101F80000125A540044C0678761144F8265070BD12
:101F90000CED00E000E400E080E100E002490143D4
:101FA000024A1160704700000000FA050CED00E0E5
:101FB00010B5024803F05CFE10BD000060830220F3
:101FC00010B5024803F054FE10BD00001C7D022035
:101FD00010B50021084600F0C9F8002000F0F2F822
:101FE0000021012000F0C2F8012000F0EBF80021F0
:101FF000022000F0BBF8022000F0E4F800210320EA
:1020000000F0B4F8032000F0DDF80021042000F017
:10201000ADF8042000F0D6F80021052000F0A6F865
:10202000052000F0CFF80021062000F09FF80620E0
:1020300000F0C8F80021072000F098F8072000F011
:10204000C1F80021082000F091F8082000F0BAF84B
:102050000021092000F08AF8092000F0BFF80021D3
:102060000A2000F083F80A2000F0ACF800210B20D1
:1020700000F07CF80B2000F0A5F800210C2000F007
:1020800075F80C2000F09EF800210D2000F06EF88D
:102090000D2000F097F800210E2000F067F80E20C8
:1020A00000F090F800210F2000F060F80F2000F001
:1020B00089F80021102000F059F8102000F082F873
:1020C0000021112000F052F8112000F087F80021C3
:1020D000122000F04BF8122000F074F800211320B9
:1020E00000F044F8132000F06DF80021142000F0F7
:1020F0003DF8142000F066F80021152000F036F8B5
:10210000152000F05FF80021162000F02FF81620AF
:1021100000F058F80021172000F028F8172000F0F0
:1021200051F80021182000F021F8182000F04AF89A
:102130000021192000F01AF8192000F043F80021BE
:102140001A2000F013F81A2000F03CF800211B20A0
:1021500000F00CF81B2000F035F800211C2000F0E6
:1021600005F81C2000F02EF810BD00007CB50446D8
:102170000D46114951F82400012100F04FF80F4895
:1021800030F8140000901DB901208DF8040002E021
:1021900000208DF8040000208DF8060001208DF845
:1021A000070002208DF80500054951F82400694612
:1021B000FFF79CFB7CBD000038300408FC2F0408AE
:1021C00080110020034931F81010034A52F82020F2
:1021D00011837047FC2F040880110020034931F857
:1021E0001010034A52F8202051837047FC2F040836
:1021F00080110020064951F820104969054A32F83B
:1022000010205140024A52F82020516170470000CE
:1022100080110020FC2F04087047000029B1064AF5
:1022200012680243044B1A6004E0034A12688243B6
:10223000014B1A60704700003038024029B1064A4D
:1022400012680243044B1A6004E0034A1268824396
:10225000014B1A60704700005038024029B1064A0D
:1022600012680243044B1A6004E0034A1268824376
:10227000014B1A60704700003438024029B1064A09
:1022800012680243044B1A6004E0034A1268824356
:10229000014B1A60704700003838024029B1064AE5
:1022A00012680243044B1A6004E0034A1268824336
:1022B000014B1A60704700004038024029B1064ABD
:1022C00012680243044B1A6004E0034A1268824316
:1022D000014B1A607047000044380240F0B50021FD
:1022E00000220024022500260223324F3F6807F017
:1022F0000C0121B1042905D0082937D105E02E4F62
:10230000076036E02D4F076033E02A4F3F1F3F68DC
:10231000C7F38056274F3F1F3F6807F03F036EB15A
:10232000264FB7FBF3F7DFF88CC0ACF1040CDCF8F8
:1023300000C0CCF3881C07FB0CF40CE01E4FB7FB6D
:10234000F3F7DFF870C0ACF1040CDCF800C0CCF39C
:10235000881C07FB0CF4174F3F1F3F68C7F301476A
:102360007F1C7D00B4FBF5F7076002E0124F0760A9
:1023700000BF00BF0F4F3F6807F0F0010909104F81
:102380007A5C0768D74047600A4F3F6807F4E0511E
:10239000890A0B4F7A5C4768D7408760054F3F68D2
:1023A00007F46041490B064F7A5C4768D740C76025
:1023B000F0BD0000083802400024F40000127A004A
:1023C000F5110020F8B505460027002000900026F2
:1023D0002F490860012229462E480FF023FA2E4982
:1023E00008700846007850B12A480FF0D9F92A48F9
:1023F0000278294629A013F00FFD701EF8BD30E0C9
:102400006B464FF48042334922480FF008FB2249C3
:102410000870009810B10846007800B126E00098D6
:1024200006440098B0F5804F05D3781C80B207466B
:10243000042800DB0027012004F056FA00240DE0F8
:102440002448015D12480068A0F13F500170104817
:102450000068401C0E490860601C84B200988442E9
:10246000EED31D48FFF704FB0028C9D100BF09487F
:102470000FF096F9002406E004F0FAF8012004F0C9
:1024800033FA601C84B2322CF6DB3046B6E700002B
:1024900044070020F87A0220BB1200200D0A3E55A6
:1024A00053422048533A5265616446696C654672EE
:1024B0006F6D5553423A202573206E6F74206578F6
:1024C0006973742C2072657320636F64653D2564A5
:1024D000200D0000C83402201C7D0220704700003F
:1024E0002DE9F041002700201E4908801E49088080
:1024F0001E48008820B91E4805881E48068803E04B
:102500001D4805881D480688002004E000211C4A5B
:1025100022F81010401C41F288318842F6DB344624
:1025200018E0A0B207F07AFD012812D108F05CFD96
:1025300001280ED108F036FD01280AD138467F1C4B
:102540000F4921F81040791E0D4A32F8110006F0AB
:1025500015FD641EAC42E4DA781E0A490880BDE825
:10256000F081000020050020220500203006002018
:10257000280600202A0600202C0600202E06002017
:102580009C4D0120800700207CB504460D4636494D
:1025900051F82410354A52F8242041EA0200012162
:1025A000FFF73CFE0CB1052C06D1314951F824004F
:1025B0000121FFF783FE05E02D4951F82400012198
:1025C000FFF76CFE2A4951F824000121FFF776FE3F
:1025D000274951F824000121FFF760FE254B13F82D
:1025E0001420254B33F81410244B53F82400FFF724
:1025F000C5F9234B13F81420224B33F81410224B47
:1026000053F82400FFF7BAF900208DF806000120E6
:102610008DF8070002208DF804001C4830F81400E3
:10262000009002208DF80500144951F824006946F5
:10263000FFF75CF902208DF80400154830F814000B
:102640000090114951F824006946FFF74FF91149EC
:1026500051F82400294601F061FA0E4951F824008E
:10266000012101F071F97CBD702F04088C2F040842
:10267000542F0408E02F0408C42F04084811002038
:10268000EE2F0408D22F040864110020A82F04089C
:10269000B62F04082C1100207047000070B5F1A17E
:1026A000F848FDF7D0FDF84800780D2868D2DFE83B
:1026B00000F067070F171F272F373F474F575F005F
:1026C0004A20F0494870412088704E20C87057E079
:1026D0004620EC494870452088704220C8704FE081
:1026E0004D20E8494870412088705220C87047E06A
:1026F0004120E4494870502088705220C8703FE063
:102700004D20E0494870412088705920C87037E05A
:102710004A20DC494870552088704E20C8702FE050
:102720004A20D8494870552088704C20C87027E04E
:102730004120D4494870552088704720C8701FE058
:102740005320D0494870452088705020C87017E049
:102750004F20CC494870432088705420C8700FE047
:102760004E20C84948704F2088705620C87007E036
:102770004420C4494870452088704320C87000BF79
:1027800000BFC248007806F0E5FF0546280ABD49AB
:1027900048718D71BE48007806F0DCFF0546280AB6
:1027A000B8498872CD72BB48007806F0D3FF054661
:1027B000280AB44948738D73B748007806F0CAFFF9
:1027C0000546280AAF4908744D74B448007806F0ED
:1027D000C1FF0546280AAB49C8740D751A21A948DE
:1027E0000FF0BFFA002405E0A649085D15F0FEFED3
:1027F000601CC4B21C2CF7DBA9A1A248FDF723FD85
:10280000002405E09F49085D15F0F0FE601CC4B28D
:102810001C2CF7DBAAA19B48FDF715FD002405E061
:102820009849085D15F0E2FE601CC4B21C2CF7DB71
:10283000ABA19448FDF707FD002405E0B048005D1A
:1028400090490855601CC4B20B2CF7DBAD480088DA
:1028500006F080FF0546280E8A490874280C487443
:10286000280A88744D771A2186480FF07AFA0024D6
:1028700005E08449085D15F0B9FE601CC4B21C2C4B
:10288000F7DBA148007801280ED1A0A17D48FDF713
:10289000DAFC002405E07B49085D15F0A7FE601C0A
:1028A000C4B21C2CF7DB3FE000253BE09FA175483C
:1028B000FDF7C9FC002605240BE02A2000FB05409B
:1028C000A2490A5C3046711CCEB26E490A54601CA3
:1028D000C4B2082CF1DB002407E020223046711C32
:1028E000CEB268490A54601CC4B2052CF5DB15242D
:1028F0000BE02A2000FB054094490A5C3046711C1D
:10290000CEB260490A54601CC4B2272CF1DB00240B
:1029100005E05C49085D15F069FE601CC4B21C2C22
:10292000F7DB6D1C0E2DC1D380A15648FDF78BFC43
:10293000002405E05349085D15F058FE601CC4B240
:102940001C2CF7DB82A14F48FDF77DFC002406E03C
:102950008748015D4B4A201D1154601CC4B2092CEC
:10296000F6DB1A2147480FF0FCF9002405E0454941
:10297000085D15F03BFE601CC4B21C2CF7DB7DA18A
:102980004048FDF760FC002406E08248015D3D4AB6
:10299000E01C1154601CC4B20D2CF6DB1A2139481E
:1029A0000FF0DFF9002405E03649085D15F01EFE42
:1029B000601CC4B21C2CF7DB7748008818B9774834
:1029C000008800284DD076A12E48FDF73CFC00245D
:1029D00006E07B48015D2B4AE01C1154601CC4B228
:1029E000082CF6DB1A2127480FF0BBF9002405E07C
:1029F0002449085D15F0FAFD601CC4B21C2CF7DBFD
:102A000070A12048FDF71FFC63480088092817D2F1
:102A1000DFE800F00517F5F3F2F1F0EFEE00002427
:102A20000CE07048007800EB40006F4901EB40007B
:102A3000015DA01D134A1154601CC4B2062CF0DBCA
:102A400055E100240AE069486649097800EBC100B5
:102A5000015DA01D0B4A1154601CC4B2082CF2DBAE
:102A600045E1D7E17E4A414E2F30312F32303230AE
:102A70002030303A30303A303020202020200D0AEB
:102A80000000000095C201201F0600202006002043
:102A90001E0600202106002022060020230600201A
:102AA0004E616D653A20202020202020202020200B
:102AB00020205365783A202020200D0A00000000D5
:102AC000576172643A2020202020202020202020DE
:102AD00020204167653A202020200D0A00000000D8
:102AE0005374726970204E616D653120202028304A
:102AF000303030302920202020200D0A0000000036
:102B00006CB301202606002004060020202020208F
:102B100020202020204E6F205374726970202020C6
:102B20002020202020200D0A00000000202020204E
:102B30002020202020202020202020202020202095
:102B40002020202020200D0A000000004EAF012090
:102B500028534E3D202020202020202020292020E6
:102B6000202020202020202020200D0A000000000E
:102B7000B6E30120494428202020202020202020C6
:102B800020202020292020202020202020200D0A65
:102B90000000000059B301200606002008060020AE
:102BA0004F5028202020202020202029204C4F5426
:102BB000282020202020202920200D0A00000000AD
:102BC0004EB30120436F6C6F722020202020202004
:102BD00020202020202020202020202020200D0A1E
:102BE000000000007F07002036050020420500207D
:102BF0006CE05AE049E037E025E013E0FFE700240D
:102C00000DE09348007800EB400101EBC0009149D2
:102C10000844015DA01D904A1154601CC4B20B2CE5
:102C2000EFDB64E000240BE089480078C0EBC000D3
:102C30008A490844015DA01D874A1154601CC4B232
:102C4000072CF1DB53E000240BE081480078C0EB57
:102C5000C00083490844015DA01D7F4A1154601CD7
:102C6000C4B2072CF1DB42E000240BE07848007886
:102C700000EB80007B490844015DA01D764A115499
:102C8000601CC4B2052CF1DB31E000240AE0764878
:102C90006F49097800EBC100015DA01D6E4A115417
:102CA000601CC4B2082CF2DB21E000240BE0684871
:102CB0000078C0EBC0006D490844015DA01D664A64
:102CC0001154601CC4B2072CF1DB10E000240BE0AF
:102CD0005F480078C0EBC00065490844015DA01D55
:102CE0005D4A1154601CC4B2072CF1DB00BF00BF69
:102CF0001A2159480FF035F8002405E05649085DBF
:102D000015F074FC601CC4B21C2CF7DB59A15248AE
:102D1000FDF799FA5F48008806286BD2DFE800F0DB
:102D200003152639495900240CE04948007800EB86
:102D30004000594901EB4000015DA01D464A115475
:102D4000601CC4B2062CF0DB54E000240BE04048C9
:102D50000078C0EBC00051490844015DA01D3E4A07
:102D60001154601CC4B2072CF1DB43E000240DE0D9
:102D70003748007800EB400101EBC00048490844A7
:102D8000015DA01D344A1154601CC4B20B2CEFDB52
:102D900030E000240AE043482D49097800EBC100E7
:102DA000015DA01D2C4A1154601CC4B2082CF2DB3A
:102DB00020E000240AE03C482549097800EBC100E6
:102DC000015DA01D244A1154601CC4B2082CF2DB22
:102DD00010E000240BE01E480078C0EBC00024493E
:102DE0000844015DA01D1C4A1154601CC4B2072C8C
:102DF000F1DB00BF00BF1A2117480EF0B2FF00241C
:102E000005E01549085D15F0F1FB601CC4B21C2CEF
:102E1000F7DB1CE025A11048FDF715FA002406E0B9
:102E20002A48015D0C4AE01C1154601CC4B2082CF5
:102E3000F6DB1A2108480EF094FF002405E006494D
:102E4000085D15F0D3FB601CC4B21C2CF7DB70BD11
:102E50007F0700205205002095C201206805002050
:102E600076050020840500208E0500209E050020A8
:102E7000AC050020547572622020202020202020E4
:102E8000202020202020202020202020207E0D0A0D
:102E9000000000000606002036050020BA050020CC
:102EA000C8050020DE050020EE0500204F50282038
:102EB0002020202020202029204C4F542820202072
:102EC00020202029207E0D0A000000004EB30120A2
:102ED0000CB50020019000904048006840F480301C
:102EE0003E49086000BF3D48006800F40030009093
:102EF0000198401C0190009818B90198B0F5A04FB6
:102F0000F1D13648006810F4003F02D00120009053
:102F100001E000200090009801285DD12F4840304A
:102F2000006840F080502D49403108602C4800680E
:102F300040F440402A490860284808300068274982
:102F4000083108600846006840F400400860084600
:102F5000006840F4A05008602248091F0860081F5C
:102F6000006840F08070091F086000BF1B480068BF
:102F700010F0007FFAD01A48006840F480301849F9
:102F8000086000BF1648406810F4803FFAD014482B
:102F9000006840F400301249086000BF10484068E3
:102FA00010F4003FFAD040F205700F4908600B485A
:102FB0000830006820F0030008490831086008461E
:102FC000006840F00200086000BF04480830006854
:102FD00000F00C000828F8D10CBD000000380240B9
:102FE0000070004008484006003C02407047000066
:102FF00010B51548006840F4700013490860134884
:10300000006840F001001149086000200F490831B4
:1030100008600E4800680E4908400C4908600D48D9
:10302000091D0860081F006820F48020091F08603F
:10303000002006490C310860FFF74AFF06480249A4
:103040008039086010BD000088ED00E000380240C3
:10305000FFFFF6FE103000240000020810B5012129
:10306000880700F013FA1520FFF7B8F8C648007873
:1030700060B9C6480088401C80B2C449088019283D
:1030800011DB0020088015F08BFE0CE0BF480088A3
:10309000401C80B2BD490880192804DB15F044FFAC
:1030A0000020BA4908802021B94800F029FD58B114
:1030B000B74800F09DFDC1B2B64802780078401CC8
:1030C000B44B1870B44881542021B44800F018FD66
:1030D00058B1B24800F08CFDC1B2B1480278007816
:1030E000401CAF4B1870AF4881542021AE4800F00F
:1030F00007FD58B1AC4800F07BFDC1B2AB48027887
:103100000078401CA94B1870A9488154A948007840
:1031100000287DD1A8480088A849098888420AD09B
:10312000A6480088A649405C9C498880A34800883E
:10313000401CA2490880A3480078401CC0B2A149A5
:103140000870A1490978884214DDA0480088A04988
:10315000098888420BD09E4800889E49405C92496D
:10316000091D08809A480088401C99490880002061
:10317000944908709848007820BB9848008898497E
:10318000098888420AD0964800889649405C96494A
:10319000088093480088401C914908809348007833
:1031A00093490978884209D0914801780078401CF9
:1031B0008F4A10708F48405C8F49088001208649F3
:1031C000087022E08D4800788D490978884209D03E
:1031D0008B4801780078401C894A10708948405C0F
:1031E0006B4988808848007888490978884209D0E6
:1031F000864801780078401C844A10708448405CFE
:10320000844908800020744908700120694900E061
:1032100006E0087080480068401C7F490860AEE006
:1032200020217148001F00F06BFC60B16E48001F48
:1032300000F0DEFCC2B2794801780078401C774B80
:1032400018707748425420216B48001F00F058FC4A
:1032500060B16948001F00F0CBFCC1B27148027830
:103260000078401C6F4B18706F48815420216948CA
:10327000001F00F045FC60B16648001F00F0B8FC7C
:10328000C1B26A4802780078401C684B18706848E0
:1032900081546848007830B101282ED002284CD0E3
:1032A000032861D15DE064480078A0B963480088D4
:1032B0006349098888420AD0614800886149405CB6
:1032C000614908805E480088401C5D4908800120F3
:1032D0005949087010E05D48007850B15B480078AB
:1032E000401E10F0FF005949087002D11120FEF76E
:1032F00075FF00205049087036E0012054490870DD
:103300005448008800F51670524908800846008825
:1033100042F2107188420FDB4E480088401A4D4936
:10332000088001204C4908804C48008820B14C4856
:103330000088401C4A49088016E020214248001FAE
:1033400000F0DEFB60B14048001F00F051FCC1B24C
:10335000444802780078401C424B1870424881541F
:1033600002E005F0E7FC00BF00BF32480078401CD7
:1033700000F003002F49087000200E490870152046
:10338000FEF720FF10BD00002800002048070020A5
:10339000001001400C07002095B7012000500040AC
:1033A0001607002095BC0120004C004014070020A7
:1033B00095BB0120F5060020040700200607002029
:1033C000000055D0430700207707002000070020A9
:1033D00002070020000054D0F6060020FC06002062
:1033E000FE060020000053D0044800401A070020C9
:1033F0001B07002095BE0120041401400E07002089
:103400000F07002095B801201E0700201F0700208D
:1034100095C00120047800403C07002012070020DE
:1034200095BA01201807002095BD01201C07002037
:1034300095BF0120F4060020F7060020F8060020C2
:10344000FA060020000052D0044400404207002049
:103450001400002020070020220700203E02002048
:103460001E0000201007002095B9012010B503F0C0
:103470001FFA10BD21B1028842F08002028004E0F0
:1034800002884FF67F731A4002807047CA43028257
:10349000704721B1028842F00102028004E00288F4
:1034A0004FF6FE731A400280704708B54FF4A060D3
:1034B000FEF774FD1C208DF8000001208DF801003E
:1034C0008DF802008DF803006846FEF72BFD012100
:1034D0000846FEF7E3FE08BD30B502460020002393
:1034E0000024158A05EA0103958905EA010413B150
:1034F0000CB1012000E0002030BD1AB183890B43DC
:10350000838102E083898B438381704770B50024F7
:1035100000220023058C4FF6EF7635400584028C9F
:103520008388048B48F6FF752C404FF6FF452C40EE
:103530000D884FF6FF7606EA05252C434FF6DF751A
:103540002A408D8906EA05152A434D8806EA0515A5
:103550002A43154DA84202D0144DA8421DD14FF662
:103560007F752A40CD894FF6FF7606EA05152A4376
:103570004FF6BF752A408D8806EA05152A434FF697
:10358000FF352B404FF2FF752B400D8A06EA85056B
:103590002B434D8A06EA85052B43838004838D687F
:1035A0008563028470BD00000000014000040140FA
:1035B0000A460021018B4FF2FF7319404FF6FF734B
:1035C00003EA02231943018370473EB504460021F4
:1035D0004FF08040FFF75DFF002201218807FFF7D1
:1035E0008CFFC4EB041001900520ADF80000002012
:1035F000ADF80800ADF8020069464FF0804000F0D9
:1036000013F801218807FFF741FF01218807FFF721
:1036100031FF012211469007FFF76FFF0121880754
:10362000FFF737FF3EBD000000220288184B98428A
:103630000ED0184B98420BD0B0F1804F08D0164BEB
:10364000984205D0154B984202D0154B984204D1B0
:103650004FF68F731A404B881A43124B984207D08B
:10366000114B984204D04FF6FF431A400B891A437E
:1036700002804B68C3620B880385054B984202D0D9
:10368000044B984201D18B7A0386012383827047D1
:103690000000014000040140000400400008004018
:1036A000000C004000100040001400401CB5012137
:1036B0000820FEF7B3FD02220D210A48FEF75EF94D
:1036C0004FF40050009000208DF806008DF80700A0
:1036D00002208DF804008DF8050069460148FEF7C8
:1036E00005F91CBD000C02401CB501210820FEF7A5
:1036F00095FD02220D210A48FEF740F94FF40050D3
:10370000009000208DF806008DF807008DF8040069
:1037100002208DF8050069460148FEF7E7F81CBD58
:10372000000C024000B585B07020ADF8000001200B
:10373000ADF802000220ADF80C0042F645200290E0
:1037400069460448FFF7E2FE08210248FFF730FF10
:1037500005B000BD000800400EB501210420FEF7B1
:103760009DFD0020ADF80000ADF8020045F28A4052
:1037700001900020ADF808008DF80A006946044861
:10378000FFF752FF01210248FFF783FE0EBD000044
:103790000008004010B504460548844202D00548A0
:1037A000844203D11021044800F050F810BD0000FD
:1037B00000200140002101400000024010B50446F5
:1037C0000548844202D00548844203D120210448A0
:1037D00000F03CF810BD0000002001400021014035
:1037E0000000024010B504460548844202D0054856
:1037F000844203D14021044800F028F810BD0000A5
:1038000000200140002101400000024010B50446A4
:103810000948844202D00948844204D180210848E2
:1038200000F014F806E00748844203D14115064829
:1038300000F00CF810BD0000002001400021014004
:103840000000024000220140001402407CB5054601
:103850000C46009403208DF8040000208DF807002A
:1038600069462846FEF742F87CBD70B506460D460F
:103870002C46042C03D13046FFF78CFF10E0052CBA
:1038800003D13046FFF79AFF0AE0062C03D13046F9
:10389000FFF7A8FF04E0072C02D13046FFF7B6FF80
:1038A000304600F001F870BD10B58AB00446002023
:1038B0008DF8150008900790069001208DF82400DF
:1038C00000208DF814001C48844208D11B48006871
:1038D00040F48070194908600020049016E01848F0
:1038E000844208D11548006840F40070134908600C
:1038F000002004900AE01348844207D10F48006872
:1039000040F480600D49086000200490002002907F
:1039100000904FF4803001904FF44070039068465F
:10392000FCF738FF04A92046FCF750FFA06840F0E0
:103930000100A0600AB010BD0020014044380240E0
:10394000002101400022014021B1828942F400524D
:10395000828104E082894DF6FF731A4082817047AC
:103960001FB5002048490870484908704849087048
:103970004849087048490880484908804849087003
:1039800048490870484908804849088048490870F3
:1039900048490870484908804849088048490870E3
:1039A00048490870484908804849088048490870D3
:1039B00048490870484908704849087048490870E3
:1039C00048490870484908704849087048490870D3
:1039D00048490870ADF80400ADF80600ADF80800DD
:1039E000ADF80C000C20ADF80A004FF4E130009067
:1039F00069460420FEF7C8FD3F48007818B96946BB
:103A00000320FEF7C1FD3D48007818B96946022041
:103A1000FEF7BAFD4FF416400090374800780128B1
:103A200003D169460320FEF7AFFD34480078012832
:103A300003D169460220FEF7A7FD69460520FEF77F
:103A4000A3FD69460620FEF79FFD4FF461400090FC
:103A500069460020FEF798FD4FF416500090264866
:103A60000078072803D169460320FEF78DFD23481F
:103A70000078072803D169460220FEF785FD6946D4
:103A80000120FEF781FD1FBD0F0700200E0700205B
:103A90000D0700200C070020FE060020FC06002079
:103AA000130700201207002006070020040700204B
:103AB0001707002016070020FA060020F80600204D
:103AC0001107002010070020020700200007002037
:103AD00015070020140700201B0700201A070020EC
:103AE00019070020180700201F0700201E070020CC
:103AF0001D0700201C070020770700207807002002
:103B000002460020B1F5007F00D100BF13880B42B0
:103B100001D0012000E00020704700002DE9FF47A0
:103B200005460E460024A14600BFA046B08900B15C
:103B300000BF2C8A24F44054F08804432C82AC89C2
:103B400041F20C608443B08831890843718908438D
:103B50000443AC81AC8A24F44074B0890443AC8241
:103B60006846FEF7BBFB2048854202D01F488542CD
:103B700002D1DDF80C9001E0DDF80890A88910F47E
:103B8000004F08D009EBC90000EB0910316849006B
:103B9000B0FBF1F707E009EBC90000EB0910316851
:103BA0008900B0FBF1F76420B7FBF0F004012009B5
:103BB000642101FB1078A88910F4004F08D032204E
:103BC00000EBC800B0FBF1F000F00700044308E090
:103BD000322000EB08106421B0FBF1F000F00F0080
:103BE00004432C81BDE8FF87001001400014014010
:103BF00001468888C0F30800704700000348007839
:103C0000042801D1012070470020FCE7BC120020ED
:103C100070B505460E46284600F0BEF90446A4F5E8
:103C20007F40FF3805D046F4004105F5B26020F82A
:103C30001410E0B270BD2DE9F04105460E4617465E
:103C40001C46012105F56C7000EB4410817005F5F0
:103C50006C7000EB4410C66005F56C7000EB44100E
:103C6000076105F56C7000EB4410007E30B900214F
:103C700005F56C7000EB4410017205E0022105F5BA
:103C80006C7000EB4410017221462846FDF7FFFEE0
:103C90000020BDE8F0812DE9F04105460E461746AB
:103CA0001C46002105F56C7000EB4410817005F591
:103CB0006C7000EB4410C66005F56C7000EB4410AE
:103CC000076105F56C7000EB4410407E28B905F5DE
:103CD0006C7000EB4410017205E0022105F56C7078
:103CE00000EB4410017221462846FDF7D0FE00206B
:103CF000BDE8F0812DE9F04105460C4616461F4609
:103D000002212175012161750021E18226836183F1
:103D100006F08000802805D105F56C7000EB471097
:103D2000017605E0002105F56C7000EB4710417647
:103D300000231A462146284600F02BF8BDE8F08102
:103D400001460122C1F81023002070472DE9F041FF
:103D500005460E4617461C46012105F56C7000EB22
:103D600044108170022105F56C7000EB4410017263
:103D700005F56C7000EB4410C66005F56C7000EB47
:103D80004410076121462846FDF781FE0020BDE86A
:103D9000F0812DE9F04180460C4615461E4601276C
:103DA000E078012802D0022820D108E032462946D6
:103DB000204602F06BFA0220E070012717E0207F16
:103DC0000D2805D10120E0700021217700270CE0AB
:103DD000207F0B2803D10120E070002705E0207F21
:103DE0000C2802D10120E070032700E000BF00BFD3
:103DF0003846BDE8F0812DE9F04105460F461646EC
:103E00001C46002105F56C7000EB4410817005F52F
:103E10006C7000EB4410C76005F56C7000EB44104B
:103E200006612EB9012105F56C7000EB4410417656
:103E300005F56C7000EB4410407E30B9002105F5AB
:103E40006C7000EB4410017205E0022105F56C7006
:103E500000EB4410017221462846FDF718FE0020B1
:103E6000BDE8F08170B505460E461446002105F503
:103E70006C7000EB44108170032105F56C7000EB51
:103E80004410017205F56C7000EB4410C660082107
:103E900005F56C7000EB4410016121462846FDF7E2
:103EA000F6FDC0B270BD0246022106E0002302F515
:103EB000B26020F81130481CC1B20829F6DB00209E
:103EC000704770B505460C46002020706070A070E9
:103ED0000120E070012121774021A171002084F8A8
:103EE00020000121212001552179284600F023F8E6
:103EF0006179284600F01FF8002070BD01460022BD
:103F0000C1F810230020704770B504460D46052DFA
:103F100001D0042D06D1D4F89010486C80470C20B5
:103F2000207007E0062D05D10C202070D4F89010E9
:103F30000868804770BD0246082909DA02F5B260B8
:103F400030F81100C0F30E0302F5B26020F8113012
:103F5000002070472DE9F04780460C4616461D4666
:103F6000DDE9089746F08001217506216175E5823B
:103F700005F47F40B0F5407F03D140F20941218331
:103F800001E00021218367833B464A4621464046A3
:103F9000FFF7FFFEBDE8F0870246002100BF0AE000
:103FA00002F5B26030F8110010F4004F01D108465C
:103FB0007047481CC1B20829F2DB4FF6FF70F7E7E3
:103FC00010B502460B88147823440B801378981898
:103FD00010BD00002DE9FC4704460D4616464FF083
:103FE000000804F588704FF4007300222946CDE9DB
:103FF00000062046FFF7AEFF5FEA00091BD10AE08A
:1040000004F5887010F808000C4901F8080008F160
:1040100001001FFA80F8B045F2DB04F5887305F162
:10402000500205F13E0105F13400009601F0C2FE98
:10403000074607B1B9464846BDE8FC87C8320220AA
:104040002DE9FC4104460D46164604F588704FF4F0
:10405000807300222946CDE900062046FFF77AFF4B
:10406000070006D1324604F5887105F1220001F0FF
:104070003BFF3846BDE8FC812DE9FC4104460E4675
:10408000154604F588704FF4045301223146CDE9FA
:1040900000052046FFF75EFF07463846BDE8FC8175
:1040A0002DE9FC4104460E46154604F588704FF490
:1040B000085301223146CDE900052046FFF74AFFAB
:1040C00007463846BDE8FC812DE9FC470446884692
:1040D00015461E460A9F04F5887045F44073002279
:1040E0004146CDE900072046FFF734FF5FEA0009AB
:1040F00005D13A46314604F5887001F059FF48462B
:10410000BDE8FC872DE9F04104460D462F464FF0EF
:1041100001080126254890F84500052841D2DFE82E
:1041200000F003140420340000BF09223946204661
:10413000FFF7A2FF40B904F588711D4801F010FF98
:1041400001201A4981F845002CE0194802893946B6
:104150002046FFF7A5FF18B90320144981F8450050
:1041600020E000231A463946204602F05FF8064652
:1041700026B904200D4981F8450005E0032E03D13E
:1041800004200A4981F845000CE000223946204607
:1041900002F064F820B90020044981F84500804607
:1041A00000E000BF00BF4046BDE8F081842D022042
:1041B000202E02202DE9F04105460C462646002718
:1041C0003B4890F8420030B1032817D004280BD0A8
:1041D000052867D129E03649096D08688047042021
:1041E000334981F8420000BF284603F088F80128CF
:1041F00003D103202E4981F8420054E02C4890F866
:10420000403090F846200146284600F037FD012056
:10421000284908700520264981F842002846FDF704
:10422000DDFB2349A1F84C003DE02846FDF7D6FB15
:104230001F49B1F84C10401A1D49B1F84A10884284
:1042400004D303201A4981F842002AE0184890F864
:1042500040102846FDF7D1FB01280CD11548007805
:1042600001281ED10020134908701148006D4168D3
:104270000F48884715E00E4890F840102846FDF793
:10428000BCFB04280DD10A4890F8403090F8482033
:1042900031462846FFF72EFD18B90320044981F85E
:1042A000420000E000BF00BF3846BDE8F0810000DA
:1042B000842D02203012002070B504460D461648A9
:1042C00090F8400078B1144890F84010204602F071
:1042D000A6FD114890F840102046FFF72CFE002064
:1042E0000D4981F840000C4890F8410078B10A4827
:1042F00090F84110204602F092FD074890F84110D6
:104300002046FFF718FE0020034981F841000020F5
:104310000249087070BD0000842D02203012002078
:104320002DE9FC4707460E46344600254FF00109AB
:1043300006206B4981F8420094F8440001287DD1A1
:1043400094F84500012802D16648086506E094F813
:104350004500022802D1644861490865002060498F
:1043600081F8420081F8450094F8520081F8480035
:10437000B4F85400A1F8460094F85600A1F84A0099
:104380000846B0F84A000A2802DA0A20A1F84A00D2
:1043900094F84200032802DC94F8420000E0032075
:1043A0008046002552E004F1500000EBC500807803
:1043B00010F0800F23D004F1500000EBC50080788E
:1043C000474981F8440004F1500000EBC5008178B2
:1043D0003846FFF71DFC424981F840000846B0F816
:1043E00046000321CDE900102120035D94F8202030
:1043F0003B4890F84010384601F08EFC24E004F170
:10440000500000EBC5008078354981F8430004F185
:10441000500000EBC50081783846FFF7F9FB3049C2
:1044200081F841000846B0F846000321CDE90010AC
:104430002120035D94F82020294800E00DE090F849
:104440004110384601F068FC681CC5B24545AADB3E
:1044500000202649087081463EE094F84300092870
:1044600003D123A011F0D8FC32E094F843000228D5
:1044700003D125A011F0D0FC2AE094F843000828CD
:1044800003D130A011F0C8FC22E094F843000728C3
:1044900003D134A011F0C0FC1AE094F843000B28BB
:1044A00003D139A011F0B8FC12E094F843000E28B3
:1044B00003D13FA011F0B0FC0AE094F843001028AB
:1044C00003D144A011F0A8FC02E04CA011F0A4FC20
:1044D000D4F89010086C80474846BDE8FC8700007F
:1044E000842D02204C1200206C120020301200207B
:1044F000487562206973206E6F7420737570706FD9
:10450000727465642E0D0000436F6D6D756E696386
:104510006174696F6E7320616E642043444320436D
:104520006F6E74726F6C2064657669636520697361
:10453000206E6F7420737570706F727465642E0DC9
:10454000000000004D53432064657669636520696F
:1045500073206E6F7420737570706F727465642E43
:104560000D0000005072696E746572206465766992
:104570006365206973206E6F7420737570706F723D
:104580007465642E0D000000536D617274204361E8
:10459000726420646576696365206973206E6F7448
:1045A00020737570706F727465642E0D00000000CA
:1045B000566964656F206465766963652020697358
:1045C000206E6F7420737570706F727465642E0D39
:1045D00000000000417564696F2F566964656F20A3
:1045E00044657669636573206973206E6F74207308
:1045F0007570706F727465642E0D000054686520CC
:1046000061747461636865642064657669636520BC
:104610006973206E6F7420737570706F7274656447
:104620002E200D002DE9F04106460C461746254682
:104630006879032802D1024811F0EEFBBDE8F08151
:10464000EE1304087047704710B5024811F0E4FB00
:1046500010BD00000913040810B5034811F0DCFB7D
:1046600000200249087010BD24130408BD12002068
:1046700010B502A011F0D0FB10BD00000D0A3E5590
:1046800053422046533A446576696365206E6F74E1
:1046900020737570706F727465642E0D00000000D9
:1046A00010B504461CB90A4811F0B6FB0EE0012C07
:1046B00003D1084811F0B0FB08E0022C03D10648F2
:1046C00011F0AAFB02E0054811F0A6FB10BD0000A6
:1046D000641304088A130408B0130408D5130408EB
:1046E00070B504462546298903A011F095FB698918
:1046F00007A011F091FB70BD0D0A3E5553422046B4
:10470000533A564944203A2025303458680A00006C
:104710000D0A3E5553422046533A504944203A2010
:1047200025303458680A000010B5034811F074FBB6
:1047300001200249087010BD43130408BD12002077
:104740007047000010B59AB00446224604A101A8A3
:1047500003F064FE01A811F05FFB1AB010BD000069
:104760000D0A3E5553422046533A4D616E756661BF
:10477000637475726572203A2025730A0000000088
:1047800010B502A011F048FB10BD00000D0A3E5507
:1047900053422046533A4F76657263757272656E66
:1047A000742064657465637465642E0D00000000F8
:1047B00010B59AB00446224604A101A803F02EFECB
:1047C00001A811F029FB1AB010BD00000D0A3E55DA
:1047D00053422046533A50726F64756374203A20F6
:1047E00025730A007047000010B59AB004462246AF
:1047F00004A101A803F012FE01A811F00DFB1AB0EC
:1048000010BD00000D0A3E5553422046533A5365F1
:104810007269616C204E756D626572203A20257355
:104820000A00000010B5024811F0F6FA10BD0000B1
:1048300058140408012070472DE9F04106460C4643
:104840004FF0000800250021A174207F0C2878D2A9
:10485000DFE800F077060F3D466778939CC2D9F0F9
:10486000627904F114013046FFF7FCFA0221217746
:10487000F1E061793046FDF7C0F80546012D1FD102
:10488000207D00F08007608B58B141F28830744978
:104890000880802F02D1032121770CE005212177A8
:1048A00009E032206E490880802F02D1092121774A
:1048B00001E0072121773046FDF790F8208205E0DE
:1048C000032D03D10B2121770521A174C3E02379A6
:1048D000A2893046A168FFF739FA04212177BAE0AE
:1048E00021793046FDF789F80546012D01D10921CE
:1048F0002177042D04D1607820700C2121770FE0FE
:10490000032D02D10B2121770AE03046FDF766F82E
:10491000218A401A52490988884201D90B212177FE
:1049200099E00121627906F56C7000EB4210417646
:104930006379A2893046A168FFF75DFA06212177E5
:1049400089E087E061793046FDF757F80546012D8B
:1049500002D1072121770FE0042D04D16078207067
:104960000C21217708E0022D02D10521217703E0F7
:10497000032D01D10B2121776DE02379002211460F
:104980003046FFF7E3F90821217764E021793046CA
:10499000FDF733F80546012D04D1607820700D2114
:1049A000217718E0032D02D10B21217713E0304647
:1049B000FDF714F8218A401A29490988884202D94A
:1049C0000B21217707E0042D05D1607820700C21A0
:1049D00021774FF003083EE0617906F56C7000EB3B
:1049E0004110407E80F00101627906F56C7000EBA9
:1049F000421041766379002211463046FFF7FBF9F9
:104A00000A21217727E061793046FCF7F6FF054659
:104A1000012D04D1607820700D21217708E0022D4E
:104A200002D10921217703E0032D01D10B21217748
:104A300011E0FFE7A07B401CC1B2A173022902DC98
:104A40000121217705E00821A174607820704FF0E2
:104A5000020800E000BF00BF4046BDE8F081000052
:104A60002C12002070B592B005460C460126A078A5
:104A70000A287DD2DFE800F00525345C697D9AB70D
:104A8000D4DE082221462846FFF7DAFAC0B994F8A6
:104A90002910A1710120A070A0790021CDE900109A
:104AA000617900231A46284601F0B0F8A079002168
:104AB000CDE90010217900231A46284601F0A6F816
:104AC000BBE0122221462846FFF7BAFA38B9D4F8DB
:104AD0009000C16904F1220088470220A070ACE078
:104AE00001222146284601F07BFB00BB022001F099
:104AF000FBFE012004F10204A077D4F88E10086AAE
:104B0000804703202070002000900190A27FA178B0
:104B10000346284601F07AF8002000900190A27F19
:104B2000A4F1020461790346284601F06FF884E09D
:104B3000092221462846FFF74DFA28B9E08EB0F544
:104B4000806F01DC0420A07077E0E28E21462846C9
:104B5000FFF740FA58B9D4F8900004F1500204F17C
:104B60003E01436A04F1340098470520A07064E0D8
:104B700062E094F8300088B1FF20009094F8302073
:104B800002AB21462846FFF79FFA70B9D4F890008F
:104B9000816A02A888470620A07006E0D4F8900039
:104BA000816A28A088470620A07046E094F831006A
:104BB00088B1FF20009094F8312002AB21462846AE
:104BC000FFF782FA70B9D4F89000C16A02A888474A
:104BD0000720A07006E0D4F89000C16A19A08847A9
:104BE0000720A07029E094F8320088B1FF200090DF
:104BF00094F8322002AB21462846FFF765FA70B9D7
:104C0000D4F89000016B02A888470820A07006E045
:104C1000D4F89000016B0BA088470820A0700CE02E
:104C200094F839202146284601F0EDFA08B9092008
:104C3000A07002E0002600E000BF00BF304612B0C6
:104C400070BD00004E2F41002DE9F04106460F4691
:104C500014461D46DDF8188021463046FFF731F92D
:104C6000C4F88C50C4F8908039463046FCF7D0FE2A
:104C7000D4F8901008688047BDE8F0812DE9F04134
:104C800005460E4617461C46012105F56C7000EBE3
:104C90004410817005F56C7000EB4410C66005F59A
:104CA0006C7000EB4410076105F56C7000EB44106C
:104CB000007E30B9002105F56C7000EB44100172E4
:104CC00005E0022105F56C7000EB4410017205F55A
:104CD0006C7000EB4410007E80F0010105F56C70F3
:104CE00000EB4410017621462846FCF7D0FE002058
:104CF000BDE8F0812DE9F04105460E461446012736
:104D000014B1012C12D108E010480378C278314662
:104D10002846FEF7EFFF074609E00C484378827803
:104D200031462846FEF7E6FF074600E000BF00BF19
:104D300007480068401C06490860084600680428C7
:104D400000D904273846BDE8F08100006C2E02200F
:104D50008812002010B5024600200023014C237069
:104D600010BD00005C2E02202DE9F04105460F46E3
:104D7000002601242846FCF77BFE20B31548017865
:104D80002846FCF73FFE06460D2E01D002241CE00B
:104D9000114800681149884216D10F4840681049EF
:104DA0004968884211D10C48007B08B900240CE006
:104DB0000948007B012801D1012406E00648007B58
:104DC000022802D1022400E002240648C4732046CF
:104DD000BDE8F0816C2E02204C2E02205553425328
:104DE0002C2E02205C2E0220012812D10D490978B8
:104DF000491C0C4A1170114609780A2905DA062166
:104E0000094A11700121D1700AE00A21064A117085
:104E100006E0022803D10A21034A117000E000BF16
:104E200070470000901200205C2E022070B50546ED
:104E30000C46A1212175FE2161750021E1822183AB
:104E4000012161830123034A21462846FEF7A1FF81
:104E500070BD0000742E02202DE9F04781460F46F8
:104E60003E46012503244FF000084846FCF700FEAB
:104E7000002878D0554800780B2875D2DFE800F07C
:104E800006A10D44556692797E339000484600F0A5
:104E9000A9FA02204D49087094E039464846FFF7C8
:104EA000C5FF0546BDB94A48007A494981F848001E
:104EB000084690F8480000280ADD4648007838B9CE
:104EC000012044490870D6F89010086C804779E0BA
:104ED00003203E490870032D04D103203B4948704C
:104EE000092008706EE07379002239464846FEF7C3
:104EF00001FF05463DB90020354981F84800334897
:104F00004078324908705DE0484600F0B5FD04463F
:104F10003CB904202D49087000202F490870002555
:104F200002E02046FFF760FF4CE0484600F0C6FC78
:104F300004463CB905202549087000202649087020
:104F4000002502E02046FFF74FFF3BE0484600F017
:104F5000CDFB04464CB908201C49087000201E49AE
:104F60000870002504E02EE02BE02046FFF73CFF10
:104F700028E03946484600F031F823E0D6F8901092
:104F8000C86B804700F0FF08B8F1000F03D108207C
:104F90000E49087003E0B8F1010F00D1062511E0B9
:104FA00004250FE0484600F0F7FC04462CB90748FA
:104FB000407806490870002502E02046FFF714FFFC
:104FC00000E000BF00BF2846BDE8F0875C2E02204D
:104FD0006C2E0220A4120020901200202DE9F04730
:104FE0008046894600244046FCF742FD00287DD0DB
:104FF000F248007909287AD2DFE800F079051568CF
:10500000CEFDFCFBFA00EE4843781F22ED494046F6
:10501000FEF741FE0120E949487102200871002095
:10502000E9490870C6E1E64841784046FCF7E5FCEE
:105030000446012C26D10020E44908600220DF4903
:105040004871E048007B00F08007DE488068A8B126
:10505000DC488068DE490860D8488068DD4908601F
:1050600008460068DC490860802F03D10320D3493B
:1050700008712AE00420D149087126E00520CF49B3
:10508000087122E0022C04D1CC484079CB49087148
:105090001BE0042C06D10120D04908700820C74924
:1050A000087112E0032C10D1C7480078401CC64993
:1050B000087008460078032804DAC0484079BF49E0
:1050C000087102E00220BD49C87373E1BC48017851
:1050D0004046FCF792FC0446012C03D0B7484079C7
:1050E00003283AD00020B949086001E063E160E19B
:1050F0000320B2494871B2488088B549096888429E
:1051000016D2AF4803788288B24801684046FEF75D
:1051100092FDAB488088AE490968081AAC4908601E
:10512000A7488088AB4909680844AA49086032E06A
:10513000A748006818B90520A04908712BE0A048CD
:105140000378A348008882B2A24801684046FEF76F
:1051500072FD00209E4908601DE0042C08D100204B
:105160009E4908700720954908710520487112E092
:10517000032C10D194480078401C934908700846CD
:105180000078032804DA8D4840798C49087102E0E0
:1051900002208A49C8730DE1894841784046FCF7EE
:1051A0002CFC0446012C43D10020884908600420CF
:1051B000824948718248C08885490968884222D25C
:1051C0007F484378C288834801684046FEF763FD04
:1051D00080480068804908607948C0887D4909682E
:1051E00008447C4908607648C0887949096803E02A
:1051F000CDE0B2E07CE059E0081A75490860002073
:105200007149087051E07248006818B905206B496F
:1052100008714AE06A4843786D48008882B26D4858
:1052200001684046FEF737FD0020694908603CE010
:10523000022C1CD1674800686749096888420DD074
:105240005F484378C288C088DFF888C1DCF800C0B6
:10525000ACEB00014046FEF71EFD26E058484378BF
:10526000C2885C4801684046FEF715FD1DE0042C2D
:1052700008D10120594908700820504908710520BB
:10528000487112E0032C10D14F480078401C4E4961
:10529000087008460078032804DA484840794749EE
:1052A000087102E002204549C87383E005204349A4
:1052B00048714B4888603F2088810C2604E000201C
:1052C00047498855701EC6B2002EF8D100204449C7
:1052D00008703B48037839483F2281684046FEF712
:1052E000AAFC06203549087100203749087061E0A2
:1052F000334801784046FCF780FB0446012C0FD16F
:1053000000203249086005202C4948710846807801
:10531000087049464046FFF727FD2849C8731BE03F
:10532000042C06D100202D4908700720234908715C
:1053300012E0032C10D124480078401C2249087048
:1053400008460078032804DA1C4840791B49087194
:1053500002E002201949C8732CE000224946404669
:10536000FFF7C8FC054665B91C480078022803D140
:1053700008201249087109E0104840790F49087166
:1053800004E0042D02D102200C49C87312E001226E
:1053900049464046FFF7AEFC054625B90748407927
:1053A0000649087104E0042D02D102200349C873A4
:1053B00000E000BF00BFBDE8F08700005C2E0220C7
:1053C0006C2E02202C2E02208C120020881200202D
:1053D000781200207C12002080120020841200200D
:1053E0004C2E022010B504462046FCF741FB48B184
:1053F00007480849086008484860002048730120B1
:105400000649C8700020064908600649087010BDAA
:10541000555342432C2E0220504030205C2E022057
:10542000881200209012002070B504460D461048E6
:10543000407860B10E484178204601F0F0FC0C48FD
:1054400041782046FEF777FD00200949487008485A
:10545000007860B106480178204601F0E0FC04487D
:1054600001782046FEF767FD00200149087070BDF5
:105470006C2E02207CB506460D462C4694F843005F
:10548000082856D194F84500502852D194F852007B
:1054900010F0800F07D094F852004649C870B4F855
:1054A0005400888006E094F8520042498870B4F8AD
:1054B0005400C88094F85A0010F0800F07D094F878
:1054C0005A003C49C870B4F85C00888006E094F843
:1054D0005A0038498870B4F85C00C8803548817833
:1054E0003046FEF795FB334948700846C178304690
:1054F000FEF78EFB2F4908700846C0880221CDE9CF
:1055000000102120035D94F820202A48417830467D
:1055100000F002FC274880880221CDE900102120FC
:10552000035D94F8202023480178304600F0F4FB16
:105530003EE094F84300092803D11FA010F06CFC52
:1055400032E094F84300022803D121A010F064FC5B
:105550002AE094F84300032803D12CA010F05CFC4F
:1055600022E094F84300072803D130A010F054FC47
:105570001AE094F843000B2803D135A010F04CFC3E
:1055800012E094F843000E2803D13BA010F044FC35
:105590000AE094F84300102803D140A010F03CFC2E
:1055A00002E048A010F038FCD4F89010086C804756
:1055B00000207CBD6C2E0220487562206973206E2D
:1055C0006F7420737570706F727465642E0D0000B7
:1055D000436F6D6D756E69636174696F6E73206181
:1055E0006E642043444320436F6E74726F6C20647A
:1055F0006576696365206973206E6F7420737570BA
:10560000706F727465642E0D0000000048494420DC
:10561000646576696365206973206E6F74207375A5
:1056200070706F727465642E0D0000005072696EA8
:1056300074657220646576696365206973206E6F96
:105640007420737570706F727465642E0D000000A5
:10565000536D61727420436172642064657669637E
:1056600065206973206E6F7420737570706F72742B
:1056700065642E0D00000000566964656F20646546
:105680007669636520206973206E6F74207375706E
:10569000706F727465642E0D0000000041756469BE
:1056A0006F2F566964656F20446576696365732062
:1056B0006973206E6F7420737570706F7274656497
:1056C0002E0D000054686520617474616368656420
:1056D00020646576696365206973206E6F7420733A
:1056E0007570706F727465642E200D0070B505467C
:1056F00003262846FCF7BCF9002855D02B48C07873
:10570000012802D002284DD127E03F202849886097
:10571000802008730A208873264824498860052061
:1057200088700F2405E0002121480F300155601ECC
:10573000C4B2002CF7D11A201D49C8733F211C4860
:105740004174C174012019490871072008700320B1
:10575000C8730220C870032625E01448C07B80B9B6
:105760001448807810F0800F03D00120124908738C
:1057700002E000201049087301200C49C87000267F
:105780000FE00A48C07B012803D10849C8700126F0
:1057900007E00648C07B022803D101200349C870F6
:1057A000022600E000BF00BF304670BD5C2E022024
:1057B0002C2E0220C82E0220B82E0220FFB581B068
:1057C00007460E461D460320394908703846FCF747
:1057D0004FF9002867D03748C078012802D0022846
:1057E0005FD139E0344885608020334908730A204E
:1057F0008873304886600F2405E000212E480F3062
:105800000155601EC4B2002CF7D128202A49C87364
:105810009DF80F10284841749DF80E1081749DF872
:105820000D10C1749DF80C100175C5F34F20009048
:105830009DF80110204881759DF80010C175012068
:105840001C490871072008700320C8730220C87023
:1058500003201749087025E01648C07B50B9384628
:10586000FCF706F930B101201249C8700020104938
:10587000087015E00F48C07B012807D13846FCF7B7
:10588000F7F818B101200B49C87009E00948C07B3E
:10589000022805D101200749C87002200449087078
:1058A00000E000BF00BF0248007805B0F0BD000076
:1058B000AF1200205C2E02202C2E022070B505466F
:1058C00003262846FCF7D4F800285AD02E48C07882
:1058D000012802D0022852D123E008202B498860F9
:1058E000802008730A20887329482749886004208B
:1058F00088700F2405E0002124480F300155601EF8
:10590000C4B2002CF7D125202049C87301201E49BC
:105910000871072008700320C8730220C87003268E
:105920002EE01948C07BC8B9194800781949C870D9
:105930001748407888701648807848701448C078B6
:10594000087013488179134841721148C079114990
:10595000087201200C49C87000260FE00A48C07B7D
:10596000012803D10849C870012607E00648C07B1A
:10597000022803D101200449C870022600E000BFBC
:1059800000BF304670BD00005C2E02202C2E02208D
:10599000C82E0220B82E022070B5054603262846E0
:1059A000FCF766F800285DD02F48C078012802D0A7
:1059B000022855D12BE03F202C49886080200873B5
:1059C0000A2088732A4828498860084680784870E9
:1059D000062088700F2405E0002124480F3001556F
:1059E000601EC4B2002CF7D103202049C8730021E7
:1059F0001E4801743F21C17401201B490871072012
:105A000008700320C8730220C870032629E01648D6
:105A1000C07BA0B9164801781648C1711448417876
:105A20001448817112488178124841711048C07839
:105A30001049087101200C49C87000260FE00A487F
:105A4000C07B012803D10849C870012607E0064839
:105A5000C07B022803D101200349C870022600E060
:105A600000BF00BF304670BD5C2E02202C2E0220ED
:105A7000C82E0220B82E022070B5054603262846FF
:105A8000FBF7F6FF002846D02448C078012802D052
:105A900002283ED124E000202149886008730620B6
:105AA000887320481D4988603F20888103208870C2
:105AB0000F2405E000211A480F300155601EC4B2C2
:105AC000002CF7D100201649C87301201349087132
:105AD000072008700320C8730220C870032619E04D
