:020000040802F0
:10000000981C01209D01020865200208491702087A
:100010006120020835090208D17C020800000000B6
:10002000000000000000000000000000B12A0208EB
:10003000810A020800000000A5220208D12B020854
:10004000B7010208B7010208B7010208B7010208A8
:10005000B7010208B7010208B7010208B701020898
:10006000B7010208B7010208B7010208B701020888
:10007000B7010208B7010208B7010208B701020878
:10008000B7010208B7010208B7010208B701020868
:10009000B7010208B7010208B7010208B701020858
:1000A000B7010208B7010208B7010208B701020848
:1000B000412C0208B7010208B7010208B701020883
:1000C000B7010208B7010208B7010208B701020828
:1000D000B7010208B7010208B7010208B701020818
:1000E000B7010208B7010208B7010208B701020808
:1000F000B7010208B7010208B7010208B7010208F8
:10010000B7010208B7010208C52F0208B7010208AB
:10011000B7010208B7010208B7010208B7010208D7
:10012000B7010208B7010208B7010208B7010208C7
:10013000B7010208B7010208B7010208B7010208B7
:10014000B7010208B7010208B7010208F52002084A
:1001500039090208B7010208B7010208B70102080D
:10016000B7010208B7010208B7010208B701020887
:10017000B701020805210208B7010208B701020809
:10018000B7010208B7010208DFF80CD000F014FA3A
:1001900000480047E1A40208981C01200648804757
:1001A00006480047FEE7FEE7FEE7FEE7FEE7FEE75C
:1001B000FEE7FEE7FEE7FEE7D52B0208890102080D
:1001C00030B50B46014600202022012409E021FA27
:1001D00002F59D4205D303FA02F5491B04FA02F524
:1001E0002844151EA2F10102F1DC30BD2DE9F05FBB
:1001F0000546002092469B46884606468146402496
:100200001BE0284641464746224600F0F6F9534691
:100210005A46C01A914110D311461846224600F0A2
:10022000DDF92D1A67EB01084F4622460120002117
:1002300000F0D4F917EB00094E41201EA4F101048F
:10024000DFDC484631462A464346BDE8F09F2DE9AB
:10025000FE4F804681EA0300C00F0C46009021F05B
:10026000004123F00045B8EB0200A94105D2404609
:10027000214690461C460B46024623F000401043A0
:1002800004D14046214603B0BDE8F08F270DC7F3E7
:100290000A00C3F30A510290401A0190402866DA1E
:1002A000C3F3130040F4801B0098924620B1002352
:1002B000D2EB030A63EB0B0B01985946C0F14002E5
:1002C000504600F08BF906460D4650465946019AB5
:1002D00000F0A3F910EB08006141002487EA1152F5
:1002E00084EAE7731A433BD0009A3AB3019A012A91
:1002F0004FEA075210DC001B61EB02014FF0004295
:1003000002EA0752CDE90042001C41F58011324655
:100310002B4600F0A1F9B6E7001B61EB0201001CBF
:1003200041F5801300185B412018A2F5001747EB38
:10033000030140EAD570B6196D4111E06D084FEA2E
:10034000360645EAC0754FEA0752001B61EB020111
:10035000001C41F5801149084FEA30000019514155
:1003600032462B4603B0BDE8F04F00F068B9009864
:10037000012240000023D0EB020263EBE0730098FF
:1003800021464FEAE074B8EB000061EB0401E9E7B5
:1003900083F000435BE781F0004158E72DE9FE4F11
:1003A00081EA030404F0004421F0004100944FF07E
:1003B000000B23F0004350EA010402D052EA030488
:1003C00004D10020014603B0BDE8F08FC3F30A5406
:1003D000C1F30A552C44A4F2F3340194A0FB025457
:1003E000C1F3130141F48011C3F3130343F48013E9
:1003F00001FB024400FB034E840A970A44EA81543D
:1004000047EA8357A4FB076802958D0A05FB078519
:100410004FEA932C04FB0C542705029D4FEA065823
:1004200047EA1637B5EB08056EEB070C870E920E00
:1004300047EA811742EA8312A7FB0201B6EB0B01E0
:1004400064EB00042B0D43EA0C335E1844EB1C50A4
:10045000DA465146E7FB0201C5F313044FEA0B33BA
:1004600043EA14534FEA0432019C43EA0603A4F121
:100470000C040294009CCDE900B400F0EDF8A2E772
:100480002DE9F04D81EA030404F0004B21F0004512
:1004900014464FF0000A23F0004150EA050220D034
:1004A00054EA01021DD0C5F30A570246C5F31303EF
:1004B000C1F31300C1F30A5640F4801543F48013CE
:1004C000A7EB0608101BD64608F2FD3873EB0500B3
:1004D00002D308F1010801E092185B41B8F1000F66
:1004E00003DA00200146BDE8F08D00204FF48011B2
:1004F000064684460EE0171B73EB050705D3121B57
:1005000063EB050306434CEA010C49084FEA30004F
:1005100092185B4150EA0107EDD152EA030012D074
:1005200082EA040083EA0501084303D100224FF068
:10053000004308E0101BAB4102D20122002302E07D
:100540006FF0010253101AEB06004CEB085110EB50
:100550000A0041EB0B01BDE8F04D00F070B8C1F3AB
:100560000A52C1F3130140F2FF3341F480119A4261
:1005700002DA00200146704740F233439A42A2F269
:10058000334202DC524200F038B800F027B80000D5
:1005900030B5002904DB4FF00044404264EB010118
:1005A000002B04DB4FF00044524264EB03039942FA
:1005B00008BF904230BD0000064C074D06E0E068E1
:1005C00040F0010394E8070098471034AC42F6D39A
:1005D000FFF7DEFD14E5020834E50208202A04DBFB
:1005E000203A00FA02F1002070479140C2F1200346
:1005F00020FA03F3194390407047202A04DB203A85
:1006000021FA02F00021704721FA02F3D040C2F132
:1006100020029140084319467047202A06DBCB1779
:10062000203A41FA02F043EAE07306E041FA02F3AD
:10063000D040C2F12002914008431946704710B5DE
:10064000002B08DA401C41F1000192185B411A436B
:1006500001D120F0010010BD2DE9F04D92469B46DE
:1006600011B1B1FA81F202E0B0FA80F22032904684
:10067000FFF7B4FF04460F4640EA0A0041EA0B01C7
:1006800053465A46084303D120463946BDE8F08D0B
:10069000114653EA010015D0C8F140025046FFF759
:1006A000ACFF05460E46504659464246FFF796FFB8
:1006B000084301D0012000E00020054346EAE0762F
:1006C0002C4337430A984FEA4453A0EB08004FEA03
:1006D000D4240A304FF0000244EA47544FEAD725A9
:1006E00002D500200146D1E7010510196941DDE975
:1006F000084500196941BDE8F04DA0E770B501EB70
:10070000020410F8015B15F0070301D110F8013B5A
:100710002A1106D110F8012B03E010F8016B01F843
:10072000016B5B1EF9D12B0705D40023521E0FD499
:1007300001F8013BFAE710F8013B02F10202A1EBDC
:10074000030303E013F8015B01F8015B521EF9D5C6
:10075000A142D6D3002070BD00210A4A11680A4A7E
:1007600001EA0201D0E9002342EA0302836842EA77
:100770000302C36842EA030242EA0101034AC2F8E3
:100780000413704704230140E030FCFF00200140C7
:1007900030B50246002000235068104C20400D79EF
:1007A0000C6844EA05242043506090680C4C2040BB
:1007B000D1E903542C438D682C434D7944EA450418
:1007C00020439060D06A20F470000C7D641EE4B277
:1007D000234340EA0350D06230BD0000FFFEFFFC1F
:1007E000FDF7FFC0F0B504460D4600200021092D9D
:1007F00011DDE068A5F10A0606EB4607072606FAB2
:1008000007F18843A5F10A0606EB460603FA06F14E
:100810000843E0600CE0206905EB4507072606FA6F
:1008200007F1884305EB450603FA06F1084320610A
:10083000072A0FDA606B561E06EB86071F2606FA9C
:1008400007F18843561E06EB860605FA06F10843B3
:10085000606322E00D2A0FDA206BD61F06EB8607B5
:100860001F2606FA07F18843D61F06EB860605FA0F
:1008700006F10843206310E0E06AA2F10D0606EBE2
:1008800086071F2606FA07F18843A2F10D0606EB3C
:10089000860605FA06F10843E062F0BD70B505462C
:1008A0000C4607480560204600F00EF800BF0448DB
:1008B00000680028FBD10021024802F096FB70BDC1
:1008C00010030020000C00403EB5044600211848EB
:1008D00002F08BFB00220121154802F0BAFB022C2A
:1008E00002D10B20019004E0012C02D142F6DF601E
:1008F00001900520ADF800000020ADF80800ADF82B
:10090000020069460A4802F0DBFB0121084802F0B8
:1009100069FB0121064802F059FB012211460448F7
:1009200002F097FB0121024802F05FFB3EBD000090
:10093000000C004000BFFEE710B50D4800680D49EF
:10094000084214D008460A490831086001200A49C3
:100950000870002210210648843000F020F80021A1
:100960000348843000F010F804A00AF0F1FF10BD35
:100970000464024000080020B20100200D20444D14
:10098000413220495251000021B1026842F0010277
:10099000026003E0026822F001020260704710B5B5
:1009A00011F0800F09D022B1436943F08003436105
:1009B00003E0436923F08003436180290BD02AB10F
:1009C000036801F01E042343036004E0036801F0A0
:1009D0001E04A343036010BD1CB50121D92001F002
:1009E00063FC8020009000208DF804008DF8060044
:1009F00001208DF8070002208DF8050069461B488C
:100A000000F0BCFD4FF4805000906946184800F09B
:100A1000B5FD4FF4005000906946154800F0AEFD5A
:100A20004FF4804000906946114800F0A7FD08206F
:100A3000009069460F4800F0A1FD01200090694632
:100A40000D4800F09BFD0220009069460A4800F026
:100A500095FD042000906946084800F08FFD0820AD
:100A600000906946054800F089FD1CBD000C02405D
:100A7000001802400010024000000240001C02402A
:100A80007047000100E0401E0028FCD170470000C4
:100A9000F0B5ADF5177D044631A600270020334997
:100AA000087031460AA808F036FE31490870084639
:100AB000007800284BD131462EA00AF049FF00BF34
:100AC00091A90AA808F05EFF294908700846007835
:100AD00010B99DF84D0200B938E09DF84D022E285E
:100AE00000D1EDE70DF24D252DA332462DA102A830
:100AF000009507F0EFF89DF84C0210F0100F00D0B1
:100B0000DEE7214628460CF0F5F9F0B117480078E9
:100B1000401C164908702A460846017823A00AF0AE
:100B200017FF12480078402800DB0FE002A801F010
:100B3000CDFC0746502C01D0462C02D10CF07AFE99
:100B400003E0422C01D10CF06BFFB9E704E0084848
:100B5000017821A00AF0FCFE0DF5177DF0BD000024
:100B6000303A2F4446493630300000006001002002
:100B7000610100200D0A3E5553422048533A457802
:100B8000706C6F72653A204469726563746F727934
:100B9000207363616E6E6564203D20257300000044
:100BA0002F00000025732573257300000D0A3E55A4
:100BB00053422048533A4578706C6F72653A20660C
:100BC0006F756E642066696C656E616D65203D2091
:100BD0002532643A257300000D0A3E5553422048E1
:100BE000533A4578706C6F72653A2043616E6E6F50
:100BF00074206F70656E20726F6F74206469726507
:100C000063746F7279202564202E0A0010B50246A5
:100C100000200023102A03D14FF02044636E0DE022
:100C2000B2F5807F02D1094C236807E0B2F5805FFE
:100C300002D1074C236801E0064C236803EA010453
:100C40008C4201D0002000E0012010BD840000A0F3
:100C5000A40000A0580100A099B1102808D14FF0BD
:100C60002042126E42F004024FF020431A661CE04C
:100C70000E4A126842F004024FF02043C3F880206D
:100C800013E0102808D14FF02042126E084B1A4092
:100C90004FF020431A6608E0044A1268044B02EA47
:100CA00003024FF02043C3F880207047800000A06B
:100CB000FBFF0F0010280AD118214FF020421166C7
:100CC000402151664FF0FC319166D16610E0182149
:100CD000084A11604FF040014FF02042C2F88410E2
:100CE0004FF0FC31044A11604FF02042C2F88C10E2
:100CF00070470000800000A0880000A030B50021EF
:100D000000220023446844F0080485682C43C56829
:100D10002C4305692C43456944EA4524856944EA26
:100D20004531C4692468C5696D6844EA0524C5690C
:100D30002D8944EA0544C5692D7B44EA0562046AAD
:100D40002468056A6D6844EA0524056A2D8944EA29
:100D50000544056A2D7B44EA05630468102C05D11F
:100D60004FF020442166A266E36607E0044C216050
:100D70004FF02044C4F88820024C236030BD0000AE
:100D8000800000A08C0000A001464FF480708A888B
:100D9000521C8A808A88402A11D100228A804A887F
:100DA000521C4A804A88B2F5806F08D100224A80DE
:100DB0000A88521C0A800A88012A00D14000704724
:100DC0007FB54FF48070FFF775FF00F0E9F803A8D6
:100DD00000F0A0F99DF80F0000909DF80E309DF8EE
:100DE0000D209DF80C1033A00AF0B2FD9DF80C0008
:100DF00001280ED19DF80D00F1280AD19DF80E00B2
:100E000038B99DF80F001D2803D133A00AF0A0FDCA
:100E100002E036A00AF09CFD0020ADF80400ADF819
:100E20000600ADF8080001233448DDE9011200F0A6
:100E3000DDF90020314981F8210008460078462874
:100E40002BD1084640784D2827D10846807856286F
:100E500023D1084640792D281FD129A00AF078FD1A
:100E600001232648DDE9011200F06AF9002410E0B0
:100E7000012000EB440021490D5C002000EB440000
:100E8000085C00EB052085B21F4820F81450601C58
:100E900084B2B4F5806FEBDB0AE00BF04BFA282844
:100EA00006DB0BF047FA282802DB18A00AF050FDF9
:100EB0007FBD00000D204E616E64466C6173684911
:100EC000443D253032582C253032582C25303258AC
:100ED0002C2530325800000020547970653D533382
:100EE000344D4C303147313030540000205479704B
:100EF000653D556E6B6E6F770000000030FF00207F
:100F0000205665722E257300744F00200D20546FFB
:100F10006F206D7563682062616420626C6F636B23
:100F20002121210003B5602010490870BDF802108E
:100F3000BDF8000001EB8020BDF8041001EB80102B
:100F40000B490870BDF80210BDF8000001EB8020CD
:100F5000BDF8041001EB8010000A05490870D0208C
:100F60000249087000F006F80CBD00000000018086
:100F70000000028030B54FF08074402500F08EF9FB
:100F8000054603E000F08AF90546641E402D01D0B5
:100F9000002CF7D10CB94FF48065284630BD000015
:100FA00000B58FB00121182001F07EF901218803DE
:100FB00001F0CAF90121084601F0A6F90C220E2120
:100FC000514800F023FB0C220F214F4800F01EFB7C
:100FD0000C2200214C4800F019FB0C2201214A4848
:100FE00000F014FB0C220721484800F00FFB0C22F4
:100FF0000821464800F00AFB0C220921434800F072
:1010000005FB0C220A21414800F000FB4CF20300D2
:101010000D9002208DF838008DF8390000208DF8F1
:101020003A0001208DF83B000DA9374800F0A6FAE0
:101030004FF4F0600D900DA9344800F09FFA0C2297
:101040000B21314800F0E2FA0C2211462E4800F044
:10105000DDFA4FF4C0500D900DA92B4800F08EFA28
:101060000C220421284800F0D1FA0C220521264840
:1010700000F0CCFA30200D900DA9234800F07EFA44
:101080000C220721204800F0C1FA4FF400700D90A7
:101090000DA91F4800F072FA0C2206211A4800F030
:1010A000B5FA40200D9000208DF838008DF83A00F8
:1010B00002208DF8390001208DF83B000DA912485F
:1010C00000F05CFA042000900320019002900520BB
:1010D00003904FF48070049000200590069040200B
:1010E0000790C0020890032009900A90CDF82CD0F8
:1010F000CDF830D004A8FFF701FE01210802FFF768
:10110000ABFD0FB000BD0000000C0240001002401B
:101110000018024000219022074B1A700022074B52
:101120001A709A03116801700A0A42700A0C8270E0
:101130000A0EC270704700000000018000000280AB
:101140002DE9FF4706461D46002400274FF480780E
:101150004FF04009A24639E0002022490870224998
:1011600008700870BDF80610BDF8040001EB80207F
:10117000BDF8081001EB80101B490870BDF806107F
:10118000BDF8040001EB8020BDF8081001EB8010D1
:10119000000A15490870302012490870F80200F55D
:1011A000006A002400E0641CB4F5805FFBD30024D7
:1011B00004E04FF0004000783055641C5445F8D3EB
:1011C0007F1C6D1E01A8FFF7DFFD804615B1B8F545
:1011D000807FC1D0FFF7CEFE814649EA080004B007
:1011E000BDE8F08700000180000002802DE9FF4784
:1011F00006461D46002700244FF480784FF0400932
:10120000A2463AE0002023490870234908700820CC
:101210000870BDF80610BDF8040001EB8020BDF891
:10122000081001EB80101C490870BDF80610BDF8CD
:10123000040001EB8020BDF8081001EB8010000ACB
:1012400015490870302013490870B80100F1400AB0
:10125000002400E0641CB4F5805FFBD3002404E0AC
:101260004FF0004000783055641C5445F8D37F1C83
:101270006D1E01A8FFF788FD804615B1B8F5807F87
:10128000C0D0FFF777FE814649EA080004B0BDE808
:10129000F087000000000180000002800021002093
:1012A0007022084B1A70D206117811F0010F01D08C
:1012B000012006E001F04002402A01D1402000E078
:1012C00000207047000001802DE9FF4707461C46BB
:1012D0000025A8464FF480794026AA4642E08020A7
:1012E000264908700020264908700870BDF80610CD
:1012F000BDF8040001EB8020BDF8081001EB801060
:101300001F490870BDF80610BDF8040001EB8020ED
:10131000BDF8081001EB8010000A194908704FEA67
:10132000C82000F5006A002504E0785D4FF0004118
:1013300008706D1C5545F8D310201049087000BF87
:101340004021104800F085F90028F9D0FFF712FE7F
:101350000646402E06D108F10108641E01A8FFF7D9
:1013600013FD814624B1B9F5807F01D1402EB6D05E
:1013700046EA090004B0BDE8F087000000000180E3
:1013800000000280000C02402DE9FF4707461C4682
:101390000025A8464FF480794026AA4643E08020E5
:1013A0002649087000202649087008200870BDF8FA
:1013B0000610BDF8040001EB8020BDF8081001EB19
:1013C00080101F490870BDF80610BDF8040001EB3D
:1013D0008020BDF8081001EB8010000A1849087041
:1013E0004FEA881000F1400A002504E0785D4FF0D4
:1013F000004108706D1C5545F8D310200F49087046
:1014000000BF40210F4800F024F90028F9D0FFF771
:10141000B1FD0646402E06D108F10108641E01A860
:10142000FFF7B2FC814624B1B9F5807F01D1402E8F
:10143000B5D046EA090004B0BDE8F087000001809D
:1014400000000280000C02400021D0E900231A4372
:1014500083685B1E42EA4312C36842EA4321014AA1
:1014600011607047500100A070B5002100220023D8
:101470000024D0E901563543C66835430669354333
:101480004669354386693543C6693543066A35433F
:10149000466A45EA060105683DB94FF020460568F1
:1014A00006EB8505C5F840110EE0D0E90756354337
:1014B000466A45EA0603294D2B604FF02046056831
:1014C00006EB8505C5F84011056835BB856A2D68B2
:1014D0006D1E866A7668761E45EA0616856AAD68D0
:1014E0006D1E46EA0526856AED686D1E46EA0536DC
:1014F000856A2D8A6D1E46EA0546856AAD8A6D1E8F
:1015000046EA0556856A2D7E6D1E46EA0562134D34
:101510000835066845F826201FE0856A2D686D1E8F
:10152000866A7668761E45EA0616856AAD686D1E7F
:1015300046EA0526856A2D8A6D1E46EA0542856AB9
:10154000ED686D1E2E03856AAD8A6D1E46EA055450
:10155000034D2C60066845F8262070BD400100A0B0
:10156000480100A00449096841EA40014FF02042C7
:10157000C2F8541170470000540100A0F0B50A46AB
:1015800000210023002400BF3DE0012505FA01F3FE
:10159000156805EA03049C4234D105684F00032610
:1015A000BE40B543056015794E00B5400668354329
:1015B00005601579012D02D01579022D16D18568A7
:1015C0004F000326BE40B543856055794E00B540B7
:1015D000866835438560456801268E40B543456081
:1015E000456896798E40B6B235434560C5684F0070
:1015F0000326BE40B543C560D5794E00B540C668E8
:101600003543C560491C1029BFD3F0BDF0B5002398
:1016100000244D07ED0E02FA05F3CE1000F120056F
:1016200055F826504E07F70E0F26BE40B543CF1093
:1016300000F1200646F82750CE1000F1200555F89D
:10164000265045EA0304CE1000F1200545F8264057
:10165000F0BD0246002013690B4201D0012000E0DA
:101660000020704741837047018370470AB10183AE
:1016700000E04183704701464869806880B2704746
:1016800008B50146D1F8CC00006800900098C0F37E
:10169000414008BD024602F29F30405C704702465E
:1016A00002F5557050F82100704770B504460E469B
:1016B00000250021C4F8101300BF0BE0002104F541
:1016C000467040F825103C3040F825103C3041551C
:1016D000681CC5B20F2DF1DB0821A4F8B613314602
:1016E000204605F0D1FA204604F0C4FE204604F05E
:1016F00063FD0121204605F031FB204604F0F5FD95
:10170000204604F010FF002070BD0146D1F8100300
:1017100070470146D1F81403704710B504462046BF
:1017200005F091FA002010BD70B504460D46002169
:1017300004F29F304155113000EB451041612946BC
:10174000204605F02FF970BD00BFFEE72DE9F041FE
:101750000546002047490870474908704749087006
:10176000474908702878022802D02878202803D119
:1017700001204449087002E00020424908704FF0FF
:10178000000802240CE0285D012805D0285D02280D
:1017900002D0285D032801D14FF00108601CC4B2BB
:1017A000082CF0DBB8F1010F01D1BDE8F081002079
:1017B000304908703049087002242AE0285D30B3AF
:1017C000285D31492B4A127888542A480078401CF9
:1017D00028490870002607E0285D2C49895D884269
:1017E00000D105E0701CC6B2244800788642F3DBC5
:1017F00000BF22480078864209D1285D24491E4A4C
:10180000127888541C480078401C1B490870601CE2
:10181000C4B2082CD2DB18480078012817D11C4824
:1018200000781749087017480078012805D1194831
:101830000978405C18490F5C05E0164810490978A2
:10184000405C16490F5C384606F0D6F902E00020ED
:101850000B4908700748007808490870002405E023
:101860000948005D09490855601CC4B2062CF7DB25
:1018700000BF9AE77003002071030020720300206C
:101880006F0300205C0300205D030020690300203B
:101890006303002014E302087EE40208FCE302086C
:1018A00010B506F0A1F910BD1CB5012140F2E710FA
:1018B00000F0FAFC02208DF805008DF804000020ED
:1018C0008DF806008DF807000E2208214748FFF723
:1018D0009DFE0E2209214548FFF798FE4FF4407007
:1018E000009069464148FFF749FE0E220A21404810
:1018F000FFF78CFE4FF48060009069463C48FFF78C
:101900003DFE0E2206213B48FFF780FE0E220721F6
:101910003848FFF77BFE0E220B213648FFF776FE94
:101920000E220A213348FFF771FE4FF44C600090FD
:1019300069463048FFF722FE0E2209212E48FFF7A4
:1019400065FE0E220A212C48FFF760FE0E220B21B5
:101950002948FFF75BFE0E220C212748FFF756FEB1
:101960000E220D212448FFF751FE0E221146224877
:10197000FFF74CFE0E220F211F48FFF747FE0E22F5
:1019800008211D48FFF742FE4FF47F400090694652
:101990001948FFF7F3FD0E2200211848FFF736FE25
:1019A0000E2201211548FFF731FE0E2202211348B5
:1019B000FFF72CFE0E2204211048FFF727FE0E220F
:1019C00005210E48FFF722FE0E2209210B48FFF7E2
:1019D0001DFE0E220A210948FFF718FE40F237606B
:1019E000009069460548FFF7C9FD1CBD0004024090
:1019F0000014024000180240001C02400020024077
:101A000010B5044624B910210448FFF72BFE03E06B
:101A100010210248FFF728FE10BD0000000C024014
:101A20002DE9F0410146C1F30745C1F30726CFB2C6
:101A3000002430E04FF4487C04FB0CFC0CEB4C0C15
:101A4000ACF140524FF4487C04FB0CFC0CEB4C0C0A
:101A5000DFF84C800CEB0803002015E01D5403EB6D
:101A6000000C8CF8016003EB000C8CF8027015542C
:101A700002EB000C8CF8016002EB000C8CF8027099
:101A800000F1030C1FFA8CF0B0F5166FE6DB04F1E1
:101A9000010C1FFA8CF4B4F5F07FCBDBBDE8F081CC
:101AA000009411D01CB50121082000F0FDFB10208E
:101AB000009002208DF8050001208DF80400002020
:101AC0008DF806008DF8070069460448FFF756FDBB
:101AD00001221021014800F003F81CBD000C024057
:101AE00070B504460D461646324629462046FFF795
:101AF000BDFD70BD00B58FB0FFF7D4FF0020FFF72C
:101B00007FFF0120FFF77CFF0121880600F01CFC0D
:101B10000121C80500F0C8FBFFF7C6FE00F0A8FED3
:101B2000002000900190029003900C900D900E9078
:101B300004220721902000F0BDFC002000F0A8FC4A
:101B4000012000F0B1FC00BF3D2000F081FC002826
:101B5000FAD009200490012005901D200690032052
:101B6000079040F23D30089040F2E310099040F2B7
:101B70000F400A9040F219200B90684600F0FCF8E4
:101B80000FB000BD00B591B01E20019040F23D3075
:101B900002900420039040F2E3100490012005908D
:101BA000FF20069000200790089009900A904FF4BB
:101BB00080600B9005200C9040F663100E90C01EC4
:101BC0000F904FF4F070109013480D904FF4C060D8
:101BD0000B9007200C9001A9104800F09CF94FF0E1
:101BE00050400D9007200C904FF4C0600B9001A95D
:101BF0000A48803800F08FF9012000F017FA01211F
:101C0000064800F07DF9012000F010FA012000F0F4
:101C1000A1F811B000BD0000009411D0046901408A
:101C200020B94FF05041034A116002E00249014AD5
:101C300011607047B8010020009411D02DE9F04FD9
:101C400089469246C000DFF8DCB000F1010E1BF8B7
:101C50000E2000F1020E1BF80EB00BEB0222DFF893
:101C6000C4B000F1030E1BF80EB00BEB0222DFF83C
:101C7000B4B000F1040E1BF80E7000F1050E1BF855
:101C80000EB00BEB0727DFF89CB000F1060E1BF837
:101C90000EC000F1070E1BF80EB00BEB0C2CE0464B
:101CA0003AE00AEB080BABF1010B0BEBCB0E0EEBA2
:101CB0000B1B09EB4B1B0BEB4B06A6F14055DFF85A
:101CC00068B006EB0B04002120E09346521CDFF8BD
:101CD0005CE01BF80E3063546B549346521C1BF8A7
:101CE0000E3004EB010B8BF8013005EB010B8BF888
:101CF00001309346521C1BF80E3004EB010B8BF89D
:101D0000023005EB010B8BF80230C91C07EB470BC7
:101D10008B45DAD8A8F10108B8F1000FC1D1BDE8B0
:101D2000F08F000074470020009411D0000060D0B4
:101D300030B10749096841F00101054A116005E029
:101D40000349096821F00101014A11607047000050
:101D50001868014030B10749096841F48031054AEB
:101D6000116005E00349096821F48031014A1160DE
:101D70007047000018680140F0B5002100220023E0
:101D80000024002500265B4F3F68DFF86CC107EA9E
:101D90000C07DFF860C1CCF80070078A3904674689
:101DA0003F68D0F814C04CEA010C47EA0C07DFF892
:101DB00044C1CCF800700CF104073F68DFF838C16B
:101DC00007EA0C07DFF82CC10CF1040CCCF800700A
:101DD000078B3A0467463F68D0F81CC04CEA020CF7
:101DE00047EA0C07DFF80CC10CF1040CCCF80070CA
:101DF0000CF104073F68DFF800C107EA0C07DFF8C1
:101E0000F4C00CF1080CCCF80070078C3B0467465A
:101E10003F68D0F824C04CEA030C47EA0C07DFF80F
:101E2000D4C00CF1080CCCF800700CF104073F682A
:101E3000DFF8C4C007EA0C07DFF8B8C00CF10C0CDF
:101E4000CCF80070078D3C046746D7F800C0C76A1D
:101E500027434CEA070C274F0C37C7F800C03F1D3B
:101E60003F68DFF898C007EA0C07DFF888C00CF17C
:101E7000100CCCF80070D0E9007C47EA0C07D0F8D1
:101E800008C047EA0C07D0F80CC047EA0C07DFF897
:101E900064C00CF1100CDCF800C047EA0C07DFF856
:101EA00054C00CF1100CCCF80070476B3D02078E4B
:101EB0003E04104F24373F6807F07F47DFF834C0F7
:101EC0000CF1240CCCF8007046EA0507D0F838C0B5
:101ED00047EA0C07DFF81CC00CF1240CDCF800C04A
:101EE00047EA0C07DFF80CC00CF1240CCCF80070AA
:101EF000F0BD00000868014000F800F08F88FE0F78
:101F000021B1026842F00102026003E0026822F09F
:101F10000102026070472DE9F041002400250026EF
:101F2000002200270023B1F804C04FEA0C44D0F887
:101F300004C00CF4704CC0F804C0D1F800C04CEAE6
:101F4000040CC0F804C0B1F80CC04FEA0C45D0F83E
:101F500008C00CF4704CC0F808C0D1F808C04CEAB6
:101F6000050CC0F808C0D0F810C02CF0070CC0F861
:101F700010C0D1F810C0C0F810C0D1F81CC04FEA92
:101F80000C26B1F820C04FEA0C4291F824C04FEA69
:101F90000C67D0F818C09C46C0F818C0D1F818C01B
:101FA0004CEA060C4CEA020C4CEA070CC0F818C0CC
:101FB000D0F814C02CF0FF0CC0F814C0D1F814C035
:101FC000C0F814C0D0F81CC040F207782CEA080C06
:101FD000C0F81CC0D1E90AC84CEA080CC0F81CC003
:101FE000D0F828C09C46C0F828C0D1F830C0C0F84E
:101FF00028C0B1F838C04FEA0C43D0F82CC00CF020
:10200000E02CC0F82CC0D1F834C04CEA030CC0F866
:102010002CC0D0F830C06FF30A0CC0F830C0D1F833
:102020003CC0C0F830C0BDE8F08100000149086044
:10203000704700002468014010B504462078054927
:10204000C87060780870A0784870084605F02BFECC
:1020500010BD00007C03002010B505F023FE10BD6C
:1020600000BFFEE77047000070B5002100230F227B
:10207000C47824B3174C246804F4E064C4F5E06425
:10208000C4F30721C1F10404E3B20A4144789C403F
:10209000E1B28478144021430C07210E0E4C0578E0
:1020A0006155047804F01F050124AC4005786D11DA
:1020B0004FF0E02606EB8505C5F8004109E00478FD
:1020C00004F01F040125A540044C0678761144F85D
:1020D000265070BD0CED00E000E400E080E100E07F
:1020E00002490143024A1160704700000000FA05EE
:1020F0000CED00E010B5024803F06CFA10BD0000D2
:1021000078A8002010B5024803F064FA10BD000062
:1021100034A2002010B50021084600F06DF800211F
:10212000012000F069F80021022000F065F800218C
:10213000032000F061F80021042000F05DF8002188
:10214000052000F059F80021062000F055F8002184
:10215000072000F051F80021082000F04DF8002180
:10216000092000F049F800210A2000F045F800217C
:102170000B2000F041F800210C2000F03DF8002178
:102180000D2000F039F800210E2000F035F8002174
:102190000F2000F031F80021102000F02DF8002170
:1021A000112000F029F80021122000F025F800216C
:1021B000132000F021F80021142000F01DF8002168
:1021C000152000F019F80021162000F015F8002164
:1021D000172000F011F80021182000F00DF8002160
:1021E000192000F009F800211A2000F005F800215C
:1021F0001B2000F001F810BD7CB504460D461149C6
:1022000051F82400012100F04FF80F4830F8140075
:1022100000901DB901208DF8040002E000208DF827
:10222000040000208DF8060001208DF80700022030
:102230008DF80500054951F824006946FFF79EF91D
:102240007CBD00009CE2020860E2020888020020D7
:10225000034931F81010034A52F8202011837047C7
:1022600060E2020888020020034931F81010034A96
:1022700052F820205183704760E202088802002053
:10228000064951F820104969054A32F8102051409A
:10229000024A52F820205161704700008802002055
:1022A00060E202087047000029B1064A1268024342
:1022B000044B1A6004E0034A12688243014B1A601F
:1022C000704700003038024029B1064A12680243C4
:1022D000044B1A6004E0034A12688243014B1A60FF
:1022E000704700005038024029B1064A1268024384
:1022F000044B1A6004E0034A12688243014B1A60DF
:10230000704700003438024029B1064A126802437F
:10231000044B1A6004E0034A12688243014B1A60BE
:10232000704700003838024029B1064A126802435B
:10233000044B1A6004E0034A12688243014B1A609E
:10234000704700004038024029B1064A1268024333
:10235000044B1A6004E0034A12688243014B1A607E
:102360007047000044380240F0B5002100220024EC
:10237000022500260223324F3F6807F00C0121B1ED
:10238000042905D0082937D105E02E4F076036E033
:102390002D4F076033E02A4F3F1F3F68C7F3805639
:1023A000274F3F1F3F6807F03F036EB1264FB7FB33
:1023B000F3F7DFF88CC0ACF1040CDCF800C0CCF310
:1023C000881C07FB0CF40CE01E4FB7FBF3F7DFF89B
:1023D00070C0ACF1040CDCF800C0CCF3881C07FB27
:1023E0000CF4174F3F1F3F68C7F301477F1C7D0068
:1023F000B4FBF5F7076002E0124F076000BF00BFB3
:102400000F4F3F6807F0F0010909104F7A5C076829
:10241000D74047600A4F3F6807F4E051890A0B4FE5
:102420007A5C4768D7408760054F3F6807F4604192
:10243000490B064F7A5C4768D740C760F0BD000083
:10244000083802400024F40000127A000003002043
:1024500010B501460022002300204A11012A02D1B2
:102460000A4C236808E0022A03D1084C7034236820
:1024700002E0064C7434236801F01F0201249440EA
:102480001C4201D0012000E0002010BD00380240B5
:1024900001460020034A106820F4403008431060D1
:1024A000704700008C3802400149086770470000FF
:1024B0000000474210B5830143EA016343EA027317
:1024C000014C236010BD0000883802402DE9F8431C
:1024D0000746002500200090002680463D49086000
:1024E000012239463C4807F059F83C490870084633
:1024F000007858B1384807F010F838480278394663
:1025000037A009F025FA681EBDE8F8833248D0F8F4
:102510000C824246394640A009F01AFA43E06B4665
:102520004FF4804249492C4807F035F92B4908708F
:10253000009810B10846007800B139E000980644D0
:102540000098B0F5804F05D2324641A0009909F0BD
:10255000FFF90CE0681C80B20546042807DB0098F0
:1025600000FB05F132463AA009F0F2F900250120FE
:1025700003F014FE00240DE03448015D15480068A6
:10258000A0F13F50017013480068401C11490860D9
:10259000601C84B200988442EED325B90D480168CE
:1025A00031A009F0D5F93348FFF7AFF80028B6D1CC
:1025B00000BF094806F0B1FF002406E005F0FAFA72
:1025C000012003F0EBFD601C84B2322CF6DB3046B8
:1025D0009AE70000280200200CF50020610100208D
:1025E0000D0A3E5553422048533A5265616446698C
:1025F0006C6546726F6D5553423A202573206E6F9D
:10260000742065786973742C2072657320636F641D
:10261000653D2564200A00000D0A3E5553422048BE
:10262000533A5265616446696C6546726F6D5553E5
:10263000423A2066696C656E616D653D25730920BF
:1026400066696C6573697A653D256400DCAE0020BF
:102650000D0A3E095265616465643D256409546F45
:1026600074616C3D256400000920757362706E749E
:102670003D25640034A200201CB50121FE20FFF797
:1026800013FE02208DF8040003208DF805000020C1
:102690008DF8060001208DF807000C2205216F48F7
:1026A000FEF7B4FF0C2206216C48FEF7AFFF0C22A8
:1026B00007216A48FEF7AAFFE020009069466748B4
:1026C000FEF75CFF0C2200216548FEF79FFF0C22FD
:1026D00001216348FEF79AFF0C2208216048FEF7AB
:1026E00095FF0C2209215E48FEF790FF0C220A217B
:1026F0005B48FEF78BFF0C220E215948FEF786FF40
:102700000C220F215648FEF781FF4CF20370009017
:1027100069465348FEF732FF0C2200215148FEF76C
:1027200075FF0C2201214F48FEF770FF0C22072194
:102730004C48FEF76BFF0C2208214A48FEF766FF63
:102740000C2209214748FEF761FF0C220A21454867
:10275000FEF75CFF0C220B214248FEF757FF0C22CC
:1027600011464048FEF752FF0C220D213D48FEF76E
:102770004DFF0C220E213B48FEF748FF0C220F2193
:102780003848FEF743FF4FF683700090694635489E
:10279000FEF7F4FE0C2200213348FEF737FF0C222F
:1027A00001213148FEF732FF0C2202212E48FEF7AC
:1027B0002DFF0C2203212C48FEF728FF0C220421B8
:1027C0002948FEF723FF0C2205212748FEF71EFFAC
:1027D0000C220B212448FEF719FF0C221146224837
:1027E000FEF714FF0C220D211F48FEF70FFF0C22ED
:1027F0000E211D48FEF70AFF0C220F211A48FEF792
:1028000005FF4FF63F00009069461748FEF7B6FEF9
:102810000C2200211548FEF7F9FE0C220121134875
:10282000FEF7F4FE0C2204211048FEF7EFFE0C2206
:1028300005210E48FEF7EAFE0C2208210B48FEF7A0
:10284000E5FE0C220F210948FEF7E0FE48F23310A6
:10285000009069460548FEF791FE1CBD001C024031
:10286000000C024000100240001402400018024018
:1028700000B593B0FFF700FF01210846FFF744FDC4
:10288000022001900720029004200390062004906B
:1028900002200590069007900120089009900420DE
:1028A0000A9010200B9040200C904FF4C0700D90B7
:1028B00000200E904FF400600F90002010904FF415
:1028C0000050119001A8129008A8FEF7CDFD00F06D
:1028D00002F813B000BD1FB50024012000900820AD
:1028E0000190012002900020039000BF20210120D0
:1028F000FEF78CF90028F9D16846FEF7A5FD0A20FD
:1029000006F0C0F9022000900820019001200290FA
:102910000020039000BF20210120FEF777F9002856
:10292000F9D16846FEF790FD032000900820019041
:10293000042002900020039000BF20210120FEF718
:1029400065F90028F9D16846FEF77EFD00BF202119
:102950000120FEF75BF90028F9D16846FEF774FD07
:1029600040F23124042000900820019001200290C0
:10297000039400BF20210120FEF748F90028F9D177
:102980006846FEF761FD40F26A50FEF7EBFD00BFBE
:1029900020210120FEF73AF90028F9D11FBD0000DF
:1029A0007CB504460D46364951F82410354A52F894
:1029B000242041EA02000121FFF776FC0CB1052C2E
:1029C00006D1314951F824000121FFF7BDFC05E093
:1029D0002D4951F824000121FFF7A6FC2A4951F89E
:1029E00024000121FFF7B0FC274951F82400012100
:1029F000FFF79AFC254B13F81420254B33F81410DD
:102A0000244B53F82400FEF701FE234B13F8142047
:102A1000224B33F81410224B53F82400FEF7F6FD36
:102A200000208DF8060001208DF8070002208DF8A7
:102A300004001C4830F81400009002208DF80500B6
:102A4000144951F824006946FEF798FD02208DF8DC
:102A50000400154830F814000090114951F8240082
:102A60006946FEF78BFD114951F82400294600F014
:102A700007FD0E4951F82400012100F03DFC7CBD0A
:102A8000D4E10208F0E10208B8E1020844E20208D9
:102A900028E202085002002052E2020836E2020850
:102AA0006C0200200CE202081AE202083402002044
:102AB000704700000CB5002001900090404800686D
:102AC00040F480303E49086000BF3D48006800F493
:102AD000003000900198401C0190009818B90198AE
:102AE000B0F5A04FF1D13648006810F4003F02D095
:102AF0000120009001E000200090009801285DD1A5
:102B00002F484030006840F080502D494031086027
:102B10002C48006840F440402A49086028480830A2
:102B200000682749083108600846006840F4004002
:102B300008600846006840F4A05008602248091F59
:102B40000860081F006840F08070091F086000BF1F
:102B50001B48006810F0007FFAD01A48006840F463
:102B600080301849086000BF1648406810F4803F64
:102B7000FAD01448006840F400301249086000BFE1
:102B80001048406810F4003FFAD040F205700F4939
:102B900008600B480830006820F00300084908313D
:102BA00008600846006840F00200086000BF044862
:102BB0000830006800F00C000828F8D10CBD0000B7
:102BC000003802400070004008484006003C0240C7
:102BD0007047000010B51548006840F470001349B4
:102BE00008601348006840F00100114908600020A7
:102BF0000F49083108600E4800680E4908400C492A
:102C000008600D48091D0860081F006820F4802036
:102C1000091F0860002006490C310860FFF74AFFD1
:102C2000064802498039086010BD000088ED00E0C8
:102C300000380240FFFFF6FE1030002400000208BA
:102C400010B50121880700F0CDF9AC480088401C80
:102C500080B2AA490880132804DB09F09BFE0020FB
:102C6000A6490880A6480088401C80B2A449088074
:102C7000132804DB09F0CCFD0020A14908802021A5
:102C8000A04800F0EFFB58B19E4800F063FC9E495D
:102C900009889E4A88549C480088401C9A490880AC
:102CA00020219B4800F0DEFB58B1994800F052FC0F
:102CB00098490988984A885496480088401C954944
:102CC000088096480078401CC0B2944908700228D9
:102CD00012DB0020087092480088924909888842D7
:102CE0000AD0904800889049405C864988808D4889
:102CF0000088401C8B4908808C480078002857D1F8
:102D00008B4800888B49098888420BD08948008805
:102D10008949405C7E49091D088086480088401C1E
:102D2000844908802021854800F09CFB58B18348E5
:102D300000F010FC82490988824A88548048008843
:102D4000401C7F49088080480078A8B97F480088E7
:102D50007F49098888420BD07D4800887D49405CC6
:102D60007649091D08807A480088401C7849088007
:102D700001207549087012E0774800787749097892
:102D8000884209D0754801780078401C734A107059
:102D90007348405C7349888000206B4908700120AB
:102DA0006249087070480068401C6F490860A3E0E1
:102DB0006E48007830B101283FD0022854D0032853
:102DC0003AD18BE06A48007818BB6A4800786A49B3
:102DD0000978884209D0684801780078401C664A22
:102DE00010706648405C664908806648007866490D
:102DF0000978884209D0644801780078401C624A0A
:102E000010706248405C624908800120584908708F
:102E100012E06048007860490978884209D05E482D
:102E200001780078401C5C4A10705C48405C5C494A
:102E3000088000204E49087053E05A48008800F589
:102E40001670584908800846008842F2107188427E
:102E500009DB54480088401A5249088052480088CB
:102E6000401C514908803CE020214548001F00F0EB
:102E7000F9FA60B14248001F00F06CFBC1B24B4848
:102E800002780078401C494B187049488154202131
:102E90003F48001F00F0E6FA60B13D48001F00F017
:102EA00059FBC1B2434802780078401C414B18706E
:102EB0004148815420213A48001F00F0D3FA60B104
:102EC0003748001F00F046FBC1B23C48027800784A
:102ED000401C3A4B18703A48815402E005F086FBDA
:102EE00000BF00BF21480078401C00F003001F49CC
:102EF000087000200D49087010BD00002E0200204F
:102F00002C02002000500040EC010020000055D0B1
:102F1000004C0040E4010020000053D030020020AB
:102F2000F0010020F2010020000054D0D801002060
:102F3000E8010020EA010020000052D000480040D3
:102F4000DC010020000051D0D9010020E001002068
:102F5000E2010020000050D0FA010020FB01002017
:102F6000300801200010014020020020D001002084
:102F7000DA010020FE010020FF010020300A0120BC
:102F8000044400400202002003020020300C012013
:102F9000041401400602002007020020300E012028
:102FA00004780040080200200A020020FC010020F2
:102FB0003009012000020020300B01200402002013
:102FC000300D012010B503F0CDF810BD21B10288FD
:102FD00042F08002028004E002884FF67F731A40BC
:102FE00002807047CA430282704721B1028842F0D2
:102FF0000102028004E002884FF6FE731A4002804C
:10300000704708B54FF4A060FFF76AF81C208DF8F0
:10301000000001208DF801008DF802008DF80300FA
:103020006846FFF721F801210846FFF77DF908BD42
:1030300030B50246002000230024158A05EA01036A
:10304000958905EA010413B10CB1012000E00020CC
:1030500030BD1AB183890B43838102E083898B439E
:10306000838170473EB5044600214FF08040FFF752
:10307000BCFF002201218807FFF7EBFFC4EB04101F
:1030800001900520ADF800000020ADF80800ADF873
:10309000020069464FF0804000F012F801218807D5
:1030A000FFF7A0FF01218807FFF790FF01221146DB
:1030B0009007FFF7CEFF01218807FFF796FF3EBD7F
:1030C00000220288184B98420ED0184B98420BD021
:1030D000B0F1804F08D0164B984205D0154B98425E
:1030E00002D0154B984204D14FF68F731A404B888B
:1030F0001A43124B984207D0114B984204D04FF616
:10310000FF431A400B891A4302804B68C3620B8845
:103110000385054B984202D0044B984201D18B7A2B
:1031200003860123838270470000014000040140B0
:103130000004004000080040000C00400010004067
:103140000014004010B504460548844202D00548EA
:10315000844203D11021044800F050F810BD000053
:1031600000200140002101400000024010B504464B
:103170000548844202D00548844203D120210448F6
:1031800000F03CF810BD000000200140002101408B
:103190000000024010B504460548844202D00548AC
:1031A000844203D14021044800F028F810BD0000FB
:1031B00000200140002101400000024010B50446FB
:1031C0000948844202D00948844204D18021084839
:1031D00000F014F806E00748844203D14115064880
:1031E00000F00CF810BD000000200140002101405B
:1031F0000000024000220140001402407CB5054658
:103200000C46009403208DF8040000208DF8070080
:1032100069462846FEF7B2F97CBD70B506460D46F4
:103220002C46042C03D13046FFF78CFF10E0052C10
:1032300003D13046FFF79AFF0AE0062C03D130464F
:10324000FFF7A8FF04E0072C02D13046FFF7B6FFD6
:10325000304600F001F870BD10B58AB00446002079
:103260008DF8150008900790069001208DF8240035
:1032700000208DF814001C48844208D11B480068C7
:1032800040F48070194908600020049016E0184846
:10329000844208D11548006840F400701349086062
:1032A000002004900AE01348844207D10F480068C8
:1032B00040F480600D4908600020049000200290D6
:1032C00000904FF4803001904FF4407003906846B6
:1032D000FDF742FA04A92046FDF75AFAA06840F02B
:1032E0000100A0600AB010BD002001404438024037
:1032F000002101400022014021B1828942F40052A4
:10330000828104E082894DF6FF731A408281704702
:103310001FB50020374908703749087037490870D1
:10332000374908703749088037490880374908808D
:10333000374908803749088037490880374908806D
:10334000374908803749087037490870374908708D
:10335000374908703749088037490880374908805D
:10336000374908803749087037490870374908706D
:10337000374908703749087037490870374908706D
:10338000374908704FF4E13000900020ADF8040098
:10339000ADF80600ADF80800ADF80C000C20ADF853
:1033A0000A0069460420FFF7FBFA4FF461400090E1
:1033B00069460320FFF7F4FA4FF41640009069467F
:1033C0000220FFF7EDFA4FF46140009069460020BB
:1033D000FFF7E6FA4FF41650009069460120FFF718
:1033E000DFFA69460520FFF7DBFA69460620FFF79A
:1033F000D7FA1FBDFB010020FA010020F9010020CF
:10340000F8010020E2010020E0010020DE010020A0
:10341000DC010020F2010020F0010020EE0100207C
:10342000EC010020FF010020FE010020FD01002032
:10343000FC010020EA010020E8010020E601002054
:10344000E40100200302002002020020010200200B
:1034500000020020070200200602002005020020D2
:103460000402002002460020B1F5007F00D100BF19
:1034700013880B4201D0012000E0002070470000BB
:103480002DE9FF4705460E460024A14600BFA04691
:10349000B08900B100BF2C8A24F44054F088044362
:1034A0002C82AC8941F20C608443B0883189084396
:1034B000718908430443AC81AC8A24F44074B08918
:1034C0000443AC826846FEF74FFF2048854202D095
:1034D0001F48854202D1DDF80C9001E0DDF808902C
:1034E000A88910F4004F08D009EBC90000EB0910BF
:1034F00031684900B0FBF1F707E009EBC90000EBC8
:10350000091031688900B0FBF1F76420B7FBF0F0D7
:1035100004012009642101FB1078A88910F4004FF0
:1035200008D0322000EBC800B0FBF1F000F007003B
:10353000044308E0322000EB08106421B0FBF1F0F6
:1035400000F00F0004432C81BDE8FF87001001400C
:103550000014014001468888C0F30800704700004D
:1035600003480078042801D1012070470020FCE7BF
:103570008100002070B505460E46284600F0BEF9D1
:103580000446A4F57F40FF3805D046F4004105F518
:10359000B26020F81410E0B270BD2DE9F04105468C
:1035A0000E4617461C46012105F56C7000EB4410D1
:1035B000817005F56C7000EB4410C66005F56C7009
:1035C00000EB4410076105F56C7000EB4410007EC1
:1035D00030B9002105F56C7000EB4410017205E074
:1035E000022105F56C7000EB44100172214628465B
:1035F000FEF79AF80020BDE8F0812DE9F04105467C
:103600000E4617461C46002105F56C7000EB441071
:10361000817005F56C7000EB4410C66005F56C70A8
:1036200000EB4410076105F56C7000EB4410407E20
:1036300028B905F56C7000EB4410017205E0022119
:1036400005F56C7000EB4410017221462846FEF728
:103650006BF80020BDE8F0812DE9F04105460C46ED
:1036600016461F4602212175012161750021E18264
:103670002683618306F08000802805D105F56C70F3
:1036800000EB4710017605E0002105F56C7000EBBA
:103690004710417600231A462146284600F02BF8B1
:1036A000BDE8F08101460122C1F8102300207047D7
:1036B0002DE9F04105460E4617461C46012105F549
:1036C0006C7000EB44108170022105F56C7000EB0A
:1036D0004410017205F56C7000EB4410C66005F5EE
:1036E0006C7000EB4410076121462846FEF71CF879
:1036F0000020BDE8F0812DE9F04180460C461546DA
:103700001E460127E078012802D0022820D108E0D7
:1037100032462946204602F06BFA0220E07001276B
:1037200017E0207F0D2805D10120E07000212177CE
:1037300000270CE0207F0B2803D10120E070002738
:1037400005E0207F0C2802D10120E070032700E073
:1037500000BF00BF3846BDE8F0812DE9F0410546C5
:103760000F4616461C46002105F56C7000EB441010
:10377000817005F56C7000EB4410C76005F56C7046
:1037800000EB441006612EB9012105F56C7000EBC9
:103790004410417605F56C7000EB4410407E30B962
:1037A000002105F56C7000EB4410017205E0022168
:1037B00005F56C7000EB4410017221462846FDF7B8
:1037C000B3FF0020BDE8F08170B505460E461446F3
:1037D000002105F56C7000EB44108170032105F5A4
:1037E0006C7000EB4410017205F56C7000EB441036
:1037F000C660082105F56C7000EB4410016121469C
:103800002846FDF791FFC0B270BD0246022106E0D6
:10381000002302F5B26020F81130481CC1B208291B
:10382000F6DB0020704770B505460C46002020707E
:103830006070A0700120E070012121774021A1710A
:10384000002084F8200001212120015521792846FB
:1038500000F023F86179284600F01FF8002070BDC1
:1038600001460022C1F810230020704770B50446BD
:103870000D46052D01D0042D06D1D4F89010486CCA
:1038800080470C20207007E0062D05D10C20207009
:10389000D4F890100868804770BD0246082909DAFC
:1038A00002F5B26030F81100C0F30E0302F5B26009
:1038B00020F81130002070472DE9F04780460C4673
:1038C00016461D46DDE9089746F080012175062160
:1038D0006175E58205F47F40B0F5407F03D140F289
:1038E0000941218301E00021218367833B464A4649
:1038F00021464046FFF7FFFEBDE8F0870246002163
:1039000000BF0AE002F5B26030F8110010F4004F79
:1039100001D108467047481CC1B20829F2DB4FF6B6
:10392000FF70F7E710B502460B88147823440B802C
:103930001378981810BD00002DE9FC4704460D4689
:1039400016464FF0000804F588704FF4007300220B
:103950002946CDE900062046FFF7AEFF5FEA0009E1
:103960001BD10AE004F5887010F808000C4901F832
:10397000080008F101001FFA80F8B045F2DB04F5F9
:10398000887305F1500205F13E0105F134000096FF
:1039900001F0C2FE074607B1B9464846BDE8FC87BC
:1039A000941601202DE9FC4104460D46164604F507
:1039B00088704FF4807300222946CDE90006204626
:1039C000FFF77AFF070006D1324604F5887105F14A
:1039D000220001F03BFF3846BDE8FC812DE9FC41A7
:1039E00004460E46154604F588704FF40453012230
:1039F0003146CDE900052046FFF75EFF0746384611
:103A0000BDE8FC812DE9FC4104460E46154604F54F
:103A100088704FF4085301223146CDE90005204655
:103A2000FFF74AFF07463846BDE8FC812DE9FC4711
:103A30000446884615461E460A9F04F5887045F4DC
:103A4000407300224146CDE900072046FFF734FFCE
:103A50005FEA000905D13A46314604F5887001F065
:103A600059FF4846BDE8FC872DE9F04104460D4664
:103A70002F464FF001080126254890F845000528FB
:103A800041D2DFE800F003140420340000BF092213
:103A900039462046FFF7A2FF40B904F588711D485A
:103AA00001F010FF01201A4981F845002CE0194867
:103AB000028939462046FFF7A5FF18B903201449AB
:103AC00081F8450020E000231A463946204602F0DE
:103AD0005FF8064626B904200D4981F8450005E047
:103AE000032E03D104200A4981F845000CE000228E
:103AF0003946204602F064F820B90020044981F8D4
:103B00004500804600E000BF00BF4046BDE8F081B0
:103B100050110120EC1101202DE9F04105460C4621
:103B2000264600273B4890F8420030B1032817D0C2
:103B300004280BD0052867D129E03649096D0868AB
:103B400080470420334981F8420000BF284603F033
:103B500030F8012803D103202E4981F8420054E0B7
:103B60002C4890F8403090F846200146284600F056
:103B700037FD0120284908700520264981F84200B8
:103B80002846FDF778FD2349A1F84C003DE0284682
:103B9000FDF771FD1F49B1F84C10401A1D49B1F8ED
:103BA0004A10884204D303201A4981F842002AE0CF
:103BB000184890F840102846FDF76CFD01280CD1FC
:103BC0001548007801281ED10020134908701148BB
:103BD000006D41680F48884715E00E4890F8401086
:103BE0002846FDF757FD04280DD10A4890F84030CB
:103BF00090F8482031462846FFF72EFD18B90320DB
:103C0000044981F8420000E000BF00BF3846BDE82B
:103C1000F0810000501101203803002070B50446E7
:103C20000D46164890F8400078B1144890F84010BE
:103C3000204602F04EFD114890F840102046FFF754
:103C40002CFE00200D4981F840000C4890F84100FE
:103C500078B10A4890F84110204602F03AFD074832
:103C600090F841102046FFF718FE0020034981F824
:103C7000410000200249087070BD00005011012071
:103C8000380300202DE9FC4707460E463446002540
:103C90004FF0010906206B4981F8420094F8440076
:103CA00001287DD194F84500012802D166480865B5
:103CB00006E094F84500022802D16448614908658D
:103CC0000020604981F8420081F8450094F85200D4
:103CD00081F84800B4F85400A1F8460094F8560062
:103CE000A1F84A000846B0F84A000A2802DA0A2079
:103CF000A1F84A0094F84200032802DC94F842003C
:103D000000E003208046002552E004F1500000EB63
:103D1000C500807810F0800F23D004F1500000EB34
:103D2000C5008078474981F8440004F1500000EB59
:103D3000C50081783846FFF71DFC424981F84000F4
:103D40000846B0F846000321CDE900102120035DAC
:103D500094F820203B4890F84010384601F08EFC43
:103D600024E004F1500000EBC5008078354981F86B
:103D7000430004F1500000EBC50081783846FFF79E
:103D8000F9FB304981F841000846B0F846000321AC
:103D9000CDE900102120035D94F82020294800E09F
:103DA0000DE090F84110384601F068FC681CC5B27F
:103DB0004545AADB00202649087081463EE094F87C
:103DC0004300092803D123A007F0C2FD32E094F894
:103DD0004300022803D125A007F0BAFD2AE094F899
:103DE0004300082803D130A007F0B2FD22E094F888
:103DF0004300072803D134A007F0AAFD1AE094F885
:103E000043000B2803D139A007F0A2FD12E094F87B
:103E100043000E2803D13FA007F09AFD0AE094F872
:103E20004300102803D144A007F092FD02E04CA00B
:103E300007F08EFDD4F89010086C80474846BDE826
:103E4000FC8700005011012054030020740300205F
:103E500038030020487562206973206E6F742073E8
:103E60007570706F727465642E0A0000436F6D6D1B
:103E7000756E69636174696F6E7320616E6420434F
:103E8000444320436F6E74726F6C2064657669637F
:103E900065206973206E6F7420737570706F727413
:103EA00065642E0A000000004D5343206465766966
:103EB0006365206973206E6F7420737570706F7204
:103EC0007465642E0A0000005072696E7465722079
:103ED000646576696365206973206E6F74207375FD
:103EE00070706F727465642E0A000000536D617209
:103EF0007420436172642064657669636520697328
:103F0000206E6F7420737570706F727465642E0A02
:103F100000000000566964656F206465766963651A
:103F200020206973206E6F7420737570706F7274C7
:103F300065642E0A00000000417564696F2F5669A0
:103F400064656F2044657669636573206973206ECC
:103F50006F7420737570706F727465642E0A000040
:103F60005468652061747461636865642064657673
:103F7000696365206973206E6F7420737570706F4C
:103F8000727465642E200A002DE9F04106460C4645
:103F9000174625466879032802D1024807F0D8FC65
:103FA000BDE8F0815ADF02087047704710B502483B
:103FB00007F0CEFC10BD000075DE020810B5034806
:103FC00007F0C6FC00200249087010BD90DE020810
:103FD0008200002010B502A007F0BAFC10BD00005E
:103FE0000D0A3E5553422046533A4465766963654F
:103FF000206E6F7420737570706F727465642E0A12
:104000000000000010B504461CB90A4807F0A0FCE7
:104010000EE0012C03D1084807F09AFC08E0022CBE
:1040200003D1064807F094FC02E0054807F090FC35
:1040300010BD0000D0DE0208F6DE02081CDF020818
:1040400041DF020870B504462546298903A007F020
:104050007FFC698907A007F07BFC70BD0D0A3E5507
:1040600053422046533A564944203A20253034588A
:10407000680A00000D0A3E5553422046533A504903
:1040800044203A2025303458680A000010B503480F
:1040900007F05EFC01200249087010BDAFDE020887
:1040A000820000207047000010B59AB004462246F6
:1040B00004A101A803F00EFE01A807F049FC1AB004
:1040C00010BD00000D0A3E5553422046533A4D6143
:1040D0006E756661637475726572203A2025730A85
:1040E0000000000010B502A007F032FC10BD000077
:1040F0000D0A3E5553422046533A4F76657263751A
:104100007272656E742064657465637465642E0AEA
:104110000000000010B59AB00446224604A101A890
:1041200003F0D8FD01A807F013FC1AB010BD000081
:104130000D0A3E5553422046533A50726F647563E0
:1041400074203A2025730A007047000010B59AB019
:104150000446224604A101A803F0BCFD01A807F013
:10416000F7FB1AB010BD00000D0A3E555342204621
:10417000533A53657269616C204E756D62657220A9
:104180003A2025730A00000010B5024807F0E0FB52
:1041900010BD0000C4DF0208012070472DE9F04186
:1041A00006460C464FF0000800250021A174207F30
:1041B0000C2878D2DFE800F077060F3D4667789349
:1041C0009CC2D9F0627904F114013046FFF7FCFA81
:1041D00002212177F1E061793046FDF75BFA05466F
:1041E000012D1FD1207D00F08007608B58B141F276
:1041F000883074490880802F02D1032121770CE098
:104200000521217709E032206E490880802F02D1F4
:104210000921217701E0072121773046FDF72BFAAC
:10422000208205E0032D03D10B2121770521A17404
:10423000C3E02379A2893046A168FFF739FA042147
:104240002177BAE021793046FDF724FA0546012DA1
:1042500001D109212177042D04D1607820700C212F
:1042600021770FE0032D02D10B2121770AE03046A0
:10427000FDF701FA218A401A52490988884201D97A
:104280000B21217799E00121627906F56C7000EB32
:10429000421041766379A2893046A168FFF75DFA42
:1042A0000621217789E087E061793046FDF7F2F950
:1042B0000546012D02D1072121770FE0042D04D1FD
:1042C000607820700C21217708E0022D02D10521B1
:1042D000217703E0032D01D10B2121776DE02379B4
:1042E000002211463046FFF7E3F90821217764E008
:1042F00021793046FDF7CEF90546012D04D16078CD
:1043000020700D21217718E0032D02D10B21217798
:1043100013E03046FDF7AFF9218A401A2949098890
:10432000884202D90B21217707E0042D05D160785E
:1043300020700C2121774FF003083EE0617906F5EB
:104340006C7000EB4110407E80F00101627906F54F
:104350006C7000EB421041766379002211463046C2
:10436000FFF7FBF90A21217727E061793046FDF755
:1043700091F90546012D04D1607820700D21217737
:1043800008E0022D02D10921217703E0032D01D19C
:104390000B21217711E0FFE7A07B401CC1B2A17384
:1043A000022902DC0121217705E00821A17460784F
:1043B00020704FF0020800E000BF00BF4046BDE89B
:1043C000F08100003403002070B592B005460C4621
:1043D0000126A0780A287DD2DFE800F00525345CAC
:1043E000697D9AB7D4DE082221462846FFF7DAFA1B
:1043F000C0B994F82910A1710120A070A079002102
:10440000CDE90010617900231A46284601F0B0F882
:10441000A0790021CDE90010217900231A46284611
:1044200001F0A6F8BBE0122221462846FFF7BAFAAF
:1044300038B9D4F89000C16904F1220088470220FD
:10444000A070ACE001222146284601F07BFB00BBB6
:10445000022001F0A3FE012004F10204A077D4F8A9
:104460008E10086A80470320207000200090019081
:10447000A27FA1780346284601F07AF80020009038
:104480000190A27FA4F1020461790346284601F05D
:104490006FF884E0092221462846FFF74DFA28B933
:1044A000E08EB0F5806F01DC0420A07077E0E28E32
:1044B00021462846FFF740FA58B9D4F8900004F195
:1044C000500204F13E01436A04F13400984705208C
:1044D000A07064E062E094F8300088B1FF200090A2
:1044E00094F8302002AB21462846FFF79FFA70B9B6
:1044F000D4F89000816A02A888470620A07006E0E0
:10450000D4F89000816A28A088470620A07046E071
:1045100094F8310088B1FF20009094F8312002AB6C
:1045200021462846FFF782FA70B9D4F89000C16A94
:1045300002A888470720A07006E0D4F89000C16A5E
:1045400019A088470720A07029E094F8320088B1AC
:10455000FF20009094F8322002AB21462846FFF756
:1045600065FA70B9D4F89000016B02A8884708205A
:10457000A07006E0D4F89000016B0BA088470820DB
:10458000A0700CE094F839202146284601F0EDFA9D
:1045900008B90920A07002E0002600E000BF00BFBB
:1045A000304612B070BD00004E2F41002DE9F041A1
:1045B00006460F4614461D46DDF818802146304653
:1045C000FFF731F9C4F88C50C4F890803946304672
:1045D000FDF76BF8D4F8901008688047BDE8F081CB
:1045E0002DE9F04105460E4617461C46012105F50A
:1045F0006C7000EB4410817005F56C7000EB44109A
:10460000C66005F56C7000EB4410076105F56C7031
:1046100000EB4410007E30B9002105F56C7000EB12
:104620004410017205E0022105F56C7000EB4410A6
:10463000017205F56C7000EB4410007E80F0010102
:1046400005F56C7000EB4410017621462846FDF715
:104650006BF80020BDE8F0812DE9F04105460E46DB
:104660001446012714B1012C12D108E01048037838
:10467000C27831462846FEF7EFFF074609E00C48AE
:104680004378827831462846FEF7E6FF074600E089
:1046900000BF00BF07480068401C06490860084684
:1046A0000068042800D904273846BDE8F0810000DE
:1046B000381201209003002010B50246002000238C
:1046C000014C237010BD0000281201202DE9F0419B
:1046D00005460F46002601242846FDF716F820B3AC
:1046E000154801782846FCF7DAFF06460D2E01D062
:1046F00002241CE0114800681149884216D10F4875
:10470000406810494968884211D10C48007B08B9BB
:1047100000240CE00948007B012801D1012406E0B7
:104720000648007B022802D1022400E00224064849
:10473000C4732046BDE8F081381201201812012010
:1047400055534253F811012028120120012812D19B
:104750000D490978491C0C4A1170114609780A293B
:1047600005DA0621094A11700121D1700AE00A21F7
:10477000064A117006E0022803D10A21034A11708B
:1047800000E000BF704700009803002028120120BD
:1047900070B505460C46A1212175FE2161750021E9
:1047A000E1822183012161830123034A21462846B6
:1047B000FEF7A1FF70BD0000401201202DE9F04777
:1047C00081460F463E46012503244FF00008484627
:1047D000FCF79BFF002878D0554800780B2875D24D
:1047E000DFE800F006A10D44556692797E33900013
:1047F000484600F0A9FA02204D49087094E0394675
:104800004846FFF7C5FF0546BDB94A48007A494901
:1048100081F84800084690F8480000280ADD46481C
:10482000007838B9012044490870D6F89010086C17
:10483000804779E003203E490870032D04D103200E
:104840003B494870092008706EE0737900223946B0
:104850004846FEF701FF05463DB90020354981F87D
:10486000480033484078324908705DE0484600F01F
:10487000B5FD04463CB904202D49087000202F499D
:104880000870002502E02046FFF760FF4CE0484634
:1048900000F0C6FC04463CB90520254908700020FC
:1048A00026490870002502E02046FFF74FFF3BE055
:1048B000484600F0CDFB04464CB908201C4908705E
:1048C00000201E490870002504E02EE02BE0204661
:1048D000FFF73CFF28E03946484600F031F823E076
:1048E000D6F89010C86B804700F0FF08B8F1000FB1
:1048F00003D108200E49087003E0B8F1010F00D180
:10490000062511E004250FE0484600F0F7FC0446B8
:104910002CB90748407806490870002502E0204677
:10492000FFF714FF00E000BF00BF2846BDE8F08796
:104930002812012038120120AC0300209803002027
:104940002DE9F0478046894600244046FCF7DDFE0D
:1049500000287DD0F248007909287AD2DFE800F0FB
:1049600079051568CEFDFCFBFA00EE4843781F225E
:10497000ED494046FEF741FE0120E9494871022019
:1049800008710020E9490870C6E1E64841784046D0
:10499000FCF780FE0446012C26D10020E449086083
:1049A0000220DF494871E048007B00F08007DE48C4
:1049B0008068A8B1DC488068DE490860D848806813
:1049C000DD49086008460068DC490860802F03D193
:1049D0000320D34908712AE00420D149087126E058
:1049E0000520CF49087122E0022C04D1CC4840793F
:1049F000CB4908711BE0042C06D10120D049087076
:104A00000820C749087112E0032C10D1C74800786C
:104A1000401CC649087008460078032804DAC048DC
:104A20004079BF49087102E00220BD49C87373E1B3
:104A3000BC4801784046FCF72DFE0446012C03D00B
:104A4000B748407903283AD00020B949086001E00E
:104A500063E160E10320B2494871B2488088B549FA
:104A60000968884216D2AF4803788288B248016844
:104A70004046FEF792FDAB488088AE490968081AA7
:104A8000AC490860A7488088AB4909680844AA492E
:104A9000086032E0A748006818B90520A0490871ED
:104AA0002BE0A0480378A348008882B2A24801689E
:104AB0004046FEF772FD00209E4908601DE0042C70
:104AC00008D100209E4908700720954908710520EB
:104AD000487112E0032C10D194480078401C93498F
:104AE000087008460078032804DA8D4840798C491C
:104AF000087102E002208A49C8730DE189484178B3
:104B00004046FCF7C7FD0446012C43D100208849EC
:104B100008600420824948718248C0888549096834
:104B2000884222D27F484378C28883480168404641
:104B3000FEF763FD80480068804908607948C088B6
:104B40007D49096808447C4908607648C0887949ED
:104B5000096803E0CDE0B2E07CE059E0081A75494D
:104B6000086000207149087051E07248006818B967
:104B700005206B4908714AE06A4843786D4800880F
:104B800082B26D4801684046FEF737FD0020694952
:104B900008603CE0022C1CD167480068674909683E
:104BA00088420DD05F484378C288C088DFF888C14A
:104BB000DCF800C0ACEB00014046FEF71EFD26E02D
:104BC00058484378C2885C4801684046FEF715FDA6
:104BD0001DE0042C08D101205949087008205049D3
:104BE00008710520487112E0032C10D14F4800785D
:104BF000401C4E49087008460078032804DA4848EB
:104C000040794749087102E002204549C87383E0B2
:104C10000520434948714B4888603F2088810C2615
:104C200004E0002047498855701EC6B2002EF8D116
:104C30000020444908703B48037839483F22816886
:104C40004046FEF7AAFC0620354908710020374986
:104C5000087061E0334801784046FCF71BFD0446CC
:104C6000012C0FD100203249086005202C494871E1
:104C700008468078087049464046FFF727FD2849D6
:104C8000C8731BE0042C06D100202D4908700720B2
:104C90002349087112E0032C10D124480078401CED
:104CA0002249087008460078032804DA1C48407935
:104CB0001B49087102E002201949C8732CE0002248
:104CC00049464046FFF7C8FC054665B91C480078D0
:104CD000022803D108201249087109E010484079E0
:104CE0000F49087104E0042D02D102200C49C87359
:104CF00012E0012249464046FFF7AEFC054625B9C1
:104D0000074840790649087104E0042D02D10220C9
:104D10000349C87300E000BF00BFBDE8F087000092
:104D20002812012038120120F811012094030020DC
:104D300090030020800300208403002088030020CB
:104D40008C0300201812012010B504462046FCF701
:104D5000DCFC48B107480849086008484860002062
:104D6000487301200649C8700020064908600649BA
:104D7000087010BD55534243F811012050403020B7
:104D800028120120900300209803002070B50446EB
:104D90000D461048407860B10E484178204601F039
:104DA00098FC0C4841782046FEF777FD0020094921
:104DB00048700848007860B106480178204601F044
:104DC00088FC044801782046FEF767FD0020014971
:104DD000087070BD381201207CB506460D462C4681
:104DE00094F84300082856D194F84500502852D131
:104DF00094F8520010F0800F07D094F85200464902
:104E0000C870B4F85400888006E094F85200424913
:104E10008870B4F85400C88094F85A0010F0800FDD
:104E200007D094F85A003C49C870B4F85C008880F8
:104E300006E094F85A0038498870B4F85C00C880DD
:104E4000354881783046FEF795FB3349487008466F
:104E5000C1783046FEF78EFB2F4908700846C0889F
:104E60000221CDE900102120035D94F820202A487A
:104E70004178304600F002FC274880880221CDE9C5
:104E800000102120035D94F820202348017830464B
:104E900000F0F4FB3EE094F84300092803D11FA082
:104EA00006F056FD32E094F84300022803D121A019
:104EB00006F04EFD2AE094F84300032803D12CA00D
:104EC00006F046FD22E094F84300072803D130A005
:104ED00006F03EFD1AE094F843000B2803D135A0FC
:104EE00006F036FD12E094F843000E2803D13BA0F3
:104EF00006F02EFD0AE094F84300102803D140A0EC
:104F000006F026FD02E048A006F022FDD4F890103D
:104F1000086C804700207CBD381201204875622053
:104F20006973206E6F7420737570706F727465642E
:104F30002E0A0000436F6D6D756E69636174696F51
:104F40006E7320616E642043444320436F6E74721D
:104F50006F6C20646576696365206973206E6F7479
:104F600020737570706F727465642E0A0000000003
:104F700048494420646576696365206973206E6FD3
:104F80007420737570706F727465642E0A0000006F
:104F90005072696E74657220646576696365206914
:104FA00073206E6F7420737570706F727465642EE9
:104FB0000A000000536D61727420436172642064C2
:104FC0006576696365206973206E6F7420737570F0
:104FD000706F727465642E0A000000005669646583
:104FE0006F2064657669636520206973206E6F7435
:104FF00020737570706F727465642E0A0000000073
:10500000417564696F2F566964656F2044657669E0
:10501000636573206973206E6F7420737570706F91
:10502000727465642E0A00005468652061747461AE
:105030006368656420646576696365206973206EC2
:105040006F7420737570706F727465642E200A001F
:1050500070B5054603262846FCF757FB002855D0B7
:105060002B48C078012802D002284DD127E03F20EC
:1050700028498860802008730A20887326482449BC
:105080008860052088700F2405E0002121480F303A
:105090000155601EC4B2002CF7D11A201D49C873F7
:1050A0003F211C484174C17401201949087107202F
:1050B00008700320C8730220C870032625E0144836
:1050C000C07B80B91448807810F0800F03D0012095
:1050D0001249087302E000201049087301200C49AE
:1050E000C87000260FE00A48C07B012803D1084998
:1050F000C870012607E00648C07B022803D10120C2
:105100000349C870022600E000BF00BF304670BDF2
:1051100028120120F811012094120120841201208C
:10512000FFB581B007460E461D4603203949087079
:105130003846FCF7EAFA002867D03748C0780128DB
:1051400002D002285FD139E034488560802033499D
:1051500008730A208873304886600F2405E0002118
:105160002E480F300155601EC4B2002CF7D1282004
:105170002A49C8739DF80F10284841749DF80E10F5
:1051800081749DF80D10C1749DF80C100175C5F364
:105190004F2000909DF80110204881759DF8001067
:1051A000C17501201C490871072008700320C873CD
:1051B0000220C87003201749087025E01648C07BFC
:1051C00050B93846FCF7A1FA30B101201249C87035
:1051D00000201049087015E00F48C07B012807D156
:1051E0003846FCF792FA18B101200B49C87009E063
:1051F0000948C07B022805D101200749C870022058
:105200000449087000E000BF00BF0248007805B004
:10521000F0BD0000B703002028120120F811012082
:1052200070B5054603262846FCF76FFA00285AD0C9
:105230002E48C078012802D0022852D123E008204D
:105240002B498860802008730A20887329482749E1
:105250008860042088700F2405E0002124480F3066
:105260000155601EC4B2002CF7D125202049C87317
:1052700001201E490871072008700320C87302200E
:10528000C87003262EE01948C07BC8B919480078B9
:105290001949C87017484078887016488078487057
:1052A0001448C07808701348817913484172114836
:1052B000C0791149087201200C49C87000260FE01E
:1052C0000A48C07B012803D10849C870012607E0BD
:1052D0000648C07B022803D101200449C870022679
:1052E00000E000BF00BF304670BD00002812012062
:1052F000F8110120941201208412012070B5054696
:1053000003262846FCF701FA00285DD02F48C07814
:10531000012802D0022855D12BE03F202C4988607B
:10532000802008730A2088732A4828498860084624
:1053300080784870062088700F2405E000212448FA
:105340000F300155601EC4B2002CF7D10320204954
:10535000C87300211E4801743F21C17401201B49FC
:105360000871072008700320C8730220C870032644
:1053700029E01648C07BA0B9164801781648C171CB
:10538000144841781448817112488178124841715B
:105390001048C0781049087101200C49C8700026D7
:1053A0000FE00A48C07B012803D10849C8700126D4
:1053B00007E00648C07B022803D101200349C870DA
:1053C000022600E000BF00BF304670BD2812012059
:1053D000F8110120941201208412012070B50546B5
:1053E00003262846FCF791F9002846D02448C078C7
:1053F000012802D002283ED124E000202149886003
:1054000008730620887320481D4988603F208881E2
:10541000032088700F2405E000211A480F30015541
:10542000601EC4B2002CF7D100201649C8730120B9
:1054300013490871072008700320C8730220C87040
:10544000032619E00E48C07B20B901200C49C87022
:1054500000260FE00A48C07B012803D10849C87024
:10546000012607E00648C07B022803D10120044939
:10547000C870022600E000BF00BF304670BD0000CB
:1054800028120120F8110120181201202DE9FF41F6
:1054900082B007460E461D464FF003083846FCF71B
:1054A00034F900285BD03048C078012802D00228A7
:1054B00053D138E02D48856000202C4908730A201C
:1054C0008873294886600F2405E0002127480F30A3
:1054D0000155601EC4B2002CF7D12A202349C8739D
:1054E0009DF81310214841749DF8121081749DF8A5
:1054F0001110C1749DF810100175C5F34F20019073
:105500009DF80510194881759DF80410C17501209A
:1055100015490871072008700320C8730220C8705D
:105520004FF003081AE01048C07B28B901200E494B
:10553000C8704FF000080FE00B48C07B012802D173
:105540000949C87008E00848C07B022804D101203E
:105550000549C8704FF0020800E000BF00BF404698
:1055600006B0BDE8F081000028120120F8110120EA
:105570002DE9F04704460D4617461E46DDE908981A
:1055800027B104F56C7000EB4510077004F56C70E2
:1055900000EB4510C088404508D0B8F1000F05D099
:1055A00004F56C7000EB4510A0F8068004F56C70F3
:1055B00000EB4510C078B04205D026B104F56C7000
:1055C00000EB4510C6702946204601F0CFF80020B8
:1055D000BDE8F08738B50546002400200090284635
:1055E00001F0EFFA002847D0284601F0F4FA0090C5
:1055F000009808B9002038BD0098C0F3C00018B169
:10560000284602F0A1FA04430098C0F3001018B134
:10561000284602F0E6F904430098C0F3401018B1A0
:10562000284602F011F804430098C0F3806018B1D6
:10563000284602F03FF904430098C0F3406018B1D7
:10564000284601F0ECFB04430098C0F3006018B159
:10565000284602F091F804430098C0F3407018B156
:10566000284601F0A3FB04430098C0F3405018B152
:10567000284601F0B1FB04432046BCE72DE9F04782
:1056800004460D4617461E46DDE9088904F5B2605A
:1056900010F8150000F07F0104F56C7000EB451068
:1056A000417004F5B26010F81500C0F3C01104F5A4
:1056B0006C7000EB4510817004F56C7000EB4510C8
:1056C000077004F56C7000EB451080F8058004F558
:1056D0006C7000EB4510A0F8069004F56C7000EBC0
:1056E0004510C670002104F56C7000EB4510017682
:1056F00004F56C7000EB451041762EB9012104F5DC
:105700006C7000EB451001712946204601F02EF81F
:105710000020BDE8F08700002DE9F04F87B0064675
:105720008A4693461D462C460027B84600BF287877
:10573000307068787070A978E87801EB002070808C
:105740002879307168797071A879B071E879F07151
:10575000287A30721098092872DD0920019030797A
:10576000022864DC002006905BE001A92046FEF7D9
:10577000D9F804466078042853D1A07847B207EBE3
:10578000C70050440690E07803284ADA214603A86F
:1057900000F0ADF84FF000089DF8100003283ADC47
:1057A00034E001A92046FEF7BDF8044660780528DC
:1057B0002CD107EB47000BEBC00000EBC8000290B8
:1057C00020480078B84206D01E490F7003A90698F9
:1057D00000F08DF80CE02179607901EB00201A4986
:1057E0000988884200DA15E003A9069800F07FF8DE
:1057F0002146029800F056F82179607901EB0020EB
:105800001149088008F101004FFA80F89DF8100056
:105810004045C6DC05E04FF00309484607B0BDE847
:10582000F08F7088BDF8041088429EDC03E04FF0D2
:1058300003094846F2E7002003490880014908703F
:105840000020EBE7BA030020B803002010B50B7866
:1058500003704B7843708C78CB7804EB0323438040
:105860000B7903714B7943718B798371CB79C37158
:10587000082A16DD0C7A4B7A04EB032303818C7A19
:10588000CB7A04EB032343810C7B4B7B04EB032398
:1058900083818B7B8373CB7BC3730B7C03744B7CC7
:1058A000437410BD0A7802704A7842708A78827018
:1058B000CA78C2700B794A7903EB022282808A7916
:1058C000827170470A7802704A7842708B78CA7881
:1058D00003EB022242800A7902714A7942718A7985
:1058E0008271CB790A7A03EB0222028170470A782F
:1058F00002704A7842708A788270CA78C2700A79D7
:1059000002714A7942718A798271CA79C2710A7ABE
:105910000272704730B513464578032D14D10578CF
:10592000AD1E9D4202DC0578AD1E00E01D46ACB206
:10593000801C002204E0855C0D70491C951CAAB2F5
:10594000A242F8DB00250D7030BD01460022C1F8EF
:1059500014230020704701460122C1F814230020BF
:1059600070473EB505460C46022002902846FBF7DC
:10597000CCFE18B12846FBF7CCFE30B9207820B118
:105980002078032801D00320207020780D287CD2B5
:10599000DFE800F0071822B1D25F7C8F9C6BD2D277
:1059A000A1002846FBF7B1FE58B101202070642009
:1059B00000F0F4FB2846FBF7B0FED4F89010C8685E
:1059C0008047BAE0D5F81403012804D102202070E2
:1059D000322000F0E3FBB0E0D4F8901088688047F4
:1059E00000212846FDF7C6FD607180212846FDF79D
:1059F000C1FD20712846FBF790FE48BBD4F89010FB
:105A0000C86880472846FBF73BFEC1B221200155FC
:105A1000052020702122105DD4F8902091698847DC
:105A2000A0790021CDE900102120035D94F8202009
:105A300021792846FFF722FEA0790021CDE9001048
:105A40002120035D94F8202061792846FFF716FE97
:105A500073E021462846FEF7B7FC28B9D4F8901029
:105A6000486B80470920207067E0D4F89010886B5D
:105A70008047012808D1D4F88C00214602682846C6
:105A8000904708B90620207057E055E0D4F88C0004
:105A9000214682682846904702909DF8080010B978
:105AA0000720207004E09DF808102046FDF7DEFE78
:105AB00043E0D4F88C002146C26828469047029003
:105AC0009DF808102046FDF7D1FE36E02146284615
:105AD000FEF764FB31E021462846FDF7A4FED4F82A
